:03000000020158A2
:0100030032CA
:03000B00020106E9
:0100130032BA
:01001B0032B2
:0100230032AA
:03002B00020122AD
:10002E00C00078B10000D8FCD00022C000C0017919
:10003E002D78A6D8FED9FADAF6D001D00022D293C6
:10004E0012002EC29322A2E792B5A2E692B4A2E5C6
:10005E0092B3A2E492B212004C12002EA2E392B519
:10006E00A2E292B4A2E192B3A2E092B212004C22AA
:10007E00D291020054C291020054C293C2927433C0
:10008E0012008374331200837432120083742812A8
:10009E000083740C1200837401120083C0027A0272
:1000AE00120039D00222E493600612007EA380F67D
:1000BE002244404480020083C0E0E8C4540F443020
:1000CE0012007EE8540F443012007ED0E0224243EC
:1000DE00445F636F756E7465723A2078782000E520
:1000EE008954F04401F589758CEA758AE875F4EA4D
:1000FE0075F2E8D2A9D28C22B2B73275C80075CD8E
:10010E00A975CC9A75CBA975CA9AE4F530F531D29A
:10011E00ADD2CA22C2CFB2B6C0E0C0D00530E530F3
:10012E0070020531E530B4F41CE531B40117D2008C
:10013E00B28CE4F530F531E53230800424018002D2
:10014E002499D4F532D0D0D0E03275817F1200EDF3
:10015E0012010975E60075E700D2AF120088C0E003
:10016E007401141200C1D0E0C083C082C0E09000C0
:10017E00DC1200B4D0E0D082D083D20075320020E1
:10018E00C51CC0027A64120039D00220C51030C5D9
:10019E00FDC2CAE4F530F531F532D2CA8003300023
:1001AE00DEC200C0E0740E141200C1D0E0C000A880
:0901BE00321200C6D00002018DCE
:00000001FF
