:030000000204DD1A
:0100030032CA
:03000B000200F5FB
:0100130032BA
:01001B0032B2
:0100230032AA
:03002B00020111BE
:10002E00C00078B10000D8FCD00022C000C0017919
:10003E002D78A6D8FED9FADAF6D001D00022D293C6
:10004E0012002EC29322A2E792B5A2E692B4A2E5C6
:10005E0092B3A2E492B212004C12002EA2E392B519
:10006E00A2E292B4A2E192B3A2E092B212004C22AA
:10007E00D291020054C291020054C293C2927433C0
:10008E0012008374331200837432120083742812A8
:10009E000083740C1200837401120083C0027A0272
:1000AE00120039D00222E493600612007EA380F67D
:1000BE002244404480020083C0E0E8C4540F443020
:1000CE0012007EE8540F443012007ED0E022E58903
:1000DE0054F04401F589758CEA758AE875F4EA7571
:1000EE00F2E8D2A9D28C22B2B73275C80075CDA96A
:1000FE0075CC9A75CBA975CA9AE4F530F531D2ADA7
:10010E00D2CA22C2CFB2B6C0E0C0D00530E5307040
:10011E00020531E530B4F41CE531B40117D200B25A
:10012E008CE4F530F531E532308004240180022470
:10013E0099D4F532D0D0D0E03274401200837407D7
:10014E0012007E740F12007E741F12007E741F1236
:10015E00007E741F12007E741F12007E741F120028
:10016E007E741F12007E741F12007E741F12007E9A
:10017E00741F12007E740012007E740012007E74D2
:10018E000012007E740012007E740012007E741C39
:10019E0012007E741E12007E741F12007E741F12D7
:1001AE00007E741F12007E741F12007E741F1200D8
:1001BE007E741F12007E741F12007E741F12007E4A
:1001CE00741F12007E741F12007E741F12007E7444
:1001DE001F12007E740F12007E740712007E7400D0
:1001EE0012007E740012007E740012007E740012E3
:1001FE00007E740012007E741F12007E741F1200A7
:10020E007E741F12007E741F12007E741F12007EF9
:10021E00741F12007E741F12007E741F12007E74F3
:10022E001F12007E741E12007E741C12007E741F3C
:10023E0012007E741F12007E741F12007E74001254
:10024E00007E740012007E740012007E741F120075
:10025E007E741F12007E741F12007E740012007EC8
:10026E00740012007E740012007E740012007E7400
:10027E001F12007E741F12007E741F12007E22E970
:10028E004480120083740012007E740112007E748A
:10029E000212007E742012007EE944C012008374A4
:1002AE000312007E740412007E740512007E742008
:1002BE0012007E22E94480120083740112007E74C3
:1002CE000212007E742012007E742012007EE94419
:1002DE00C0120083740412007E74FF12007E740438
:1002EE0012007E742012007E22E944801200837474
:1002FE000612007E740612007E740212007E7420B6
:10030E0012007EE944C0120083740312007E74074B
:10031E0012007E740712007E742012007E22E944C1
:10032E0080120083740612007E740612007E740220
:10033E0012007E742012007EE944C01200837407FE
:10034E0012007E740712007E740512007E74201255
:10035E00007E22E94480120083740312007E74042E
:10036E0012007E740212007E742012007EE944C0D8
:10037E00120083742012007E742012007E74FF120D
:10038E00007E742012007E22E9448012008374FFE6
:10039E0012007E740612007E740612007E74201205
:1003AE00007EE944C0120083740712007E740712A7
:1003BE00007E740512007E742012007E22E94480B5
:1003CE00120083740012007E740612007E740612F0
:1003DE00007E742012007EE944C012008374031262
:1003EE00007E740712007E740512007E74201200C7
:1003FE007E22E94480120083740112007E74011281
:10040E00007E740212007E742012007EE944C01237
:10041E000083742012007E742012007E740012007D
:10042E007E742012007E22E9448012008374001232
:10043E00007E740612007E740212007E742012007A
:10044E007EE944C0120083740312007E740712000A
:10045E007E740512007E742012007E22E944801202
:10046E000083740012007E740612007E7402120065
:10047E007E742012007EE944C012008374201200A4
:10048E007E742012007E74FF12007E742012007E95
:10049E002275F003A49004A77302028D0202C20219
:1004AE0002F702032C0203610203960203CB02043D
:1004BE000002043502046AC0E088F0A9F0C4540FAB
:1004CE0012049FE82404F9D0E0540F12049F227501
:1004DE00817F1200DC1200F875E60075E700D2AFDE
:1004EE00120088120147D20075320020C51CC002CE
:1004FE007A32120039D00220C51030C5FDC2CAE4CE
:10050E00F530F531F532D2CA80033000DEC2007804
:09051E0008E5321204C50204F9DB
:00000001FF
