:0300000002016B8F
:0100030032CA
:03000B00020117D8
:0100130032BA
:01001B0032B2
:0100230032AA
:03002B000201359A
:10002E00C00078B10000D8FCD00022C000C0017919
:10003E002D78A6D8FED9FADAF6D001D00022D293C6
:10004E0012002EC29322A2E792B5A2E692B4A2E5C6
:10005E0092B3A2E492B212004C12002EA2E392B519
:10006E00A2E292B4A2E192B3A2E092B212004C22AA
:10007E00D291020054C291020054C293C2927433C0
:10008E0012008374331200837432120083742812A8
:10009E000083740C1200837401120083C0027A0272
:1000AE00120039D00222E493600612007EA380F67D
:1000BE002244404480020083C0E0E8C4540F443020
:1000CE0012007EE8540F443012007ED0E022303011
:1000DE003A30303A303000414D00504D00416C61A5
:1000EE00726D3A00436C6F636B3A00323448523A89
:1000FE00E58954F04401F589758CEA758AE875F442
:10010E00EA75F2E8D2A9D28C22B2B7327B0075C85A
:10011E000075CDA975CC9A75CBA975CA9AE4F53040
:10012E00F531D2ADD2CA22C2CFB2B6C0E0C0D00530
:10013E0030E53070020531E530B4E81CE531B4032A
:10014E0017D200B28CE4F530F531E532308004245C
:10015E000180022499D4F532D0D0D0E03275817F5F
:10016E001200FE12011A75E60075E700D2AF1200FA
:10017E0088C0E07408141200C1D0E0C083C082C0F1
:10018E00E09000DC1200B4D0E0D082D083C0E074E6
:10019E000E141200BFD0E0C083C082C0E09000E514
:1001AE001200B4D0E0D082D083C0E07401141200EB
:1001BE00C1D0E0C083C082C0E09000F21200B4D083
:1001CE00E0D082D083D200753200753300753400D2
:1001DE00753500E532B46039E53304D4F533B460D7
:1001EE0045753300E53404D4F534C0E074081412B8
:1001FE0000C1D0E0C000A8341200C6D000E53524FE
:10020E0001D4F535E534B4121DE535B42466020289
:10021E00BD20C51FC0027A32120039D00220C5138C
:10022E0030C5FD0202FBC2CAE4F530F531F532D21B
:10023E00CA800330009DC200C0E0740E141200C1CB
:10024E00D0E0C000A8321200C6D000C0E0740B147B
:10025E001200C1D0E0C000A8331200C6D000C0E02A
:10026E007408141200BFD0E0C000A8351200C6D02A
:10027E00000201E1C0E0740E141200BFD0E0C08392
:10028E00C082C0E09000E81200B4D0E0D082D083EB
:10029E00753412C0E07408141200C1D0E0C000A87A
:1002AE00341200C6D000753400753512020234C007
:1002BE00E0740E141200BFD0E0C083C082C0E09084
:1002CE0000E51200B4D0E0D082D083753400C0E0D7
:1002DE007408141200C1D0E0C000A8341200C6D0B9
:1002EE000075350075340002023402023475320096
:1002FE00C0E0740E141200C1D0E0C000A83212008B
:10030E00C6D000208365C0027A32120039D0022096
:10031E0083593083FDE5342401D4F534C0E07408EC
:10032E00141200C1D0E0C000A8341200C6D000E5FF
:10033E00352401D4F535C0E07408141200BFD0E0A6
:10034E00C000A8351200C6D000E534B41208E53559
:10035E00B4247202040E20C5AAC0027A32120039E9
:10036E00D00220C59E30C5FD020234208295C00207
:10037E007A32120039D0022082893082FDE5332490
:10038E0001D4F533C0E0740B141200C1D0E0C000EC
:10039E00A8331200C6D000B46016E4F533C0E07482
:1003AE000B141200C1D0E0C000A8331200C6D0005A
:1003BE0020C5B8C0027A32120039D00220C5AC3046
:1003CE00C5FD020234C0E0740E141200BFD0E0C0AE
:1003DE0083C082C0E09000E81200B4D0E0D082D09A
:1003EE0083753412C0E07408141200C1D0E0C0004E
:1003FE00A8341200C6D0007534007535120203649D
:10040E00C0E0740E141200BFD0E0C083C082C0E002
:10041E009000E51200B4D0E0D082D083753400C0D5
:10042E00E07408141200C1D0E0C000A8341200C657
:0B043E00D00075350075340002036427
:00000001FF
