:100000000200037581431201BBE582600302006FA9
:10001000780079007A007B007C007D00EC4D601C4C
:1000200088828983E493A3A882A9838A828B83F040
:10003000A3AA82AB831CBCFFE31D80E07582007520
:1000400083007C007D00EC4D600AE4F0A31CBCFF43
:10005000F51D80F27582007583007C007D00EC4DFB
:10006000600AE4F0A31CBCFFF51D80F21201BA1275
:10007000039D80FE25660A001B5B324A0041444313
:1000800020746573742070726F6772616D0A4669BF
:100090006C653A2025730A436F6D70696C65643A2C
:1000A0002025732C2025730A0A00433A5C5573659A
:1000B00072735C6E757361695C4465736B746F70A9
:1000C0005C454C4543203239315C506861736F7236
:1000D0005C45464D385F4144432E63004D617220BC
:1000E000203420323032300031343A30333A343038
:1000F0000054696D657220696E697469616C697A12
:100100006174696F6E20646F6E652E20544D4F448C
:10011000203D2025642C20545230203D2025640AA7
:1001200000543D2025666D732C20544830203D201E
:1001300025642C20544C30203D2025642C206F76E3
:100140006572666C6F775F636F756E74203D2025F6
:10015000640A004D6561737572696E672070656130
:100160006B007065616B206973203D2025372E354B
:10017000660A007065616B20766F6C74616765203C
:1001800028524D5329203D2025372E35660A004D33
:100190006561737572696E6720706861736520644C
:1001A0006966666572656E63650A005068617365AD
:1001B000206973203D2025660A002275A7007597E7
:1001C000DE7597AD75FF8075EF0675A71075C120B8
:1001D00075A70075A90075A900E5A930E7FB75A909
:1001E0000375A903E5A930E7FB43A41075E1017588
:1001F000E20075E340759810758DE6858D8B538907
:100200000F438920D28ED2997582002275A700757E
:10021000B28075BCF875B91E75E80075DF3F75B31F
:1002200000D2EF22AA82438E407592B87593FF8563
:1002300092948593957591047B00C3EB9A500BE5DE
:100240009130E7FB53917F0B80F075910022AA82D9
:10025000AB837C007D00C3EC9AED9B502B7E00BEEF
:100260000400501D7582FAC002C003C004C005C05E
:1002700006120224D006D005D004D003D0020E808E
:10028000DE0CBC00D10D80CE22AA828518F005F0CC
:100290007401800225E0D5F0FBFB75A720BA0002AF
:1002A000800ABA0102800FBA021E8014EBF4FA52DF
:1002B000F1EB42D48012EBF4FA52F2EB42D5800813
:1002C000EBF4FA52F3EB42CC75A700228582BBD245
:1002D000EC20ECFDD2EC20ECFD85BD8285BE8322B6
:1002E0001202CC1208FEAA82AB83ACF0FDC002C0A1
:1002F00003C004C005906C8B75F053744012093A2A
:10030000AA82AB83ACF0FDE58124FCF581E4C0E07A
:1003100074FCC0E0747FC0E07446C0E08A828B83C6
:100320008CF0ED120A8FAA82AB83ACF0FDE581243C
:10033000FCF5818A828B838CF0ED225389F043890E
:1003400001C28C229001F412024E751804758201CC
:1003500012028975180575820112028975180675D1
:100360008201120289751807758201120289120230
:100370000C75820B1202E0AA82AB83ACF0FDC002C6
:10038000C003C004C0057474C0E07400C0E0748091
:10039000C0E0120A56E58124F9F58180D412033BAE
:1003A0009001F412024E7478C0E07400C0E07480D2
:1003B000C0E0120A5615811581158174E8C0E074F9
:1003C00000C0E07480C0E074DCC0E07400C0E07481
:1003D00080C0E074AAC0E07400C0E07480C0E07423
:1003E0007DC0E07400C0E07480C0E0120A56E58170
:1003F00024F4F581751804758201120289751805B7
:1004000075820112028975180675820112028975BA
:10041000180775820112028912020CA28CE433FAC9
:100420007B00AC897D00C002C003C004C00574F12C
:10043000C0E07400C0E07480C0E0120A56E5812478
:10044000F9F581758C00758A00C28D2091FD30917F
:10045000FDD28C7A007B0030910C108D0280F80A5E
:10046000BA00F40B80F18A0D8B0E20910F108D02D3
:1004700080F8050DE4B50DF2050E80EEC28C850DF9
:1004800082850E83120A82AC82AD83AEF0FFC00477
:10049000C005C006C00790000075F08074471209BF
:1004A0003AAC82AD83AEF0FFE58124FCF581858C0A
:1004B00082C004C005C006C0071209DDA882A98356
:1004C000AAF0FBC000C001C002C00390000075F09C
:1004D00080744312093AAA82AB83A8F0F9E581241B
:1004E000FCF581D007D006D005D004C002C003C0FF
:1004F00000C0018C828D838EF0EF1209E8AA82ABD6
:1005000083ACF0FDE58124FCF581AE8A7F008E820C
:100510008F83C002C003C004C005120A82AE82AF3E
:1005200083A8F0F9D005D004D003D002C006C007DC
:10053000C000C0018A828B838CF0ED1209E8AA8288
:10054000AB83ACF0FDE58124FCF581C002C003C0A3
:1005500004C00590F4FC75F032743412093A8582B7
:100560000985830A85F00BF50CE58124FCF581AE45
:100570008A7F00A88C7900C006C007C000C001C0F7
:1005800009C00AC00BC00C90000075F07A744412C8
:10059000093A85821385831485F015F516E58124C3
:1005A000FCF581D001D000D007D006C00DC00EC030
:1005B00006C007C000C001C013C014C015C0167427
:1005C00021C0E07401C0E07480C0E0120A56E581E9
:1005D00024F3F581758C00758A00C28D7453C0E0D8
:1005E0007401C0E07480C0E0120A561581158115AF
:1005F000812091FD3091FD750F007510007511007F
:100600007512007A007B007C007D00C002C003C030
:1006100004C005C013C014C015C0168A828B838C19
:10062000F0ED12090AAE82E58124FCF581D005D0F7
:1006300004D003D002EE70030206C475820BC00220
:10064000C003C004C0051202E0AE82AF83A8F0F977
:10065000C006C007C000C001850F828510838511C8
:10066000F0E51212090AAE82E58124FCF581D0057D
:10067000D004D003D002EE602175820BC002C0030B
:10068000C004C0051202E085820F85831085F01139
:10069000F512D005D004D003D002740AC0E074D79C
:1006A000C0E07423C0E0743CC0E08A828B838CF08D
:1006B000ED1209E8AA82AB83ACF0FDE58124FCF5DC
:1006C0008102060BC00FC010C011C0127462C0E0DE
:1006D0007401C0E07480C0E0120A56E58124F9F587
:1006E00081C00FC010C011C01290FDF475F03474B9
:1006F0003F12093AAA82AB83ACF0FDE58124FCF5F8
:1007000081C002C003C004C0057473C0E07401C09E
:10071000E07480C0E0120A56E58124F9F581748FF7
:10072000C0E07401C0E07480C0E0120A5615811563
:10073000811581758C00758A00C28D2090FD3090E6
:10074000FDD28C7A007B0030910C108D0280F80A6B
:10075000BA00F40B80F120910C108D0280F80ABAD7
:1007600000F40B80F1C28C8A828B83120A82AA82E7
:10077000AB83ACF0FDC002C003C004C00590000014
:1007800075F080744712093AAA82AB83ACF0FDE59C
:100790008124FCF581858C82C002C003C004C005A1
:1007A0001209DDAE82AF83A8F0F9C006C007C00011
:1007B000C00190000075F080744312093AAE82AF18
:1007C00083A8F0F9E58124FCF581D005D004D0039D
:1007D000D002C006C007C000C0018A828B838CF0A3
:1007E000ED1209E8AA82AB83ACF0FDE58124FCF5AB
:1007F00081AE8A7F008E828F83C002C003C004C096
:1008000005120A82AE82AF83A8F0F9D005D004D0D9
:1008100003D002C006C007C000C0018A828B838C4F
:10082000F0ED1209E8AA82AB83ACF0FDE58124FC6F
:10083000F581C002C003C004C00590F4FC75F0321D
:10084000743412093AAA82AB83ACF0FDE58124FC32
:10085000F581C002C003C004C00590000075F0B46B
:10086000744312093AAA82AB83ACF0FDE58124FC03
:10087000F581C009C00AC00BC00C8A828B838CF042
:10088000ED120A8FAA82AB83ACF0FDE58124FCF562
:1008900081E4C0E0C0E074A0C0E07440C0E08A829F
:1008A0008B838CF0ED120A77AA82AB83ACF0FDE566
:1008B0008124FCF581C002C003C004C00574ABC034
:1008C000E07401C0E07480C0E0120A56E58124F9AA
:1008D000F58175820B1202E0AA82AB83ACF0FDC0F9
:1008E00002C003C004C0057474C0E07400C0E074AA
:1008F00080C0E0120A56E58124F9F58180D4E4AC89
:1009000083AB82FAF9748E020BB7FFA88118181214
:100910000BDFD2D133E6400730E70B75820022208F
:10092000E70675820122C2D1120BC1E97003F5827C
:100930002220D101B3E433F58222120C8CBC0003D7
:10094000020C2BEF60FA30D502B2D1E583B4FF037D
:10095000020C41E582B4FF03020C412583400724C9
:1009600082400B020C2B2483145003020C41F582AD
:10097000EA8DF0A4A8F0EA8EF0A428F8E435F0F9A6
:10098000EB8DF0A428E935F0F9E433CA8FF0A429FF
:10099000F9EA35F0FAEBF88EF0A429F9EA35F0FA25
:1009A000E433FBEC8DF0A429F9EA35F0FAE43BFBE3
:1009B000E88FF0A42AFAEB35F0FBE433CCFD8EF09F
:1009C000A42AFAEB35F0FBE43CFCED8FF0A42BFB02
:1009D000EC35F0FC20E703120C59020C0AE4AC825F
:1009E000FBFAF97486020BB7120C8C7900E583B51B
:1009F0008202800D5003120CBAE583C39582120C5B
:100A0000D4E5D0C465D020E117EA2DFAEB3EFBEC2B
:100A10003FFC50097401120CD4EC4480FC020C0A17
:100A2000C3EA9DFAEB9EFBEC9FFC500FC3E499F9DF
:100A3000E49AFAE49BFBE49CFCB2D1120C59020C40
:100A40000A0216A385823085833185F032851733FB
:100A5000900A410210F6C008858108E50824FBF5DC
:100A600033E50824FBF88630088631088632900A80
:100A7000411210F6D00822A8811818C6B2E7C602A3
:100A800009E8AC83AB827A007900748E0216C11239
:100A90000C8C30D502B2D1BF0009BC0003020C4E51
:100AA000020C41BC0003020C2BE583B4FF0BE58272
:100AB000B4FF03020C4E020C2BE582B4FF03020CC0
:100AC00041C395835007247F400B020C2B248014D4
:100AD0005003020C41C0E0E4CCCBCAF98D188E194A
:100AE0008F1AEF54F0C4F51B758306851BF0EB8459
:100AF000F582E9C4F9EAC4FAEBC4FBEC540FC478FC
:100B000003D6FC18EBD6FB18EAD6FA8582F0EDA4E2
:100B1000A8F0FD8582F0EEA428FEE435F0F8858289
:100B2000F0EFA428FFE435F0F8E99DF9EA9EFAEB2E
:100B30009FFBEC98FCAD18AE19AF1A30E710158288
:100B4000E92DF9EA3EFAEB3FFBE43CFC80EDC08284
:100B5000D58398C3E933F9EA33FAEB33FBEC33FC82
:100B6000C3E99DEA9EEB9FEC9400B3E413F9D00235
:100B7000D0E0C44AFAD003D0E0C44BFBD004D0E0AC
:100B8000F5F0540FC44CFCD082158230F40FD3EC36
:100B900013FCEB13FBEA13FAE913F90582E930E7DA
:100BA0000A74012AFAE43BFBE43CFC020C22FCAB95
:100BB000F0AA83A982749EC2D1F582120C59020C4C
:100BC0000A7901AA82E68F82B5821318E6B5F00E83
:100BD00018E6B5830918E68A82B58202790022B444
:100BE000800FE5F0700AE5837006E58270027F00F1
:100BF000EFB6801518B6001018B6000B18B6000630
:100C000008080876002208080822B98003EA13B30E
:100C10004010EA2401FAE43BFBE43CFC50047C80F5
:100C20000582BC000EBB000BBA0008E4F5F0F583AA
:100C3000F58222A2D1E582138CF092F78B838A820F
:100C400022E4F583F58275F080F4A2D11322E4F555
:100C500083F58275F0C0747F227804EC7011E58210
:100C600024F8500AF582E4C9CACBFCD8EF22EC780C
:100C700020058220E713D5820122C3E933F9EA3344
:100C8000FAEB33FBEC33FCD8EA158222AA82AB8361
:100C9000A2F73392D16002D2F7F582ACF0E581245D
:100CA000F9F8E6FD08E6FE0886F008E6A2F73392BA
:100CB000D56002D2F7F583AFF022E582C583F582D5
:100CC000A2D133A2D592D11392D5ECCFFCEBCEFBBF
:100CD000EACDFA226040F82582500274FFF582E8DE
:100CE00024F8501ECCCBCAF9E4CC24F85014CBCA5B
:100CF000F9E4CB24F8500BCAF9E4CA24F85003797C
:100D0000002224086010F8C3EC13FCEB13FBEA1379
:100D1000FAE913F9D8F122AA827428C0E0740DC050
:100D2000E0C022C0238A82220529E4B52902052ACF
:100D300022AA8274302AFA24C6500A74072AFA308A
:100D400000034302208A82020D17E582FAC4540F81
:100D5000F582C002120D31D002740F5AF582020DD5
:100D600031AA24AB25AC26AD27AE28752F20EE2E58
:100D7000FEED235401FF4206EA2AFAEB33FBEC3383
:100D8000FCED33FDC3EE952B4008EEC3952BFE43DF
:100D90000201D52FD98A248B258C268D278E2822D7
:100DA0007840E624D075F00AA4FA7841E624D02AE7
:100DB000FA783F8603BB2D04C3E49AFA752B01C36E
:100DC000E464808AF063F08095F05029752F038ADF
:100DD0000374F6252F401C052BE52F142434F8E569
:100DE0002F2434F98704A604772E1BEBFA60040540
:100DF0002F80DE8B02EA30E70D783586037836A641
:100E0000037835762E0AE52D600AE52D04FB252BA7
:100E1000F52B8005300B02052B78348603E4BB2DBF
:100E20000104FB7006200603300702052B30040383
:100E3000020EE7300557EB600C75822DC002120DD3
:100E400017D002801C30060C75822BC002120D17C1
:100E5000D002800D30070A758220C002120D17D013
:100E60000278358604BC2E0C758230C002120D1734
:100E7000D002152CAC2C152CC3E52B9C4003020F83
:100E80002B758230C002120D17D00280E7AC2C15F2
:100E90002CC3E52B9C500C758220C002120D17D07C
:100EA0000280EA78348604BC2D0C75822DC00212B3
:100EB0000D17D002801C30060C75822BC002120D5B
:100EC00017D002800D30070A758220C002120D175C
:100ED000D00278358604BC2E52758230C002120DC5
:100EE00017D002152C8044EB600E75822DC00212C3
:100EF0000D17D002152C802030060E75822BC002F3
:100F0000120D17D002152C800F30070C758220C0EF
:100F100002120D17D002152C78358603BB2E0C75E6
:100F20008230C002120D17D002152C752F01C20D90
:100F3000E52F2434F88603BB4503020FE8BB2E34AB
:100F40008A03C3E464808BF063F08095F0500F75E2
:100F50008230C003120D17D0031B8B0280E48B027A
:100F6000D20DE52D7038200B03020FE875822E128A
:100F70000D178074300D278A03EB30E71FC3E4643C
:100F800080852DF063F08095F0500C758230C003A1
:100F9000120D17D003152D0B8B0280DD8B02300D47
:100FA0000EC3E46480852DF063F08095F05021E558
:100FB0002F2434F886038B82C002120D17D0023022
:100FC0000D0EE52F2434F88603BB2E028002152D6A
:100FD000152CC3E46480852DF063F08095F0400308
:100FE000200D05052F020F30C3E46480852DF063CA
:100FF000F08095F0500A758230120D17152D80E89B
:1010000030040FAA2C152CEA6008758220120D17E7
:1010100080F122E52D7003300B0D7407252DFAE5C4
:101020002CC39AF52C8006E52C24FAF52C752F009C
:1010300078348602BA2B0F20060C783476202007ED
:1010400005752F01052C200419AA2CC3E464808A9D
:10105000F063F08095F0500A758220120D17152C60
:1010600080E7C20DE52F2434F88602BA00028069B9
:10107000BA451F3000027665C3E46480852DF063B5
:10108000F08095F0500A758230120D17152D80E80A
:10109000D20DC3E52F9402E433FA7014EA700EC344
:1010A000E46480852DF063F08095F04003300D16E8
:1010B000E52F2434F886028A82120D17E52F24FDCD
:1010C0005012152D800E7402B52F09300B06758253
:1010D0002E120D17052F021064300419AA2CC3E438
:1010E00064808AF063F08095F0500A758220120DBA
:1010F00017152C80E722858222858323E4F529F5C4
:101100002AAA30AB31AC328A828B838CF01216E57E
:10111000FD74012AF530E43BF5318C32EDFA7003B1
:1011200002169CBA25028003021694C204C205C2AC
:1011300006C207C208C209C20AC20BC201C202C269
:1011400003752B00752C00752DFFAB30AC31AD3223
:101150008B828C838DF01216E5FAA3AB82AC838B65
:10116000308C318D32BA25078A82120D1780928A0F
:1011700006BE3000402E8A06EE24C6402774FFB516
:101180002D13E52C75F00AA4FEEA24D02EF52C7060
:10119000BFD20580BBE52D75F00AA4FEEA24D02E4F
:1011A000F52D80ACBA2E0A74FFB52DA4752D0080E4
:1011B0009F8A06BE6100400E8A06EE2485400753D2
:1011C00002DFD2008002C200BA20028075BA230377
:1011D000021251BA2A03021256BA2B02805FBA2DAC
:1011E000028055BA4202805FBA430302129BBA449E
:1011F000030213D6BA45030213F0BA46030213ECF6
:10120000BA47030213F4BA49030213D6BA4C028058
:101210003BBA4E030213F8BA4F030213DDBA500370
:1012200002136FBA53030212BFBA55030213E2BA94
:1012300058030213E7021422D204021150D206020C
:101240001150D207021150D209021150D20A0211D4
:1012500050D20B02115074FFB52D2030090BE5332D
:1012600014F88833862C021150E53324FEF88833B5
:101270008606088607188E2C02115030090BE533BC
:1012800014F88833862D021150E53324FEF8883394
:101290008606088607188E2D02115030090AE5339C
:1012A00014F888338602800FE53324FEF8883386ED
:1012B00003088604188B028A82120D17021427E590
:1012C0003324FDF888338603088604088605181839
:1012D0008B248C258D268B828C838DF0121839AB54
:1012E00082AC838B2E74FFB52D03852E2D20041D1B
:1012F000C3E52E952C5016E52CC3952EF52CAB2C62
:10130000152CEB6008758220120D1780F185248260
:101310008525838526F01216E5FBFA6029AB2D158D
:101320002DC3E464808BF063F08095F050188A82BE
:10133000120D17AB24AC25AD260BBB00010C8B2482
:101340008C258D2680C7200403021427C3E52E9523
:101350002C4003021427E52CC3952EF52CAB2C153D
:101360002CEB7003021427758220120D1780EEE516
:101370003324FDF888338603088604088605181888
:101380008B248C258D26E526FB30E7047A438013D9
:10139000EB546060047A50800AEB30E6047A4980AE
:1013A000027A588A82C002120D1775823A120D17FE
:1013B000758230120D17758278120D17D002BA4956
:1013C00002800BBA50028006852582120D4A8524C0
:1013D00082120D4A8051D208752B0A804A752B085B
:1013E0008045752B0A8040752B10803BD2018037D9
:1013F000D2028033D203802FE53324FDF888338670
:101400000308860408860518188B248C258D268BE6
:10141000828C838DF0E529121820A3E52A1218206A
:1014200080058A82120D1720010620020330037006
:10143000E53324FCF888338603088604088605080B
:1014400086061818188B248C258D268E27E524E512
:1014500025E526E5278B828C838DF0EE121701742B
:10146000FFB52D03752D06300327747F5527FB8BA1
:1014700028E528EB2BFB8B28E52630E70674014591
:1014800028F528E52824684006749925284002D2CA
:1014900002300206121013021101120DA0021101F6
:1014A000E52B70030211017B3930092BE53314F869
:1014B0008833E6FC3395E0FDFEFF8C248D258E26D7
:1014C0008F2720085EAC247D007E007F008C248D59
:1014D000258E268F27804C300A1FE53324FCF888A0
:1014E0003386040886050886060886071818188CAF
:1014F000248D258E268F27802AE53324FEF8883315
:10150000860408860518ED3395E0FEFF8C248D25B2
:101510008E268F2720080CAC24AD257E007F008E00
:10152000268F27300B43E52445254526452760397E
:101530007408B52B0C758230C003120D17D00380D0
:10154000287410B52B23758230C003120D17D003F9
:1015500030000C758278C003120D17D003800A7515
:101560008258C003120D17D003300825AC24AD25D6
:10157000AE26E527FF30E717C3E49CFCE49DFDE4BD
:101580009EFEE49FFF8C248D258E268F278002C22D
:1015900008752E00D20C8B00752800C000120D615A
:1015A000D000200C0DE528C4FCE6FD4CF61888039D
:1015B0008002A628052EB20CE524452545264527A0
:1015C00070D68803E52C7003752C0120051A2004C1
:1015D00017E52E04FCC3952C500E758220C0031213
:1015E0000D17D003152C80E930080E75822DC0032D
:1015F000120D17D003152C8024E52E602030060E26
:1016000075822BC003120D17D003152C800F3007E5
:101610000C758220C003120D17D003152C20041E58
:10162000AC2C152CC3E52E9C50273005047C308053
:10163000027C208C82C003120D17D00380E2C3E528
:101640002E952C5009E52CC3952EF52C8003752C76
:10165000008B00AB2E152EEB6022B20C200C0A087A
:10166000E6C4540FFB8B2880078603740F5BF528B4
:10167000852882C000120D31D00080D720040302DB
:101680001101AB2C152CEB70030211017582201295
:101690000D1780EE8A82120D1702110185298285AD
:1016A0002A8322AA82BA0A0810990280FB75990D32
:1016B00010990280FB8A9922FCABF0AA83A982745C
:1016C0009EF582C2D1EC30E716D2D1E9F42401F9BB
:1016D000EAF43400FAEBF43400FBECF43400FC12CE
:1016E0000C59020C0A20F71430F6148883A88220C3
:1016F000F507E6A88375830022E280F7E49322E0F1
:1017000022C0E0F84582458345F07009F5F0FBFC06
:10171000FDFE0217CFE823A2F792E0F8A982AA8380
:10172000D2F7ABF07C007E07C3749798404074FFFB
:101730002EFE740A89F0A4F985F082740A8AF0A456
:10174000FA85F083740A8BF0A4FB740529F9EA3555
:1017500082FAEB3583FB740035F0FCC3EC13FCEB31
:1017600013FBEA13FAE913F908EC70EF80BAE8C347
:10177000947FF88B838EF0E4FBFCFDFEFF08C3E949
:1017800033F9EA33FAE58333F583EB3BD4FBEC3CE6
:10179000D4FCED3DD4FDEE3ED4FEEF3FD4FF602DF2
:1017A00005F074052BD4FBE43CD4FCE43DD4FDE40B
:1017B0003ED4FEE43FD4FF758204C3EF13FFEE1363
:1017C000FEED13FDEC13FCEB13FBD582EDD8AF78E7
:1017D00034D0E020E704762B8002762D087906E7E6
:1017E000C4540F4430F608B90603762E08E7540FA8
:1017F0004430F60819B902E7764508E5F020E70419
:10180000762B8004762DF4040875F00A844430F6B3
:1018100008E5F04430F608E4F690003475F0402214
:1018200020F71030F6118883A88220F507F6A883E8
:1018300075830022F280F7F022AA82AB83ACF07DA0
:10184000007E008A828B838CF01216E5FFA3AA82A9
:10185000AB83EF60070DBD00EA0E80E78D828E83BB
:101860002200000000000000000000000000000056
:00000001FF
