:1000000002000375813112013DE582600302006F39
:10001000780079007A007B007C007D00EC4D601C4C
:1000200088828983E493A3A882A9838A828B83F040
:10003000A3AA82AB831CBCFFE31D80E07582007520
:1000400083007C007D00EC4D600AE4F0A31CBCFF43
:10005000F51D80F27582007583007C007D00EC4DFB
:10006000600AE4F0A31CBCFFF51D80F212013C12F3
:10007000021E80FE544D4F44203D2025642C205408
:100080005230203D2025640A00686968660A001B1A
:100090005B324A0045464D3820506572696F6420D6
:1000A0006D6561737572656D656E74206174207025
:1000B000696E2050302E31207573696E6720546947
:1000C0006D657220302E0A46696C653A2025730AE8
:1000D000436F6D70696C65643A2025732C2025731D
:1000E0000A0A00433A5C55736572735C6E757361FE
:1000F000695C4465736B746F705C454C454320329A
:1001000039315C506861736F725C506572696F64FD
:1001100045464D382831292E63004D617220203329
:1001200020323032300031383A33323A3532000D35
:10013000543D2566206D7320202020002275A700E5
:100140007597DE7597AD43FF8075EF0275A7107543
:10015000C12075A70075A90075A900E5A930E7FBC6
:1001600075A90375A903E5A930E7FB43A41075E160
:100170000175E20075E340759810858E8E758DE6E9
:10018000858D8B53890F438920D28ED29975820039
:1001900022AA82438E407592B87593FF859294850A
:1001A00093957591047B00C3EB9A500BE59130E772
:1001B000FB53917F0B80F075910022AA82AB83BA2A
:1001C0000004BB0001227582F9C002C00312019134
:1001D0007582F91201917582F91201917582FA12F4
:1001E0000191D003D0021ABAFF011B80D25389F0CB
:1001F000438901C28CA28CE433FA7B00AC897D0078
:10020000C002C003C004C0057474C0E07400C0E044
:100210007480C0E01204FDE58124F9F5812274891F
:10022000C0E07400C0E07480C0E01204FD158115C8
:100230008115811201ED9001F41201BB748FC0E0B1
:100240007400C0E07480C0E01204FD1581158115B2
:10025000817426C0E07401C0E07480C0E0741AC0EC
:10026000E07401C0E07480C0E074E3C0E07400C0DA
:10027000E07480C0E07494C0E07400C0E07480C09A
:10028000E01204FDE58124F4F581758B00758D0085
:10029000C28F7509002091FD3091FDD28E309109F9
:1002A000108F0280F8050980F4209109108F0280D8
:1002B000F8050980F4C28E850982120484AA82ABF3
:1002C00083ACF0FDC002C003C004C00590000075FF
:1002D000F08074471203E1AA82AB83ACF0FDE581A4
:1002E00024FCF581858D82C002C003C004C00512C4
:1002F0000484AE82AF83A8F0F9C006C007C000C076
:100300000190000075F08074431203E1AE82AF8368
:10031000A8F0F9E58124FCF581D005D004D003D004
:1003200002C006C007C000C0018A828B838CF0ED3A
:1003300012048FAA82AB83ACF0FDE58124FCF58129
:10034000AE8B7F008E828F83C002C003C004C005C5
:1003500012051EAE82AF83A8F0F9D005D004D003F9
:10036000D002C006C007C000C0018A828B838CF017
:10037000ED12048FAA82AB83ACF0FDE58124FCF57D
:1003800081C002C003C004C00590F4FC75F0327453
:10039000341203E1AA82AB83ACF0FDE58124FCF5C5
:1003A00081C002C003C004C00590000075F07A74DB
:1003B000441203E1AA82AB83ACF0FDE58124FCF595
:1003C00081C002C003C004C005742FC0E07401C026
:1003D000E07480C0E01204FDE58124F9F581020299
:1003E0008A1205ADBC000302054CEF60FA30D5025D
:1003F000B2D1E583B4FF03020562E582B4FF0302D4
:100400000562258340072482400B02054C24831497
:100410005003020562F582EA8DF0A4A8F0EA8EF09E
:10042000A428F8E435F0F9EB8DF0A428E935F0F9CB
:10043000E433CA8FF0A429F9EA35F0FAEBF88EF02C
:10044000A429F9EA35F0FAE433FBEC8DF0A429F99C
:10045000EA35F0FAE43BFBE88FF0A42AFAEB35F03A
:10046000FBE433CCFD8EF0A42AFAEB35F0FBE43C40
:10047000FCED8FF0A42BFBEC35F0FC20E70312051C
:100480007A02052BE4AC82FBFAF974860205E412C9
:1004900005AD7900E583B58202800D50031205EEAB
:1004A000E583C39582120608E5D0C465D020E11724
:1004B000EA2DFAEB3EFBEC3FFC50097401120608F2
:1004C000EC4480FC02052BC3EA9DFAEB9EFBEC9FFB
:1004D000FC500FC3E499F9E49AFAE49BFBE49CFC1A
:1004E000B2D112057A02052B020FD78582198583B6
:1004F0001A85F01B850A1C9004E8020A2AC00885A8
:100500008108E50824FBF51CE50824FBF88619089A
:10051000861A08861B9004E8120A2AD00822AC83A7
:10052000AB827A007900748E020FF5B98003EA136A
:10053000B34010EA2401FAE43BFBE43CFC50047CA9
:10054000800582BC000EBB000BBA0008E4F5F0F594
:1005500083F58222A2D1E582138CF092F78B838AF5
:100560008222E4F583F58275F080F4A2D11322E4AF
:10057000F583F58275F0C0747F227804EC7011E584
:100580008224F8500AF582E4C9CACBFCD8EF22ECE9
:100590007820058220E713D5820122C3E933F9EAE6
:1005A00033FAEB33FBEC33FCD8EA158222AA82AB98
:1005B00083A2F73392D16002D2F7F582ACF0E581E5
:1005C00024F9F8E6FD08E6FE0886F008E6A2F7330F
:1005D00092D56002D2F7F583AFF022FCABF0AA838C
:1005E000A982749EC2D1F58212057A02052BE5829A
:1005F000C583F582A2D133A2D592D11392D5ECCF87
:10060000FCEBCEFBEACDFA226040F8258250027462
:10061000FFF582E824F8501ECCCBCAF9E4CC24F8CC
:100620005014CBCAF9E4CB24F8500BCAF9E4CA241D
:10063000F8500379002224086010F8C3EC13FCEB97
:1006400013FBEA13FAE913F9D8F122AA82745CC009
:10065000E07406C0E0C00BC00C8A82220512E4B52B
:100660001202051322AA8274302AFA24C6500A7490
:10067000072AFA3000034302208A8202064BE582F1
:10068000FAC4540FF582C002120665D002740F5AE4
:10069000F582020665AA0DAB0EAC0FAD10AE11755A
:1006A0001820EE2EFEED235401FF4206EA2AFAEB53
:1006B00033FBEC33FCED33FDC3EE95144008EEC381
:1006C0009514FE430201D518D98A0D8B0E8C0F8D1F
:1006D000108E1122782EE624D075F00AA4FA782F15
:1006E000E624D02AFA782D8603BB2D04C3E49AFAB7
:1006F000751401C3E464808AF063F08095F050299A
:100700007518038A0374F62518401C0514E518149F
:100710002422F8E5182422F98704A604772E1BEB7F
:10072000FA6004051880DE8B02EA30E70D78238634
:10073000037824A6037823762E0AE516600AE516C8
:1007400004FB2514F5148005300B0205147822866D
:1007500003E4BB2D0104FB700620060330070205ED
:100760001430040302081B300557EB600C75822D12
:10077000C00212064BD002801C30060C75822BC0C2
:100780000212064BD002800D30070A758220C0028B
:1007900012064BD00278238604BC2E0C758230C022
:1007A0000212064BD0021515AC151515C3E5149CA5
:1007B000400302085F758230C00212064BD00280EF
:1007C000E7AC151515C3E5149C500C758220C002CA
:1007D00012064BD00280EA78228604BC2D0C75826A
:1007E0002DC00212064BD002801C30060C75822BE5
:1007F000C00212064BD002800D30070A758220C05D
:100800000212064BD00278238604BC2E5275823029
:10081000C00212064BD00215158044EB600E7582A3
:100820002DC00212064BD0021515802030060E7521
:10083000822BC00212064BD0021515800F30070C18
:10084000758220C00212064BD0021515782386034C
:10085000BB2E0C758230C00212064BD002151575E6
:100860001801C20DE5182422F88603BB45030209CE
:100870001CBB2E348A03C3E464808BF063F0809544
:10088000F0500F758230C00312064BD0031B8B0251
:1008900080E48B02D20DE5167038200B0302091C90
:1008A00075822E12064B8074300D278A03EB30E7D9
:1008B0001FC3E464808516F063F08095F0500C75DA
:1008C0008230C00312064BD00315160B8B0280DD5D
:1008D0008B02300D0EC3E464808516F063F08095C2
:1008E000F05021E5182422F886038B82C0021206FC
:1008F0004BD002300D0EE5182422F88603BB2E02E1
:10090000800215161515C3E464808516F063F08027
:1009100095F04003200D050518020864C3E46480C7
:100920008516F063F08095F0500A75823012064B00
:10093000151680E830040FAA151515EA60087582AF
:100940002012064B80F122E5167003300B0D740760
:100950002516FAE515C39AF5158006E51524FAF56E
:100960001575180078228602BA2B0F20060C782203
:1009700076202007057518010515200419AA15C34E
:10098000E464808AF063F08095F0500A758220124A
:10099000064B151580E7C20DE5182422F88602BA29
:1009A00000028069BA451F3000027665C3E46480A6
:1009B0008516F063F08095F0500A75823012064B70
:1009C000151680E8D20DC3E5189402E433FA7014CA
:1009D000EA700EC3E464808516F063F08095F04001
:1009E00003300D16E5182422F886028A8212064B7F
:1009F000E51824FD50121516800E7402B518093042
:100A00000B0675822E12064B051802099830041940
:100A1000AA15C3E464808AF063F08095F0500A75EB
:100A2000822012064B151580E72285820B85830CE8
:100A3000E4F512F513AA19AB1AAC1B8A828B838CCE
:100A4000F0121019FD74012AF519E43BF51A8C1BFC
:100A5000EDFA7003020FD0BA25028003020FC8C25C
:100A600004C205C206C207C208C209C20AC20BC23A
:100A700001C202C2037514007515007516FFAB198B
:100A8000AC1AAD1B8B828C838DF0121019FAA3ABBC
:100A900082AC838B198C1A8D1BBA25078A821206A9
:100AA0004B80928A06BE3000402E8A06EE24C64055
:100AB0002774FFB51613E51575F00AA4FEEA24D0D5
:100AC0002EF51570BFD20580BBE51675F00AA4FEA1
:100AD000EA24D02EF51680ACBA2E0A74FFB516A4FF
:100AE000751600809F8A06BE6100400E8A06EE24BD
:100AF0008540075302DFD2008002C200BA20028084
:100B000075BA2303020B85BA2A03020B8ABA2B0299
:100B1000805FBA2D028055BA4202805FBA43030259
:100B20000BCFBA4403020D0ABA4503020D24BA469C
:100B300003020D20BA4703020D28BA4903020D0A29
:100B4000BA4C02803BBA4E03020D2CBA4F03020D81
:100B500011BA5003020CA3BA5303020BF3BA5503A4
:100B6000020D16BA5803020D1B020D56D204020ADA
:100B700084D206020A84D207020A84D209020A84B5
:100B8000D20A020A84D20B020A8474FFB5162030FE
:100B9000090BE51C14F8881C8615020A84E51C2440
:100BA000FEF8881C8606088607188E15020A84300F
:100BB000090BE51C14F8881C8616020A84E51C241F
:100BC000FEF8881C8606088607188E16020A8430EE
:100BD000090AE51C14F8881C8602800FE51C24FE17
:100BE000F8881C8603088604188B028A8212064B3A
:100BF000020D5BE51C24FDF8881C860308860408AA
:100C0000860518188B0D8C0E8D0F8B828C838DF0C2
:100C100012116DAB82AC838B1774FFB51603851769
:100C20001620041DC3E51795155016E515C3951735
:100C3000F515AB151515EB600875822012064B8073
:100C4000F1850D82850E83850FF0121019FBFA6075
:100C500029AB161516C3E464808BF063F08095F021
:100C600050188A8212064BAB0DAC0EAD0F0BBB00B9
:100C7000010C8B0D8C0E8D0F80C7200403020D5BC1
:100C8000C3E51795154003020D5BE515C39517F5F0
:100C900015AB151515EB7003020D5B75822012065E
:100CA0004B80EEE51C24FDF8881C860308860408AA
:100CB000860518188B0D8C0E8D0FE50FFB30E704A1
:100CC0007A438013EB546060047A50800AEB30E67C
:100CD000047A4980027A588A82C00212064B7582D1
:100CE0003A12064B75823012064B75827812064B0B
:100CF000D002BA4902800BBA50028006850E8212D9
:100D0000067E850D8212067E8051D20875140A80F7
:100D10004A751408804575140A8040751410803B8C
:100D2000D2018037D2028033D203802FE51C24FD0C
:100D3000F8881C860308860408860518188B0D8C15
:100D40000E8D0F8B828C838DF0E512121154A3E56A
:100D50001312115480058A8212064B2001062002CC
:100D600003300370E51C24FCF8881C860308860405
:100D70000886050886061818188B0D8C0E8D0F8EA8
:100D800010E50DE50EE50FE5108B828C838DF0EEFE
:100D900012103574FFB51603751606300327747FDD
:100DA0005510FB8B11E511EB2BFB8B11E50F30E799
:100DB0000674014511F511E5112468400674992562
:100DC000114002D202300206120947020A35120609
:100DD000D4020A35E5147003020A357B2730092B4B
:100DE000E51C14F8881CE6FC3395E0FDFEFF8C0D35
:100DF0008D0E8E0F8F1020085EAC0D7D007E007F63
:100E0000008C0D8D0E8E0F8F10804C300A1FE51C4C
:100E100024FCF8881C8604088605088606088607D0
:100E20001818188C0D8D0E8E0F8F10802AE51C243B
:100E3000FEF8881C860408860518ED3395E0FEFF51
:100E40008C0D8D0E8E0F8F1020080CAC0DAD0E7E0C
:100E5000007F008E0F8F10300B43E50D450E450FC0
:100E6000451060397408B5140C758230C003120641
:100E70004BD00380287410B51423758230C0031240
:100E8000064BD00330000C758278C00312064BD09D
:100E900003800A758258C00312064BD00330082520
:100EA000AC0DAD0EAE0FE510FF30E717C3E49CFCB0
:100EB000E49DFDE49EFEE49FFF8C0D8D0E8E0F8F52
:100EC000108002C208751700D20C8B00751100C08B
:100ED00000120695D000200C0DE511C4FCE6FD4C77
:100EE000F61888038002A6110517B20CE50D450E11
:100EF000450F451070D68803E51570037515012060
:100F0000051A200417E51704FCC39515500E7582C9
:100F100020C00312064BD003151580E930080E756A
:100F2000822DC00312064BD00315158024E51760EF
:100F30002030060E75822BC00312064BD003151508
:100F4000800F30070C758220C00312064BD00315AA
:100F50001520041EAC151515C3E5179C5027300548
:100F6000047C3080027C208C82C00312064BD003AC
:100F700080E2C3E51795155009E515C39517F515DA
:100F800080037515008B00AB171517EB6022B20CB0
:100F9000200C0A08E6C4540FFB8B118007860374EB
:100FA0000F5BF511851182C000120665D00080D755
:100FB000200403020A35AB151515EB7003020A3540
:100FC00075822012064B80EE8A8212064B020A3589
:100FD00085128285138322AA82BA0A081099028098
:100FE000FB75990D10990280FB8A9922FCABF0AA3F
:100FF00083A982749EF582C2D1EC30E716D2D1E982
:10100000F42401F9EAF43400FAEBF43400FBECF4D4
:101010003400FC12057A02052B20F71430F61488F0
:1010200083A88220F507E6A88375830022E280F773
:10103000E49322E022C0E0F84582458345F0700940
:10104000F5F0FBFCFDFE021103E823A2F792E0F8A5
:10105000A982AA83D2F7ABF07C007E07C37497986D
:10106000404074FF2EFE740A89F0A4F985F0827462
:101070000A8AF0A4FA85F083740A8BF0A4FB740545
:1010800029F9EA3582FAEB3583FB740035F0FCC3AD
:10109000EC13FCEB13FBEA13FAE913F908EC70EF1D
:1010A00080BAE8C3947FF88B838EF0E4FBFCFDFEEE
:1010B000FF08C3E933F9EA33FAE58333F583EB3B01
:1010C000D4FBEC3CD4FCED3DD4FDEE3ED4FEEF3F32
:1010D000D4FF602D05F074052BD4FBE43CD4FCE474
:1010E0003DD4FDE43ED4FEE43FD4FF758204C3EF5B
:1010F00013FFEE13FEED13FDEC13FCEB13FBD58297
:10110000EDD8AF7822D0E020E704762B8002762D50
:10111000087906E7C4540F4430F608B90603762E62
:1011200008E7540F4430F60819B902E7764508E598
:10113000F020E704762B8004762DF4040875F00A7D
:10114000844430F608E5F04430F608E4F6900022D6
:1011500075F0402220F71030F6118883A88220F520
:1011600007F6A88375830022F280F7F022AA82ABEB
:1011700083ACF07D007E008A828B838CF012101984
:10118000FFA3AA82AB83EF60070DBD00EA0E80E7E4
:101190008D828E832200000000000000000000000D
:00000001FF
