:1000000002000375814312012DE582600302006F37
:10001000780079007A007B007C007D00EC4D601C4C
:1000200088828983E493A3A882A9838A828B83F040
:10003000A3AA82AB831CBCFFE31D80E07582007520
:1000400083007C007D00EC4D600AE4F0A31CBCFF43
:10005000F51D80F27582007583007C007D00EC4DFB
:10006000600AE4F0A31CBCFFF51D80F212012C1203
:10007000047180FE1B5B324A0045464D38205065B6
:1000800072696F64206D6561737572656D656E74FC
:100090002061742070696E2050312E312075736993
:1000A0006E672054696D657220302E0A46696C6552
:1000B0003A2025730A436F6D70696C65643A202598
:1000C000732C2025730A0A00433A5C5573657273DA
:1000D0005C6E757361695C4465736B746F705C45CD
:1000E0004C4543203239315C506861736F725C70EB
:1000F0006861736F725F766F6C746D657465725F43
:10010000746573742E63004D617220203320323089
:1001100032300031373A30303A3237000D506572A4
:10012000696F64203D202566206D73002275A7004D
:100130007597DE7597AD43FF8075EF0275A7107553
:10014000C12075A70075A90075A900E5A930E7FBD6
:1001500075A90375A903E5A930E7FB43A41075E170
:100160000175E21075E340759810858E8E758DE6E9
:10017000858D8B53890F438920D28ED29975820049
:100180002275A70075B28075BCF875B91E75E800B8
:1001900075DF3F75B300D2EF22AA82438E4075927D
:1001A000B87593FF8592948593957591047B00C3F0
:1001B000EB9A5012E59130E7FB53917F108D02804E
:1001C0000205090B80E975910022AA82AB83BA006F
:1001D00004BB0001227582F9C002C00312019975A7
:1001E00082F91201997582F91201997582FA120148
:1001F00099D003D0021ABAFF011B80D2AA828513BC
:10020000F005F07401800225E0D5F0FBFB75A72016
:10021000BA0002800ABA0102800FBA021E8014EBF3
:10022000F4FA52F1EB42D48012EBF4FA52F2EB42C0
:10023000D58008EBF4FA52F3EB42CC75A700228587
:1002400082BBD2EC20ECFDD2EC20ECFD85BD82859A
:10025000BE832212023F120545AA82AB83ACF0FD99
:10026000C002C003C004C005906C8B75F05374408D
:10027000120551AA82AB83ACF0FDE58124FCF58127
:10028000E4C0E074FCC0E0747FC0E07446C0E08A63
:10029000828B838CF0ED120663AA82AB83ACF0FDF7
:1002A000E58124FCF5818A828B838CF0ED22D2A536
:1002B000758228120199C2A522AA828AE0A2E79239
:1002C000A1A2E692A2A2E592A3A2E492A4C0021285
:1002D00002AE758228120199D0028AE0A2E392A1AF
:1002E000A2E292A2A2E192A3A2E092A40202AEAA8A
:1002F00082D2A68A821202B99000020201CAAA82A0
:10030000C2A68A821202B99000050201CAC2A59053
:1003100000141201CA7582331202FE758233120272
:10032000FE7582321202FE7582281202FE75820C60
:100330001202FE7582011202FE9000140201CAAA86
:1003400082AB83ACF07402B50A047DC080027D806C
:100350008D82C002C003C0041202FE90000512018B
:10036000CAD004D003D0027D007E00ED2AFFEE3B10
:10037000F88C018F82888389F0120529FF60208F15
:1003800082C002C003C004C005C0061202EFD0063E
:10039000D005D004D003D0020DBD00CF0E80CC30EC
:1003A00000248D028E03C3EA9410EB648094805085
:1003B00015758220C002C0031202EFD003D0020ADA
:1003C000BA00E30B80E02285820D85830E85F00F55
:1003D000E4F510F511E50B24FFFFE50C34FFF87987
:1003E000007A00C3E99FEA648088F063F08095F0AA
:1003F0005059C002C007C000C00112062AAB82D00B
:1004000001D000D007D002BB0A028003BB0D1DE55E
:1004100010250DFCE511350EFDAE0F8C828D838EFF
:10042000F0E412063D85108285118322E9250DFC3A
:10043000EA350EFDAE0F8C828D838EF0EB12063DF9
:1004400009B900010A89108A118098E510250DFA72
:10045000E511350EFBAC0F8A828B838CF0E412061B
:100460003D850B82850C83225389F0438905C28C1C
:10047000229001F41201CA7474C0E07400C0E074E8
:1004800080C0E01206091581158115817413C0E042
:100490007401C0E07480C0E07407C0E07401C0E083
:1004A0007480C0E074C8C0E07400C0E07480C0E034
:1004B0007479C0E07400C0E07480C0E0120609E501
:1004C0008124F4F581C28C438901758C00758A0002
:1004D000C28C438901758C00758A002091FD309192
:1004E000FDD28C2091FDC28CAB8C7A00AC8A7D0051
:1004F000EC2AFAED3B8A82C58225E0C58233F5837A
:10050000120656AA82AB83ACF0FDC002C003C00441
:10051000C005741CC0E07401C0E07480C0E0120625
:1005200009E58124F9F58180A720F71430F61488B5
:1005300083A88220F507E6A88375830022E280F76E
:10054000E49322E022E4AC83AB82FAF9748E0207D2
:100550008B120817BC00030207B6EF60FA30D50211
:10056000B2D1E583B4FF030207CCE582B4FF0302F6
:1005700007CC258340072482400B0207B62483144E
:1005800050030207CCF582EA8DF0A4A8F0EA8EF0C1
:10059000A428F8E435F0F9EB8DF0A428E935F0F95A
:1005A000E433CA8FF0A429F9EA35F0FAEBF88EF0BB
:1005B000A429F9EA35F0FAE433FBEC8DF0A429F92B
:1005C000EA35F0FAE43BFBE88FF0A42AFAEB35F0C9
:1005D000FBE433CCFD8EF0A42AFAEB35F0FBE43CCF
:1005E000FCED8FF0A42BFBEC35F0FC20E7031207A9
:1005F000E40207950211D185823085833185F0327E
:100600008512339005F4020C24C008858108E508A2
:1006100024FBF533E50824FBF8863008863108868C
:10062000329005F4120C24D0082210980280FBAA04
:10063000998A82C0021211D1D0028A822220F71038
:1006400030F6118883A88220F507F6A88375830009
:1006500022F280F7F022AC83AB827A007900748EAC
:100660000211EF12081730D502B2D1BF0009BC0049
:10067000030207D90207CCBC00030207B6E583B426
:10068000FF0BE582B4FF030207D90207B6E582B487
:10069000FF030207CCC395835007247F400B02075A
:1006A000B624801450030207CCC0E0E4CCCBCAF9D6
:1006B0008D138E148F15EF54F0C4F51675830685CF
:1006C00016F0EB84F582E9C4F9EAC4FAEBC4FBEC5A
:1006D000540FC47803D6FC18EBD6FB18EAD6FA857B
:1006E00082F0EDA4A8F0FD8582F0EEA428FEE435AA
:1006F000F0F88582F0EFA428FFE435F0F8E99DF9E1
:10070000EA9EFAEB9FFBEC98FCAD13AE14AF1530EC
:10071000E7101582E92DF9EA3EFAEB3FFBE43CFCD9
:1007200080EDC082D58398C3E933F9EA33FAEB331D
:10073000FBEC33FCC3E99DEA9EEB9FEC9400B3E431
:1007400013F9D002D0E0C44AFAD003D0E0C44BFB86
:10075000D004D0E0F5F0540FC44CFCD082158230A8
:10076000F40FD3EC13FCEB13FBEA13FAE913F905CE
:1007700082E930E70A74012AFAE43BFBE43CFC021C
:1007800007ADFCABF0AA83A982749EC2D1F5821298
:1007900007E4020795B98003EA13B34010EA240185
:1007A000FAE43BFBE43CFC50047C800582BC000E78
:1007B000BB000BBA0008E4F5F0F583F58222A2D164
:1007C000E582138CF092F78B838A8222E4F583F51D
:1007D0008275F080F4A2D11322E4F583F58275F0DE
:1007E000C0747F227804EC7011E58224F8500AF579
:1007F00082E4C9CACBFCD8EF22EC7820058220E73E
:1008000013D5820122C3E933F9EA33FAEB33FBEC67
:1008100033FCD8EA158222AA82AB83A2F73392D1A5
:100820006002D2F7F582ACF0E58124F9F8E6FD0824
:10083000E6FE0886F008E6A2F73392D56002D2F70A
:10084000F583AFF022AA827456C0E07408C0E0C0FD
:1008500022C0238A82220529E4B52902052A22AA78
:100860008274302AFA24C6500A74072AFA30010327
:100870004302208A82020845E582FAC4540FF582B9
:10088000C00212085FD002740F5AF58202085FAAF4
:1008900024AB25AC26AD27AE28752F20EE2EFEED1D
:1008A000235401FF4206EA2AFAEB33FBEC33FCED5A
:1008B00033FDC3EE952B4008EEC3952BFE4302019A
:1008C000D52FD98A248B258C268D278E28227840F7
:1008D000E624D075F00AA4FA7841E624D02AFA7802
:1008E0003F8603BB2D04C3E49AFA752B01C3E4646D
:1008F000808AF063F08095F05029752F038A037485
:10090000F6252F401C052BE52F142434F8E52F2461
:1009100034F98704A604772E1BEBFA6004052F80B8
:10092000DE8B02EA30E70D783586037836A6037849
:1009300035762E0AE52D600AE52D04FB252BF52BD7
:100940008005300C02052B78348603E4BB2D0104AE
:10095000FB7006200703300802052B300503020A4E
:1009600015300657EB600C75822DC002120845D079
:1009700002801C30070C75822BC002120845D00281
:10098000800D30080A758220C002120845D0027816
:10099000358604BC2E0C758230C002120845D00288
:1009A000152CAC2C152CC3E52B9C4003020A597561
:1009B0008230C002120845D00280E7AC2C152CC34F
:1009C000E52B9C500C758220C002120845D0028095
:1009D000EA78348604BC2D0C75822DC002120845BD
:1009E000D002801C30070C75822BC002120845D043
:1009F00002800D30080A758220C002120845D0021C
:100A000078358604BC2E52758230C002120845D05B
:100A100002152C8044EB600E75822DC00212084531
:100A2000D002152C802030070E75822BC0021208D0
:100A300045D002152C800F30080C758220C00212A0
:100A40000845D002152C78358603BB2E0C758230F4
:100A5000C002120845D002152C752F01C20EE52FD9
:100A60002434F88603BB4503020B16BB2E348A03DD
:100A7000C3E464808BF063F08095F0500F75823092
:100A8000C003120845D0031B8B0280E48B02D20EF8
:100A9000E52D7038200C03020B1675822E120845C6
:100AA0008074300E278A03EB30E71FC3E46480852F
:100AB0002DF063F08095F0500C758230C003120861
:100AC00045D003152D0B8B0280DD8B02300E0EC33B
:100AD000E46480852DF063F08095F05021E52F24AB
:100AE00034F886038B82C002120845D002300E0E05
:100AF000E52F2434F88603BB2E028002152D152C19
:100B0000C3E46480852DF063F08095F04003200EEF
:100B100005052F020A5EC3E46480852DF063F08032
:100B200095F0500A758230120845152D80E8300581
:100B30000FAA2C152CEA600875822012084580F156
:100B400022E52D7003300C0D7407252DFAE52CC31A
:100B50009AF52C8006E52C24FAF52C752F007834B4
:100B60008602BA2B0F20070C7834762020080575F2
:100B70002F01052C200519AA2CC3E464808AF06398
:100B8000F08095F0500A758220120845152C80E7F8
:100B9000C20EE52F2434F88602BA00028069BA45F5
:100BA0001F3001027665C3E46480852DF063F08018
:100BB00095F0500A758230120845152D80E8D20E46
:100BC000C3E52F9402E433FA7014EA700EC3E464B0
:100BD00080852DF063F08095F04003300E16E52FF0
:100BE0002434F886028A82120845E52F24FD50122B
:100BF000152D800E7402B52F09300C0675822E1249
:100C00000845052F020B92300519AA2CC3E4648015
:100C10008AF063F08095F0500A758220120845151D
:100C20002C80E722858222858323E4F529F52AAAF0
:100C300030AB31AC328A828B838CF0120529FD7483
:100C4000012AF530E43BF5318C32EDFA70030211E4
:100C5000CABA250280030211C2C205C206C207C277
:100C600008C209C20AC20BC20CC202C203C2047586
:100C70002B00752C00752DFFAB30AC31AD328B8263
:100C80008C838DF0120529FAA3AB82AC838B308C58
:100C9000318D32BA25078A8212084580928A06BEB3
:100CA0003000402E8A06EE24C6402774FFB52D136F
:100CB000E52C75F00AA4FEEA24D02EF52C70BFD2E4
:100CC0000680BBE52D75F00AA4FEEA24D02EF52D92
:100CD00080ACBA2E0A74FFB52DA4752D00809F8AB2
:100CE00006BE6100400E8A06EE248540075302DFEF
:100CF000D2018002C201BA20028075BA2303020D1C
:100D00007FBA2A03020D84BA2B02805FBA2D0280BB
:100D100055BA4202805FBA4303020DC9BA440302C6
:100D20000F04BA4503020F1EBA4603020F1ABA4750
:100D300003020F22BA4903020F04BA4C02803BBAE5
:100D40004E03020F26BA4F03020F0BBA5003020ED6
:100D50009DBA5303020DEDBA5503020F10BA5803A2
:100D6000020F15020F50D205020C7ED207020C7E34
:100D7000D208020C7ED20A020C7ED20B020C7ED26A
:100D80000C020C7E74FFB52D20300A0BE53314F8ED
:100D90008833862C020C7EE53324FEF888338606E1
:100DA000088607188E2C020C7E300A0BE53314F8E7
:100DB0008833862D020C7EE53324FEF888338606C0
:100DC000088607188E2D020C7E300A0AE53314F8C7
:100DD00088338602800FE53324FEF88833860308C3
:100DE0008604188B028A82120845020F55E53324C7
:100DF000FDF88833860308860408860518188B24B6
:100E00008C258D268B828C838DF0121332AB82ACB5
:100E1000838B2E74FFB52D03852E2D20051DC3E574
:100E20002E952C5016E52CC3952EF52CAB2C152C9D
:100E3000EB600875822012084580F18524828525A3
:100E4000838526F0120529FBFA6029AB2D152DC3E9
:100E5000E464808BF063F08095F050188A82120869
:100E600045AB24AC25AD260BBB00010C8B248C2597
:100E70008D2680C7200503020F55C3E52E952C4013
:100E800003020F55E52CC3952EF52CAB2C152CEB3E
:100E90007003020F5575822012084580EEE5332459
:100EA000FDF88833860308860408860518188B2405
:100EB0008C258D26E526FB30E7047A438013EB541E
:100EC0006060047A50800AEB30E6047A4980027A46
:100ED000588A82C00212084575823A120845758206
:100EE00030120845758278120845D002BA4902804E
:100EF0000BBA50028006852582120878852482125A
:100F000008788051D209752B0A804A752B088045D4
:100F1000752B0A8040752B10803BD2028037D2039C
:100F20008033D204802FE53324FDF888338603080C
:100F3000860408860518188B248C258D268B828CB8
:100F4000838DF0E52912063DA3E52A12063D8005B2
:100F50008A82120845200206200303300470E5331C
:100F600024FCF8883386030886040886050886066C
:100F70001818188B248C258D268E27E524E525E569
:100F800026E5278B828C838DF0EE12121374FFB549
:100F90002D03752D06300427747F5527FB8B28E51C
:100FA00028EB2BFB8B28E52630E70674014528F556
:100FB00028E52824684006749925284002D2033089
:100FC0000306120B41020C2F1208CE020C2FE52B48
:100FD0007003020C2F7B39300A2BE53314F8883369
:100FE000E6FC3395E0FDFEFF8C248D258E268F27B1
:100FF00020095EAC247D007E007F008C248D258E30
:10100000268F27804C300B1FE53324FCF88833866D
:10101000040886050886060886071818188C248D8B
:10102000258E268F27802AE53324FEF88833860410
:1010300008860518ED3395E0FEFF8C248D258E265D
:101040008F2720090CAC24AD257E007F008E268FD3
:1010500027300C43E524452545264527603974088B
:10106000B52B0C758230C003120845D0038028745C
:1010700010B52B23758230C003120845D003300110
:101080000C758278C003120845D003800A75825817
:10109000C003120845D003300925AC24AD25AE2687
:1010A000E527FF30E717C3E49CFCE49DFDE49EFECA
:1010B000E49FFF8C248D258E268F278002C2097520
:1010C0002E00D20D8B00752800C00012088FD000B2
:1010D000200D0DE528C4FCE6FD4CF61888038002BF
:1010E000A628052EB20DE52445254526452770D6B0
:1010F0008803E52C7003752C0120061A200517E5DE
:101100002E04FCC3952C500E758220C00312084596
:10111000D003152C80E930090E75822DC00312080A
:1011200045D003152C8024E52E602030070E7582F3
:101130002BC003120845D003152C800F30080C7506
:101140008220C003120845D003152C20051EAC2CAC
:10115000152CC3E52E9C50273006047C3080027C81
:10116000208C82C003120845D00380E2C3E52E958F
:101170002C5009E52CC3952EF52C8003752C008B83
:1011800000AB2E152EEB6022B20D200D0A08E6C42E
:10119000540FFB8B2880078603740F5BF528852886
:1011A00082C00012085FD00080D7200503020C2FF8
:1011B000AB2C152CEB7003020C2F75822012084506
:1011C00080EE8A82120845020C2F852982852A83A7
:1011D00022AA82BA0A0810990280FB75990D10990B
:1011E0000280FB8A9922FCABF0AA83A982749EF547
:1011F00082C2D1EC30E716D2D1E9F42401F9EAF445
:101200003400FAEBF43400FBECF43400FC1207E495
:10121000020795C0E0F84582458345F07009F5F076
:10122000FBFCFDFE0212E1E823A2F792E0F8A9829E
:10123000AA83D2F7ABF07C007E07C3749798404036
:1012400074FF2EFE740A89F0A4F985F082740A8A6C
:10125000F0A4FA85F083740A8BF0A4FB740529F9D5
:10126000EA3582FAEB3583FB740035F0FCC3EC13EE
:10127000FCEB13FBEA13FAE913F908EC70EF80BA00
:10128000E8C3947FF88B838EF0E4FBFCFDFEFF083F
:10129000C3E933F9EA33FAE58333F583EB3BD4FB57
:1012A000EC3CD4FCED3DD4FDEE3ED4FEEF3FD4FF4C
:1012B000602D05F074052BD4FBE43CD4FCE43DD454
:1012C000FDE43ED4FEE43FD4FF758204C3EF13FF78
:1012D000EE13FEED13FDEC13FCEB13FBD582EDD802
:1012E000AF7834D0E020E704762B8002762D0879A1
:1012F00006E7C4540F4430F608B90603762E08E713
:10130000540F4430F60819B902E7764508E5F02095
:10131000E704762B8004762DF4040875F00A8444E3
:1013200030F608E5F04430F608E4F690003475F045
:101330004022AA82AB83ACF07D007E008A828B8340
:101340008CF0120529FFA3AA82AB83EF60070DBDC5
:1013500000EA0E80E78D828E8322000000000000EC
:00000001FF
