:020000040800F2
:1000000000200020C10000084D0900086109000817
:1000100000000000000000000000000000000000E0
:100020000000000000000000000000004D09000872
:1000300000000000000000004D0900084D09000804
:100040004D0900084D0900084D0900084D09000838
:100050004D0900084D0900084D0900084D09000828
:100060004D0900084D0900084D0900084D09000818
:100070004D0900084D0900084D0900084D09000808
:100080004D0900084D0900084D0900084D090008F8
:100090004D0900084D0900084D0900084D090008E8
:1000A0004D0900084D0900084D090008B10300087A
:1000B0004D0900084D0900084D0900084D090008C8
:1000C00000F0EEFB00F0B2FBE1235B02180000F051
:1000D000CBF862B600F002F8FEE7000080B59AB0F7
:1000E00000AF154B180000F0E7FE144B180000F0AD
:1000F000E3FE134B180000F0DFFE96239B0118006F
:1001000000F0AAFA0F4B180000F048FB0E4B180045
:1001100000F044FB3B1D6321180000F054FB0B4B27
:10012000180000F03BFB3B1D180000F037FB084BAC
:10013000180000F033FBE9E70C1900081C1900084F
:10014000401900087819000898190008AC1900082F
:10015000BC19000890B585B000AF78603960184BC5
:100160001B68002B02D101235B4224E00023FB60CB
:100170000AE0FB685A1CFA603A68D418114B180060
:1001800000F0AFF9030023707B68013B1A00FB68A5
:100190009A4205D90B4B180000F0CCF9031EE8D1A8
:1001A000FB68002B06D03A68FB68D31800221A704F
:1001B000FB6800E000231800BD4605B090BDC046B6
:1001C000140100207C00002090B585B000AF78605D
:1001D0003960214B1B68002B02D101235B4237E0C1
:1001E0007B683F2B0BDCC0461C4B180000F0A2F9CB
:1001F000020040239A1A7B689A42F5D302E0022358
:100200005B4225E00023FB600BE03A68FB68D318F3
:100210001A78124B1100180000F034F9FB68013312
:10022000FB607B68FA689A42EFD30D4B1B6808228B
:1002300013400CD10A4B0A4A126808210A431A607B
:10024000084C064B180000F04CF903002360002313
:100250001800BD4605B090BD14010020C800002064
:10026000003801402838014080B584B000AF786084
:1002700072B63F4B00229A643D4B9A6C3C4B5A64D9
:100280003B4B5A6C3A4B1A643A4B00229A64394BF6
:100290009A6C384B5A64374B5A6C364B1A64364B4F
:1002A00001221A60354B00221A60354B344A12681D
:1002B000802189020A431A60324BFB607968F86832
:1002C00000F0AEFC0300FB602F4B2F4A1268802128
:1002D000C9020A431A602D4B2C4A12682C490A4065
:1002E0001A609023DB059022D20512688021090351
:1002F0000A431A60274B274A126810210A431A60E2
:100300009023DB059022D2051268802189030A43DD
:100310001A60204B1F4A1268802149000A431A6064
:100320001D4B1D4A12688021C9010A431A601B4BEC
:100330001A4A12686C210A431A60194B00221A608B
:10034000184B00221A60184BFA681A60134B134AB4
:10035000126801210A431A60144B144A1268802162
:1003600009050A431A6062B6C046BD4604B080BDA6
:100370007C000020C800002014010020780000202C
:1003800014100240006CDC02080000480400004821
:10039000FFFDFFFF24000048181002400038014014
:1003A00004380140083801400C38014000E100E009
:1003B00080B500AF084B1B688022134001D000F0CD
:1003C00025F8054B1B682022134001D000F006F8E9
:1003D000C046BD4680BDC0461C38014080B500AF58
:1003E000074B1B68DAB2074B1100180000F04AF8FF
:1003F000031E02D0044B01221A60C046BD4680BDD8
:10040000243801407C00002078000020B0B500AF07
:10041000164B180000F08EF8031E07D0144C134B37
:10042000180000F05EF8030023601BE0114B114A36
:10043000126808218A431A600F4B1B684022134040
:1004400005D00E4B0D4A126840210A431A600A4B30
:100450001B688022134005D0094B094A12681021FD
:100460000A431A60C046BD46B0BDC046C800002061
:1004700028380140003801401C3801402038014034
:100480001838014080B582B000AF78600A00FB1CCC
:100490001A707B681A6C7B685B6C9A4205D17B682A
:1004A0009B6C002B01D0012317E072B67B681B6C9C
:1004B000591C7A6811647A68F91C0978D1547B68F0
:1004C0009B6C5A1C7B689A647B681B6C402B02D126
:1004D0007B6800221A6462B600231800BD4602B091
:1004E00080BD80B584B000AF78607B689B6C002BCA
:1004F00001D100231AE072B67B685B6C591C7A68E4
:1005000051640F22BA187968CB5C13707B685B6CFE
:10051000402B02D17B6800225A647B689B6C5A1E78
:100520007B689A6462B60F23FB181B781800BD46DF
:1005300004B080BD80B582B000AF78607B689B6CF2
:100540001800BD4602B080BD80B582B000AF7860B3
:100550000B4B1B68002B09D101235B420BE07B682E
:100560005A1C7A6019000120FFF72EFE7B681B7869
:10057000002BF4D100231800BD4602B080BDC04658
:100580001401002080B582B000AF0200FB1D1A707C
:10059000FB1D19000120FFF717FEC046BD4602B043
:1005A00080BD80B500AF044B1800FFF79AFF030031
:1005B0001800BD4680BDC0467C00002090B585B0C7
:1005C00000AF78603960224B1B68002B02D10123F9
:1005D0005B4238E00023FB600B23FB1800221A70FB
:1005E0001EE0C0461B4B1800FFF7A4FF031EF9D006
:1005F0000B23FC18174B1800FFF773FF0300237041
:100600000B23FB181B781800FFF7BCFFFB685A1C74
:10061000FA601A007B689B180B22BA1812781A70BD
:100620003B685A1EFB689A4204DD0B23FB181B78BB
:100630000D2BD6D1FB68002B04DDFB687A68D3183C
:1006400000221A70FB681800BD4605B090BDC04678
:10065000140100207C00002090B583B000AF7860CA
:100660002A4B2A4A1268802189020A431A60284BC1
:10067000274A126840210A431A60264B254A12680D
:1006800004218A431A609023DB059022D205126868
:1006900020210A431A60204B1F4A1268802149001A
:1006A0000A431A609023DB059022D205126880214C
:1006B0000A431A60184B184A1268802149010A43FC
:1006C0001A60164B154A1268802189020A431A6083
:1006D000134B134A12680C210A431A60114B002273
:1006E0001A60114B00221A60104C7968104800F013
:1006F00097FA030023600A4B094A126801210A4352
:100700001A60C046BD4603B090BDC04614100240FA
:100710000800004804000048200000481C10024067
:100720000044004004440040084400400C440040A1
:10073000006CDC0280B582B000AF0200FB1D1A70B5
:10074000064BFA1D12781A60C046054B1B68402202
:100750001340FAD0C046BD4602B080BD28440040D8
:100760001C44004080B582B000AFC046094B1B68F6
:1007700020221340FAD0084B1A68FB1D1A70FB1D8B
:100780001B781800FFF7D6FFFB1D1B781800BD462D
:1007900002B080BD1C4400402444004080B582B0BB
:1007A00000AF786007E07B681B781800FFF7C2FF96
:1007B0007B6801337B607B681B78002BF3D1C046DC
:1007C000BD4602B080BD90B585B000AF786039609D
:1007D0000023FB6019E00B23FC18FFF7C3FF0300A5
:1007E00023707A68FB68D3180B22BA1812781A7033
:1007F0000B23FB181B780A2B0DD00B23FB181B783F
:100800000D2B08D0FB680133FB603B68013B1A00ED
:10081000FB689A42DFD87A68FB68D31800221A7006
:10082000FB681800BD4605B090BDC04680B582B0DB
:1008300000AF154B7B60154B3B6007E03B681A1D12
:100840003A607A68111D796012681A603A68104B34
:100850009A42F3D304E03B681A1D3A6000221A6002
:100860003A680C4B9A42F6D30B4B3B6004E03B6872
:100870001A1D3A601B6898473A68084B9A42F6D3AB
:10088000C046BD4602B080BD701A000800000020BE
:100890006800002020010020701A0008701A00086B
:1008A00080B500AF244B244A126824490A401A60DC
:1008B000C046214B1A6880239B041340F9D1204B7A
:1008C0001F4A126801210A431A601D4B1C4A126814
:1008D00006218A431A601A4B194A126810210A43EA
:1008E0001A60184B174A126817490A401A60154BCC
:1008F000144A1268A02189030A431A60114B114A55
:1009000012688021C9010A431A600B4B0A4A126817
:10091000802149040A431A60C046074B1A688023A5
:100920009B041340F9D0074B064A126802210A4380
:100930001A60C046BD4680BD00100240FFFFFFFEAA
:100940000020024004100240FFFFC3FF80B500AF4B
:10095000024B1800FFF7F8FDFEE7C046C01900087B
:1009600080B500AF024B1800FFF7EEFDFEE7C04672
:10097000E819000880B582B000AF7860FEE780B566
:1009800082B000AF786001235B421800BD4602B020
:1009900080BD80B584B000AFF860B9607A60044B68
:1009A0000C221A6001235B421800BD4604B080BDD2
:1009B0001C01002080B500AF034B0B221A600123FD
:1009C0005B421800BD4680BD1C01002080B582B08E
:1009D00000AF786039603B68802292015A60002342
:1009E0001800BD4602B080BD80B500AF01231800DD
:1009F000BD4680BD80B582B000AF78603960044BE1
:100A000016221A6001235B421800BD4602B080BD69
:100A10001C01002080B582B000AF78603960044BC3
:100A20001F221A6001235B421800BD4602B080BD40
:100A30001C01002080B584B000AFF860B9607A6016
:100A400000231800BD4604B080BD80B582B000AF61
:100A5000786039603B68802292015A600023180058
:100A6000BD4602B080BD80B582B000AF7860012382
:100A70005B421800BD4602B080BD80B582B000AFB9
:100A80007860044B02221A6001235B421800BD46C5
:100A900002B080BD1C01002080B582B000AF78603C
:100AA000044B0A221A6001235B421800BD4602B0C3
:100AB00080BDC0461C01002080B582B000AF7860C8
:100AC0007B680033022B01D8012303E0034B09228A
:100AD0001A6000231800BD4602B080BD1C01002032
:100AE00080B586B000AF7860144B7B61144B154A1B
:100AF000944663443B61144B1B68002B02D1124B9C
:100B00007A691A60104B1B68FB600F4B1A687B6890
:100B1000D2183B699A4205D90C4B0C221A6001236A
:100B20005B4206E0084B1A687B68D218064B1A60D5
:100B3000FB681800BD4606B080BDC04620010020FD
:100B40000020002000F0FFFF6C0000201C010020AE
:100B500080B588B000AFF860B9607A600023BB61EF
:100B6000FB68002B24D10023FB611CE0FFF719FD7B
:100B700003001A001723FB181A70BB685A1CBA60CE
:100B80001722BA181278D2B21A70BB690133BB614E
:100B90001723FB181B78DBB20A2B01D1BB690EE0CF
:100BA000FB690133FB61FA697B689A42DEDB05E091
:100BB000054B09221A6001235B4200E0BB69180063
:100BC000BD4608B080BDC0461C01002080B586B07F
:100BD00000AFF860B9607A60FB68013B012B11D867
:100BE00000237B6109E0BB685A1CBA601B781800BF
:100BF000FFF7C8FC7B6901337B617A697B689A42A5
:100C0000F1DB05E0054B09221A6001235B4200E09D
:100C10007B681800BD4606B080BDC0461C010020A0
:100C200003460B437FD4002243088B4274D303094D
:100C30008B425FD3030A8B4244D3030B8B4228D3EE
:100C4000030C8B420DD3FF22090212BA030C8B4214
:100C500002D31212090265D0030B8B4219D300E0B4
:100C6000090AC30B8B4201D3CB03C01A5241830B39
:100C70008B4201D38B03C01A5241430B8B4201D3E9
:100C80004B03C01A5241030B8B4201D30B03C01A12
:100C90005241C30A8B4201D3CB02C01A5241830A8C
:100CA0008B4201D38B02C01A5241430A8B4201D3BB
:100CB0004B02C01A5241030A8B4201D30B02C01AE5
:100CC0005241CDD2C3098B4201D3CB01C01A52414C
:100CD00083098B4201D38B01C01A524143098B42D5
:100CE00001D34B01C01A524103098B4201D30B01BE
:100CF000C01A5241C3088B4201D3CB00C01A5241E3
:100D000083088B4201D38B00C01A524143088B42A7
:100D100001D34B00C01A5241411A00D20146524140
:100D2000104670475DE0CA0F00D04942031000D35F
:100D30004042534000229C4603098B422DD3030AB4
:100D40008B4212D3FC22890112BA030A8B420CD3C4
:100D5000890192118B4208D3890192118B4204D3ED
:100D600089013AD0921100E08909C3098B4201D36D
:100D7000CB01C01A524183098B4201D38B01C01AA7
:100D8000524143098B4201D34B01C01A524103091E
:100D90008B4201D30B01C01A5241C3088B4201D3CD
:100DA000CB00C01A524183088B4201D38B00C01A7A
:100DB0005241D9D243088B4201D34B00C01A524151
:100DC000411A00D20146634652415B10104601D3DE
:100DD0004042002B00D54942704763465B1000D368
:100DE000404201B5002000F005F802BD0029F8D00E
:100DF00016E770477047C04670B505000E00002822
:100E000004D08369002B01D100F0C2FAAB69AC6851
:100E1000002B02D1280000F0BBFA244B9C420FD1DA
:100E20006C68A3891B0702D52369002B20D1210000
:100E3000280000F01FF900281AD00120404270BDA0
:100E40001B4B9C4201D1AC68EBE71A4B9C42E8D1AA
:100E5000EC68E6E7013B0136A360002B04DAA269E7
:100E6000934216DB0A2914D023685A1C2260197099
:100E70003178A3680029EDD1013BA360002B0FDA84
:100E800022000A31280000F095F8431CD5D00A2032
:100E9000D5E72200280000F08DF8431CE8D1CCE70C
:100EA0000A2023685A1C22601870C8E72C1A000810
:100EB0004C1A00080C1A000810B5034B0100186802
:100EC000FFF79AFF10BDC0460400002070B50D006A
:100ED00009680400002901D0FFF7F8FF290020006D
:100EE00000F098FB70BD0000314B70B51B6804002A
:100EF000834256D0436A002B17D0DB68002B0DD0FD
:100F00000025636ADB68595900294BD10435802DCF
:100F1000F7D1636A2000D96800F07CFB636A196826
:100F2000002902D0200000F075FB6169002902D081
:100F3000200000F06FFB616A002902D0200000F061
:100F400069FBA16B002902D0200000F063FBE16B7C
:100F5000002902D0200000F05DFB216C002902D0A6
:100F6000200000F057FBE16D002902D0200000F0C6
:100F700051FBA16D002902D0200000F04BFB616BFA
:100F8000002902D0200000F045FBA369002B08D007
:100F90002000A36A9847A16C002902D02000FFF727
:100FA00095FF70BD0E68200000F034FB3100ABE708
:100FB00004000020F8B505000E001400002804D03D
:100FC0008369002B01D100F0E3F9224B9C422DD123
:100FD0006C68A369A360A3891B0731D52369002B23
:100FE0002ED023682269F7B2981A6369F6B2984244
:100FF00005DB2100280000F03DF9002826D1A36878
:101000000130013BA36023685A1C22601F70636992
:10101000984204D0A389DB071AD50A2E18D12100E3
:10102000280000F027F9002812D00FE00A4B9C425C
:1010300001D1AC68CDE7094B9C42CAD1EC68C8E746
:101040002100280000F016F80028CAD001267642B8
:101050003000F8BD2C1A00084C1A00080C1A0008C1
:1010600010B5034B0A0001001868FFF7A3FF10BD7D
:1010700004000020364B70B51D6806000C00002DE2
:1010800005D0AB69002B02D1280000F081F9314B6B
:101090009C420FD16C680C23E25E93B219072DD4E9
:1010A000D90611D409230120336037331343A381B8
:1010B000404270BD284B9C4201D1AC68EBE7274B06
:1010C0009C42E8D1EC68E6E75B0713D5616B002929
:1010D00008D023004433994202D0300000F09AFA3D
:1010E000002363632422A3899343A38100236360C5
:1010F000236923600823A2891343A3812369002B5A
:101100000BD1A0218022A389890092000B40934239
:1011100003D02100300000F031FA0123A2891340EE
:1011200011D00023A36063695B42A361002023699F
:101130008342BED10C23E25E1306BAD5402313438B
:10114000A3810138B5E7920700D46369A360EDE796
:10115000040000202C1A00084C1A00080C1A000881
:10116000F7B58A8905000C00130760D44B68002B83
:1011700004DC0B6C002B01DC0020FEBDE76A002FB5
:10118000FAD000232E682B6080235B011A4034D0F4
:10119000606DA3895B0706D56368C01A636B002B7B
:1011A00001D0236CC01A0200216A00232800E76ADC
:1011B000B847A189431C06D12B681D2B31D82C4A76
:1011C000DA40D3072DD50023636023692360CB0465
:1011D00005D5431C02D12B68002B00D16065616BE3
:1011E0002E600029C8D023004433994202D0280041
:1011F00000F010FA00206063BFE70123216A280095
:10120000B847431CC5D12B68002BC2D01D2B01D081
:10121000162B01D12E60AFE74023A2891343A3818F
:10122000ABE740230B430120A3814042A5E70F69B0
:10123000002FA1D00B680F60DB1B019300239207E6
:1012400000D14B69A360019B002B00DC94E7019B5C
:101250003A00216A2800A66AB047002803DC402330
:10126000A2891343DFE7019B3F181B1A0193EAE7AA
:10127000010040200B6970B505000C00002B01D166
:10128000002070BD002804D08369002B01D100F03C
:101290007FF80B4B9C4209D16C680C22A35E002B9B
:1012A000EED021002800FFF75BFFEAE7054B9C42E8
:1012B00001D1AC68F1E7044B9C42EED1EC68ECE75D
:1012C0002C1A00084C1A00080C1A000810B5011E50
:1012D00005D1054B0549186800F006F910BD044B0F
:1012E0001868FFF7C7FFF9E76C1A000875120008C5
:1012F000040000200020704710B5024900F0F4F807
:1013000010BDC04675120008002310B5040003602C
:101310004360836081814366C2810361436183616D
:10132000190008225C3000F06DF9054B24626362FD
:10133000044BA362044BE362044B236310BDC0461D
:1013400089170008B5170008ED17000819180008DC
:101350000020704770B568254A1E55430E002900CD
:10136000743100F0A1F9041E08D000212A000160A8
:1013700046600C30A060683200F044F9200070BD77
:1013800010B5024B1868FFF7B7FF10BD6C1A0008C4
:10139000836913B50400002B28D18364C3640365FB
:1013A000134B144A1B6882620193984201D10123B6
:1013B0008361200000F020F86060200000F01CF83D
:1013C000A060200000F018F80022E06004216068AE
:1013D000FFF79AFF01220921A068FFF795FF02227B
:1013E0001221E068FFF790FF0123A36113BDC046FF
:1013F0006C1A0008F9120008F8B51E4B07001E68A9
:10140000B369002B02D13000FFF7C2FF4836B46841
:101410007368013B04D53368002B07D03668F6E7C4
:101420000C22A55E002D0DD06834F2E704213800AF
:10143000FFF790FF30600028F0D10C2304003B60E0
:101440002000F8BD012320005B42E3810233A38129
:1014500065662560A560656025616561A5610822F6
:1014600029005C3000F0CEF86563A563A564E564EF
:10147000E6E7C0466C1A000870477047704770472F
:1014800010B5034B0349186800F012F810BDC046B0
:10149000040000205113000810B5034B03491868DD
:1014A00000F006F810BDC04604000020F512000848
:1014B000F7B54830040000260191002C01D130001E
:1014C000FEBDA5686768013F01D52468F5E7AB89D3
:1014D000012B07D90E22AB5E013303D02800019BFC
:1014E000984706436835EEE7F7B504000700002685
:1014F00001914834002C01D13000FEBD6368A5681D
:101500000093009B013B009301D52468F2E7AB896F
:10151000012B08D90E22AB5E013304D0290038001C
:10152000019B984706436835EBE7000070B50E0055
:101530001D000E23C95E90B01400002907DA0023B5
:101540002B60B3891B0611D48023DB000FE001AAB6
:1015500000F08EF90028F2DBF022029B1202134009
:10156000054A9B185A4253412B60EDE74023002067
:10157000236010B070BDC04600E0FFFFF7B5022643
:101580008B8905000C00334206D0230047332360CB
:10159000236101236361F7BD01AB6A46FFF7C6FF14
:1015A00000990700280000F07FF8002808D10C22DD
:1015B000A35E9A05EFD4032293431E43A681E4E77A
:1015C0000F4BAB628023A28920601343A381009B51
:1015D00020616361019B002B0DD00E23E15E28008A
:1015E00000F058F9002806D00322A38993431A007B
:1015F00001231343A381A0893843A081CBE7C046D0
:10160000F912000803008218934200D17047197044
:101610000133F9E770B50500002910D00C1F2368CD
:10162000002B00DAE418280000F05AF91D4A13686C
:10163000002B05D163601460280000F052F970BDE2
:10164000A34209D9216860188342F3D118685B6806
:1016500041182160EEE713005A68002A01D0A24227
:10166000F9D919685818A0420BD1206809185818E0
:1016700019608242E0D110685268411819605A60BE
:10168000DAE7A04202D90C232B60D5E72168601865
:10169000824203D1106852684118216062605C6028
:1016A000CAE7C04670000020032370B5CD1C9D43DF
:1016B000083506000C2D1ED20C25A9421DD830007D
:1016C00000F00EF9254A14682100002919D1244C94
:1016D0002368002B03D1300000F044F8206029007B
:1016E000300000F03FF8431C2CD10C233000336055
:1016F00000F0F7F803E0002DDFDA0C233360002060
:1017000070BD0B685B1B1AD40B2B03D90B60CC1874
:10171000256003E08C420ED163681360300000F056
:10172000E0F8200007220B30231D9043C31AE7D0B6
:101730005A42E250E4E74B6863600C00EEE70C00AD
:101740004968C2E70323C41C9C43A042E0D0211A8D
:10175000300000F007F8431CDAD1C6E77000002023
:1017600074000020002370B5064C050008002360BB
:10177000FFF7B6F9431C03D12368002B00D02B6080
:1017800070BDC0461C01002070B50C000E25495FDD
:1017900000F0A8F8002803DB636D1B18636570BDBB
:1017A000A389024A1340A381F9E7C046FFEFFFFF78
:1017B00000207047F8B51F008B8905000C0016004B
:1017C000DB0505D50E23C95E0022022300F074F864
:1017D000A389054A28001340A38132000E23E15E4D
:1017E0003B0000F01FF8F8BDFFEFFFFF70B50C00E5
:1017F0000E25495F00F060F8A389421C03D1054A19
:101800001340A38170BD802252011343A381606500
:10181000F8E7C046FFEFFFFF10B50E23C95E00F0EA
:1018200015F810BD70B50500080011000022064C27
:1018300022601A00FFF7CAF9431C03D12368002B6A
:1018400000D02B6070BDC0461C010020002370B585
:10185000064C050008002360FFF791F8431C03D1F4
:101860002368002B00D02B6070BDC0461C010020F7
:10187000002370B5064C0500080011002360FFF737
:10188000A5F8431C03D12368002B00D02B6070BD4A
:101890001C010020002370B5064C050008002360E1
:1018A000FFF70AF9431C03D12368002B00D02B60FB
:1018B00070BDC0461C01002070B505000800110075
:1018C0000022064C22601A00FFF7B4F8431C03D133
:1018D0002368002B00D02B6070BDC0461C01002087
:1018E0007047704770B50500080011000022064CD3
:1018F00022601A00FFF72CF9431C03D12368002B48
:1019000000D02B6070BDC0461C01002055534152D1
:1019100054203220746573742E0D00004279204AE1
:10192000657375732043616C76696E6F2D467261C5
:1019300067612028632920323031382E0D000000E5
:10194000436865636B2050413220616E64205041D2
:1019500033202870696E20382026203929207769A5
:10196000746820746865206F7363696C6C6F73634F
:101970006F70652E0D00000048656C6C6F2C207731
:101980006F726C64212046726F6D20555341525422
:10199000322E0D0A000000005479706520736F6DBF
:1019A000657468696E673A20000000000D0A596F7F
:1019B000752074797065643A200000000D0A0000FB
:1019C000496E7465727275707420776974686F758A
:1019D00074204953522E202053797374656D2073FF
:1019E000746F702E000000004861726420466175BB
:1019F0006C7420696E746572727570742E20205339
:101A0000797374656D2073746F702E000000000090
:101A100000000000000000000000000000000000C6
:101A200000000000000000000000000000000000B6
:101A300000000000000000000000000000000000A6
:101A40000000000000000000000000000000000096
:101A50000000000000000000000000000000000086
:101A6000000000000000000000000000080000204E
:101A70006800002008000020000000002C1A000868
:101A80004C1A00080C1A00080000000000000000BA
:101A90000000000000000000000000000000000046
:101AA0000000000000000000000000000000000036
:101AB0000000000000000000000000000000000026
:101AC0000000000000000000000000000000000016
:081AD00000000000000000000E
:04000005080000C12E
:00000001FF
