:10000000020082C00078B10000D8FCD00022C000FD
:10001000C001792D78A6D8FED9FADAF6D001D00041
:1000200022D293120003C29322D291020033C291D2
:10003000020033A2E792B5A2E692B4A2E592B3A27F
:10004000E492B2120021A2E392B5A2E292B4A2E13C
:1000500092B3A2E092B212002122C293C2927433F0
:1000600012002E743312002E743212002E742812D5
:10007000002E740C12002E740112002E7A0212004F
:100080000E2275817F12005A748012002E74411264
:0E009000002974C212002E744212002980FE54
:00000001FF
