:10000000020082C00078B10000D8FCD00022C000FD
:10001000C001792D78A6D8FED9FADAF6D001D00041
:1000200022D293120003C29322D291020033C291D2
:10003000020033A2E792B5A2E692B4A2E592B3A27F
:10004000E492B2120021A2E392B5A2E292B4A2E13C
:1000500092B3A2E092B212002122C293C2927433F0
:1000600012002E743312002E743212002E742812D5
:10007000002E740C12002E740112002E7A0212004F
:100080000E2275817F12005A748112002E74421262
:100090000029748212002E74451200297483120004
:1000A0002E744E120029748412002E7447120029F7
:1000B000748512002E7441120029748612002E7469
:1000C0004C120029748712002E7449120029748979
:1000D00012002E7450120029748A12002E745212CB
:1000E0000029748B12002E7449120029748C12009E
:1000F0002E744E120029748D12002E7443120029A2
:10010000748E12002E744512002974C412002E74CD
:100110003312002974C512002E743712002974C6D8
:1001200012002E743312002974C712002E74371275
:10013000002974C812002E743312002974C91200E9
:100140002E743612002974CA12002E74321200293D
:1001500074CB12002E74381200291203401203408F
:100160001203401203401203401203407481120034
:100170002E7420120029748212002E74201200297D
:10018000748312002E7420120029748412002E74BD
:1001900020120029748512002E7420120029748602
:1001A00012002E7420120029748712002E7420125F
:1001B0000029748912002E7420120029748A1200FA
:1001C0002E7420120029748B12002E742012002924
:1001D000748C12002E7420120029748D12002E745B
:1001E00020120029748E12002E742012002974C36C
:1001F00012002EE412002974C412002EE412002909
:1002000074C512002EE412002974C612002EE412E6
:10021000002974C712002EE412002974C812002E9F
:10022000E412002974C912002EE412002974CA12C3
:10023000002EE412002974CB12002EE4120029745F
:10024000CC12002EE41200291203401203401203C4
:1002500040120340748312002E74431203401200B4
:1002600029748412002E74411203401200297485EF
:1002700012002E744C120340120029748612002EB4
:10028000744C120340120029748812002E744D120F
:100290000340120029748912002E74451203401283
:1002A0000029748B12002E743B1203401200297433
:1002B0008C12002E742912034012002974C31200FC
:1002C0002E743412034012002974C412002E7430AC
:1002D00012034012002974C512002E743312034019
:1002E00012002974C612002E74381203401200291D
:1002F00074C712002E743012034012002974C81201
:10030000002E743512034012002974C912002E7495
:100310003612034012002974CA12002E74361203DA
:100320004012002974CB12002E74381203401200C0
:100330002974CC12002E743912034012002980FE59
:0D0340007A5979FA78A6D8FED9FADAF622B1
:00000001FF
