:1000000002006E220000000000000000000000005E
:10005000000000020152000000000000000000004B
:100060000000000000000000000000020107758190
:1000700020120189E58260030200DA780079007AB3
:10008000007B007C007D00EC4D601C88828983E44D
:1000900093A3A882A9838A828B83F0A3AA82AB83CD
:1000A0001CBCFFE31D80E07582007583007C007D31
:1000B00008EC4D600AE4F0A31CBCFFF51D80F2754E
:1000C00082007583007C007D00EC4D600AE4F0A3A3
:1000D0001CBCFFF51D80F212000312048A80FEAAE8
:1000E00082BA6100400BEA2485400674E02AF5825A
:1000F000228A8222AA8210990280FB8A9922109871
:100100000280FB85998222C0E0C002C003C0D07586
:10011000D000D28075A70053E6BF75A73053BFCF7C
:100120007A007B0074014AF5B58BB675C73F75BB85
:100130000E75A10143A180748025B5F5B5E435B6EF
:10014000F5B675A700C2EDD2CAD0D0D003D002D088
:10015000E032C0E0C0D075D00075A730C2EDE5A197
:1001600020E706D200C280801BC3E5B59480E5B6C7
:100170009407500D748025B5F5B5E435B6F5B68015
:100180000353A17FD0D0D0E03275A7007597DE75FC
:1001900097AD75FF8075EF0675A71075C12075A71F
:1001A0000075A90075A900E5A930E7FB75A90375DD
:1001B000A903E5A930E7FB43A41375E10175E2004B
:1001C00075E340759810758DE6858D8B53890F43C7
:1001D0008920D28ED299C2807582002275A700C272
:1001E000EF75B20075BC2075B90175E80075DF3F89
:1001F00075B302D2EF43E60822AA8275A70053E640
:10020000BF75A73075BF007452B50E047B01800224
:100210007B00EBC42354E0FB43030C7446B50E048F
:100220007C0180027C00ECC454F0FC4BF5ABBA328C
:10023000047A0480027A0374B04AF5AA743F550F19
:10024000FA8AAC75BF8075A70022AA82438E4075DA
:1002500092B87593FF8592948593957591047B0070
:10026000C3EB9A500BE59130E7FB53917F0B80F085
:1002700075910022AA82AB837C007D00C3EC9AEDCD
:100280009B502B7E00BE0400501D7582FAC002C038
:1002900003C004C005C00612024AD006D005D0042F
:1002A000D003D0020E80DE0CBC00D10D80CE22AA7D
:1002B000828510F005F07401800225E0D5F0FBFB8B
:1002C00075A720BA0002800ABA0102800FBA021E86
:1002D0008014EBF4FA52F1EB42D48012EBF4FA52B0
:1002E000F2EB42D58008EBF4FA52F3EB42CC75A75F
:1002F00000228582BBC2EDD2EC30EDFD85BD82854A
:10030000BE8322AA82AB83ACF0FD75A70075C8003E
:10031000438E108A0E8B0F8C108D1190A20075F0F9
:100320004A7404120794AA82AB83ACF0FDE4C39A2A
:10033000FAE49BFB74019CE49D8ACA8BCB75CEFFCB
:1003400075CFFF22AA08C3EA648094B05003020369
:10035000EDC374B98AF063F08095F050030203EDA9
:10036000EA24D0FA25E02A90036B73020389020382
:100370009302039D0203A70203B10203BB0203C55C
:100380000203CF0203D90203E37A107B277C007DAE
:100390000080627A207B4E7C007D0080587A407B12
:1003A0009C7C007D00804E7A807B387C017D0080C3
:1003B000447A007B717C027D00803A7A007BE27C8B
:1003C000047D0080307A007BC47C097D0080267A21
:1003D000007B887C137D00801C7A007B107C277D4D
:1003E0000080127A007B207C4E7D0080087A107B92
:1003F000277C007D00C20075A73053BFCF75A700D2
:1004000043E640438E407592B87593FF859294857C
:1004100093957591047E007F007800790020002577
:10042000E59130E7FB53917F0EBE00090FBF000539
:1004300008B8000109EEB502E4EFB503E0E8B50441
:10044000DCE9B505D8759100C2CA22120344200028
:100450003875A70053E6BF75A73053BFCF7A007B2E
:100460000074014AF5B58BB675C73F75BB0E75A113
:100470000143A180748025B5F5B5E435B6F5B675B0
:10048000A700C2EDD2CA3000FD22751001758202AC
:100490001202AF7510027582021202AF1201DC90D7
:1004A000424075F00FE4120303750830750B317587
:1004B0000C46750D15750E46750F157582311201B6
:1004C000F9D2AF1200FE1200DFAD82BD41028003FF
:1004D0000205AE1200FEAE82C0061200FE1200DF60
:1004E000AF82C0071200FEA882D007D006EEB50B7F
:1004F0000AEFB50C06E8B50D02801B8F0E880F8E33
:1005000082C006C007C0001201F9D000D007D00693
:100510008E0B8F0C880D12044B75A72075CE08E446
:10052000F509F50A74FC250A406CE5092509FBE587
:100530000A33FAEB2400F582EA3400F583E0FAA3EB
:10054000E0C313CA13CAC313CA13CA8A82C00212F1
:1005500000F4D0028ACA74012509FBE4350ACB25D0
:10056000E0CB33FCEB2400F582EC3400F583E0FBB8
:10057000A3E0C313CB13CBC313CB13CB8B028A8261
:10058000C0021200F4D0028ACA74022509F509E4F7
:10059000350AF50A808E75CE0185CB821200F4757E
:1005A000CE0085CB821200F475A7000204C3BD4EB5
:1005B0000280030206AE1200FEAE82C0061200FEEA
:1005C0001200DFAF82C0071200FEA882D007D0065B
:1005D000EEB50B0AEFB50C06E8B50D02801B8F0EC9
:1005E000880F8E82C006C007C0001201F9D000D06B
:1005F00007D0068E0B8F0C880D12034475A720754B
:10060000CE087B007C0074FC2C40798B06ECCE2558
:10061000E0CE33FFEE2400F582EF3400F583E0FEF8
:10062000A3E0C313CE13CEC313CE13CE8E028A82A1
:10063000C002C003C0041200F4D004D003D0028A68
:10064000CA74012BFEE43CCE25E0CE33FFEE24003D
:10065000F582EF3400F583E0FEA3E0C313CE13CEA2
:10066000C313CE13CE8E028A82C002C003C004120E
:1006700000F4D004D003D0028ACA74022BFBE43CFD
:10068000FC02060630001875CE0185CB821200F4FC
:1006900075CE0085CB821200F475A7000204C375E5
:1006A00082001200F47582001200F40204C3BD49F6
:1006B000097582531200F40204C3BD520280030282
:1006C00004C31200FE1200DFE582FDB50803020438
:1006D000C38D08AA08C3EA648094B050030204C31F
:1006E000C374B98AF063F08095F050030204C3EA42
:1006F00024D0FA25E02A9006FA730207180207258B
:1007000002073202073F02074C0207580207640241
:10071000077002077C02078890424075F00FE412D0
:1007200003030204C390A12075F007E4120303023F
:1007300004C390D09075F003E41203030204C39045
:10074000E84875F001E41203030204C390F424E4C2
:10075000F5F01203030204C3907A12E4F5F01203D9
:10076000030204C3903D09E4F5F01203030204C33D
:10077000901E84E4F5F01203030204C3900F42E4D8
:10078000F5F01203030204C39007A1E4F5F012038D
:10079000030204C3FB7A20E4FCFDFEFFE582258210
:1007A000F582E58333F583E5F033F5F0EB33FB4079
:1007B00017DAE98042E5822582F582E58333F58305
:1007C000E5F033F5F0EB33FBEC33FCED33FDEE33CA
:1007D000FEEF33FFEC950EED950FEE9510EF9511B2
:1007E0004013EC950EFCED950FFDEE9510FEEF9588
:1007F00011FF438201DABEEB22000000000000007E
:00000001FF
