:020000040800F2
:1000000000200020C100000899080008AD08000881
:1000100000000000000000000000000000000000E0
:100020000000000000000000000000009908000827
:10003000000000000000000099080008990800086E
:10004000990800089908000899080008990800080C
:1000500099080008990800089908000899080008FC
:1000600099080008990800089908000899080008EC
:1000700099080008F9000008990800089908000884
:1000800099080008990800089908000899080008CC
:1000900099080008990800089908000899080008BC
:1000A000990800089908000899080008D104000878
:1000B000990800089908000899080008990800089C
:1000C00000F094FB00F058FBE1235B02180000F005
:1000D0005BF962B600F066F8FEE7000080B500AF9D
:1000E000044B044A126801214A401A60C046BD46CA
:1000F00080BDC0461400004880B500AF054B054ADE
:10010000126801218A431A60FFF7E8FFC046BD4626
:1001100080BDC046102C014080B500AF1B4B1B4A70
:100120001268802189020A431A609023DB0590221D
:10013000D205126801210A431A60154B144A12684D
:10014000802109010A431A60124BC822D2001A60AA
:10015000114B114A1268802189010A431A600F4B22
:100160000E4A126810210A431A600C4B0B4A12689F
:1001700001210A431A600A4B094A126801210A4305
:100180001A6062B6C046BD4680BDC046141002402B
:10019000181002402C2C014000E100E0002C01402E
:1001A0000C2C014080B58AB000AFFFF7B5FF274B9C
:1001B000180001F0F7F8264B180001F0F3F8254B72
:1001C000180001F075F8244B1B689B68180000F0BC
:1001D0007BFE3B001F21180000F080FA3B00180056
:1001E00000F0B0FD03007B627B6A1C4A934205DD90
:1001F0001B4B180001F0D6F8184B7B627B6A002B72
:10020000DDDD7B6A5B001900164800F0AFFC0300DF
:100210003B623B6A5B001900124800F0A7FC030038
:100220001A00114B1100180001F042F80F4B0F4A51
:10023000126801218A431A600D4B3A6A1A600B4B0F
:100240000A4A126801210A431A60B8E7AC2500087F
:10025000D4250008F825000804000020400D030004
:1002600004260008006CDC0298260008002C0140DF
:100270002C2C014090B585B000AF78603960184BE8
:100280001B68002B02D101235B4224E00023FB60AA
:100290000AE0FB685A1CFA603A68D418114B18003F
:1002A00000F0AFF9030023707B68013B1A00FB6884
:1002B0009A4205D90B4B180000F0CCF9031EE8D187
:1002C000FB68002B06D03A68FB68D31800221A702E
:1002D000FB6800E000231800BD4605B090BDC04695
:1002E00084020020EC01002090B585B000AF78605A
:1002F0003960214B1B68002B02D101235B4237E0A0
:100300007B683F2B0BDCC0461C4B180000F0A2F9A9
:10031000020040239A1A7B689A42F5D302E0022336
:100320005B4225E00023FB600BE03A68FB68D318D2
:100330001A78124B1100180000F034F9FB680133F1
:10034000FB607B68FA689A42EFD30D4B1B6808226A
:1003500013400CD10A4B0A4A126808210A431A605A
:10036000084C064B180000F04CF9030023600023F2
:100370001800BD4605B090BD840200203802002060
:10038000003801402838014080B584B000AF786063
:1003900072B63F4B00229A643D4B9A6C3C4B5A64B8
:1003A0003B4B5A6C3A4B1A643A4B00229A64394BD5
:1003B0009A6C384B5A64374B5A6C364B1A64364B2E
:1003C00001221A60354B00221A60354B344A1268FC
:1003D000802189020A431A60324BFB607968F86811
:1003E00000F0C4FB0300FB602F4B2F4A12688021F2
:1003F000C9020A431A602D4B2C4A12682C490A4044
:100400001A609023DB059022D2051268802109032F
:100410000A431A60274B274A126810210A431A60C0
:100420009023DB059022D2051268802189030A43BC
:100430001A60204B1F4A1268802149000A431A6043
:100440001D4B1D4A12688021C9010A431A601B4BCB
:100450001A4A12686C210A431A60194B00221A606A
:10046000184B00221A60184BFA681A60134B134A93
:10047000126801210A431A60144B144A1268802141
:1004800009050A431A6062B6C046BD4604B080BD85
:10049000EC0100203802002084020020E801002046
:1004A00014100240006CDC02080000480400004800
:1004B000FFFDFFFF240000481810024000380140F3
:1004C00004380140083801400C38014000E100E0E8
:1004D00080B500AF084B1B688022134001D000F0AC
:1004E00025F8054B1B682022134001D000F006F8C8
:1004F000C046BD4680BDC0461C38014080B500AF37
:10050000074B1B68DAB2074B1100180000F04AF8DD
:10051000031E02D0044B01221A60C046BD4680BDB6
:1005200024380140EC010020E8010020B0B500AF04
:10053000164B180000F08EF8031E07D0144C134B16
:10054000180000F05EF8030023601BE0114B114A15
:10055000126808218A431A600F4B1B68402213401F
:1005600005D00E4B0D4A126840210A431A600A4B0F
:100570001B688022134005D0094B094A12681021DC
:100580000A431A60C046BD46B0BDC04638020020CE
:1005900028380140003801401C3801402038014013
:1005A0001838014080B582B000AF78600A00FB1CAB
:1005B0001A707B681A6C7B685B6C9A4205D17B6809
:1005C0009B6C002B01D0012317E072B67B681B6C7B
:1005D000591C7A6811647A68F91C0978D1547B68CF
:1005E0009B6C5A1C7B689A647B681B6C402B02D105
:1005F0007B6800221A6462B600231800BD4602B070
:1006000080BD80B584B000AF78607B689B6C002BA8
:1006100001D100231AE072B67B685B6C591C7A68C2
:1006200051640F22BA187968CB5C13707B685B6CDD
:10063000402B02D17B6800225A647B689B6C5A1E57
:100640007B689A6462B60F23FB181B781800BD46BE
:1006500004B080BD80B582B000AF78607B689B6CD1
:100660001800BD4602B080BD80B582B000AF786092
:100670000B4B1B68002B09D101235B420BE07B680D
:100680005A1C7A6019000120FFF72EFE7B681B7848
:10069000002BF4D100231800BD4602B080BDC04637
:1006A0008402002080B582B000AF0200FB1D1A70EA
:1006B000FB1D19000120FFF717FEC046BD4602B022
:1006C00080BD80B500AF044B1800FFF79AFF030010
:1006D0001800BD4680BDC046EC01002090B585B035
:1006E00000AF78603960224B1B68002B02D10123D8
:1006F0005B4238E00023FB600B23FB1800221A70DA
:100700001EE0C0461B4B1800FFF7A4FF031EF9D0E4
:100710000B23FC18174B1800FFF773FF030023701F
:100720000B23FB181B781800FFF7BCFFFB685A1C53
:10073000FA601A007B689B180B22BA1812781A709C
:100740003B685A1EFB689A4204DD0B23FB181B789A
:100750000D2BD6D1FB68002B04DDFB687A68D3181B
:1007600000221A70FB681800BD4605B090BDC04657
:1007700084020020EC01002080B582B000AF154B50
:100780007B60154B3B6007E03B681A1D3A607A6856
:10079000111D796012681A603A68104B9A42F3D3BF
:1007A00004E03B681A1D3A6000221A603A680C4B5C
:1007B0009A42F6D30B4B3B6004E03B681A1D3A604B
:1007C0001B6898473A68084B9A42F6D3C046BD4624
:1007D00002B080BDA428000800000020D401002041
:1007E00090020020A4280008A428000880B500AFCB
:1007F000244B244A126824490A401A60C046214BFF
:100800001A6880239B041340F9D1204B1F4A1268B9
:1008100001210A431A601D4B1C4A126806218A43B3
:100820001A601A4B194A126810210A431A60184BB1
:10083000174A126817490A401A60154B144A126881
:10084000A02189030A431A60114B114A12688021C2
:10085000C9010A431A600B4B0A4A126880214904F5
:100860000A431A60C046074B1A6880239B04134052
:10087000F9D0074B064A126802210A431A60C046A3
:10088000BD4680BD00100240FFFFFFFE0020024079
:1008900004100240FFFFC3FF80B500AF024B1800F9
:1008A000FFF7E2FEFEE7C046B426000880B500AFC1
:1008B000024B1800FFF7D8FEFEE7C046DC26000812
:1008C00080B582B000AF7860FEE780B582B000AF3F
:1008D000786001235B421800BD4602B080BD80B540
:1008E00084B000AFF860B9607A60044B0C221A60E3
:1008F00001235B421800BD4604B080BD8C0200207D
:1009000080B500AF034B0B221A6001235B42180035
:10091000BD4680BD8C02002080B582B000AF7860FB
:1009200039603B68802292015A6000231800BD465E
:1009300002B080BD80B500AF01231800BD4680BD68
:1009400080B582B000AF78603960044B16221A601F
:1009500001235B421800BD4602B080BD8C0200201E
:1009600080B582B000AF78603960044B1F221A60F6
:1009700001235B421800BD4602B080BD8C020020FE
:1009800080B584B000AFF860B9607A6000231800C9
:10099000BD4604B080BD80B582B000AF78603960DC
:1009A0003B68802292015A6000231800BD4602B0C5
:1009B00080BD80B582B000AF786001235B42180033
:1009C000BD4602B080BD80B582B000AF7860044BF8
:1009D00002221A6001235B421800BD4602B080BDAE
:1009E0008C02002080B582B000AF7860044B0A22F0
:1009F0001A6001235B421800BD4602B080BDC046AC
:100A00008C02002080B582B000AF78607B68003334
:100A1000022B01D8012303E0034B09221A600023B3
:100A20001800BD4602B080BD8C02002080B586B0A3
:100A300000AF7860144B7B61144B154A94466344B5
:100A40003B61144B1B68002B02D1124B7A691A6070
:100A5000104B1B68FB600F4B1A687B68D2183B6910
:100A60009A4205D90C4B0C221A6001235B4206E026
:100A7000084B1A687B68D218064B1A60FB6818008E
:100A8000BD4606B080BDC046900200200020002078
:100A900000F0FFFFD80100208C02002080B588B054
:100AA00000AFF860B9607A600023BB61FB68002B7F
:100AB00024D10023FB611CE0FFF703FE03001A00B2
:100AC0001723FB181A70BB685A1CBA601722BA1891
:100AD0001278D2B21A70BB690133BB611723FB18BD
:100AE0001B78DBB20A2B01D1BB690EE0FB69013335
:100AF000FB61FA697B689A42DEDB05E0054B09225F
:100B00001A6001235B4200E0BB691800BD4608B0D3
:100B100080BDC0468C02002080B586B000AFF86072
:100B2000B9607A60FB68013B012B11D800237B611F
:100B300009E0BB685A1CBA601B781800FFF7B2FDC9
:100B40007B6901337B617A697B689A42F1DB05E05E
:100B5000054B09221A6001235B4200E07B68180004
:100B6000BD4606B080BDC0468C02002003460B4344
:100B70007FD4002243088B4274D303098B425FD396
:100B8000030A8B4244D3030B8B4228D3030C8B42C2
:100B90000DD3FF22090212BA030C8B4202D31212A8
:100BA000090265D0030B8B4219D300E0090AC30B7D
:100BB0008B4201D3CB03C01A5241830B8B4201D32A
:100BC0008B03C01A5241430B8B4201D34B03C01A13
:100BD0005241030B8B4201D30B03C01A5241C30A8B
:100BE0008B4201D3CB02C01A5241830A8B4201D3FC
:100BF0008B02C01A5241430A8B4201D34B02C01AE6
:100C00005241030A8B4201D30B02C01A5241CDD28A
:100C1000C3098B4201D3CB01C01A524183098B42D5
:100C200001D38B01C01A524143098B4201D34B01BE
:100C3000C01A524103098B4201D30B01C01A524121
:100C4000C3088B4201D3CB00C01A524183088B42A8
:100C500001D38B00C01A524143088B4201D34B0091
:100C6000C01A5241411A00D2014652411046704703
:100C70005DE0CA0F00D04942031000D34042534008
:100C800000229C4603098B422DD3030A8B4212D3C8
:100C9000FC22890112BA030A8B420CD389019211FA
:100CA0008B4208D3890192118B4204D389013AD037
:100CB000921100E08909C3098B4201D3CB01C01A0C
:100CC000524183098B4201D38B01C01A524143091F
:100CD0008B4201D34B01C01A524103098B4201D30D
:100CE0000B01C01A5241C3088B4201D3CB00C01A7A
:100CF000524183088B4201D38B00C01A5241D9D292
:100D000043088B4201D34B00C01A5241411A00D212
:100D10000146634652415B10104601D34042002B0E
:100D200000D54942704763465B1000D3404201B58D
:100D3000002000F005F802BD0029F8D016E7704742
:100D40007047C04610B50A22002100F0ABFC10BD70
:100D500010B50A23002200F089FC10BDF7B58A897E
:100D600005000C00130760D44B68002B04DC0B6CEF
:100D7000002B01DC0020FEBDE76A002FFAD0002323
:100D80002E682B6080235B011A4034D0606DA389EC
:100D90005B0706D56368C01A636B002B01D0236C18
:100DA000C01A0200216A00232800E76AB847A18917
:100DB000431C06D12B681D2B31D82C4ADA40D307AF
:100DC0002DD50023636023692360CB0405D5431C24
:100DD00002D12B68002B00D16065616B2E60002969
:100DE000C8D023004433994202D0280000F0A4F96F
:100DF00000206063BFE70123216A2800B847431C35
:100E0000C5D12B68002BC2D01D2B01D0162B01D1D0
:100E10002E60AFE74023A2891343A381ABE74023B1
:100E20000B430120A3814042A5E70F69002FA1D009
:100E30000B680F60DB1B01930023920700D14B6905
:100E4000A360019B002B00DC94E7019B3A00216A20
:100E50002800A66AB047002803DC4023A289134378
:100E6000DFE7019B3F181B1A0193EAE701004020CE
:100E70000B6970B505000C00002B01D1002070BD7E
:100E8000002804D08369002B01D100F07FF80B4BC0
:100E90009C4209D16C680C22A35E002BEED021008D
:100EA0002800FFF75BFFEAE7054B9C4201D1AC68E5
:100EB000F1E7044B9C42EED1EC68ECE720270008F8
:100EC000402700080027000810B5011E05D1054B7A
:100ED0000549186800F006F910BD044B1868FFF7C3
:100EE000C7FFF9E760270008710E00080400002022
:100EF0000020704710B5024900F0F4F810BDC0465C
:100F0000710E0008002310B5040003604360836085
:100F100081814366C28103614361836119000822B4
:100F20005C3000F000F9054B24626362044BA3625D
:100F3000044BE362044B236310BDC046C514000894
:100F4000F114000829150008551500080020704705
:100F500070B568254A1E55430E002900743100F013
:100F600035F9041E08D000212A00016046600C30CB
:100F7000A060683200F0D7F8200070BD10B5024BB9
:100F80001868FFF7B7FF10BD60270008836913B525
:100F90000400002B28D18364C3640365134B144AF7
:100FA0001B6882620193984201D101238361200072
:100FB00000F020F86060200000F01CF8A060200025
:100FC00000F018F80022E06004216068FFF79AFF43
:100FD00001220921A068FFF795FF02221221E06893
:100FE000FFF790FF0123A36113BDC04660270008EF
:100FF000F50E0008F8B51E4B07001E68B369002BFC
:1010000002D13000FFF7C2FF4836B4687368013B75
:1010100004D53368002B07D03668F6E70C22A55EAE
:10102000002D0DD06834F2E704213800FFF790FF5F
:1010300030600028F0D10C2304003B602000F8BD94
:10104000012320005B42E3810233A38165662560B2
:10105000A560656025616561A561082229005C3095
:1010600000F061F86563A563A564E564E6E7C04642
:1010700060270008704770477047704710B5034BF2
:101080000349186800F012F810BDC04604000020A3
:101090004D0F000810B5034B0349186800F006F81F
:1010A00010BDC04604000020F10E0008F7B548301E
:1010B000040000260191002C01D13000FEBDA5687E
:1010C0006768013F01D52468F5E7AB89012B07D993
:1010D0000E22AB5E013303D02800019B98470643E4
:1010E0006835EEE7F7B504000700002601914834A3
:1010F000002C01D13000FEBD6368A5680093009B01
:10110000013B009301D52468F2E7AB89012B08D994
:101110000E22AB5E013304D029003800019B9847B2
:1011200006436835EBE703008218934200D170470D
:1011300019700133F9E7000070B50500002910D0DF
:101140000C1F2368002B00DAE418280000F0A8FC2C
:101150001D4A1368002B05D163601460280000F05D
:10116000A0FC70BDA34209D9216860188342F3D165
:1011700018685B6841182160EEE713005A68002A7E
:1011800001D0A242F9D919685818A0420BD12068A1
:101190000918581819608242E0D110685268411845
:1011A00019605A60DAE7A04202D90C232B60D5E718
:1011B00021686018824203D110685268411821608A
:1011C00062605C60CAE7C046DC010020032370B5A2
:1011D000CD1C9D43083506000C2D1ED20C25A942BE
:1011E0001DD8300000F05CFC254A1468210000295D
:1011F00019D1244C2368002B03D1300000F050F9A2
:1012000020602900300000F04BF9431C2CD10C2346
:101210003000336000F045FC03E0002DDFDA0C23E2
:101220003360002070BD0B685B1B1AD40B2B03D9F5
:101230000B60CC18256003E08C420ED1636813600C
:10124000300000F02EFC200007220B30231D9043BD
:10125000C31AE7D05A42E250E4E74B6863600C00DF
:10126000EEE70C004968C2E70323C41C9C43A0427C
:10127000E0D0211A300000F013F9431CDAD1C6E7A0
:10128000DC010020E00100200EB417B5041E04D0DC
:101290008369002B01D1FFF779FE06AB059AA1689F
:1012A0002000019300F034FC1EBC08BC03B01847BA
:1012B0000FB40B4B13B51C68002C05D0A369002B91
:1012C00002D12000FFF762FE05AB049AA16820005E
:1012D000019300F01DFC16BC08BC04B01847C046C2
:1012E0000400002070B505000E00002804D08369BA
:1012F000002B01D1FFF74AFEAB69AC68002B02D18D
:101300002800FFF743FE244B9C420FD16C68A38951
:101310001B0702D52369002B20D12100280000F0F3
:1013200049FA00281AD00120404270BD1B4B9C4254
:1013300001D1AC68EBE71A4B9C42E8D1EC68E6E7D8
:10134000013B0136A360002B04DAA269934216DB4D
:101350000A2914D023685A1C226019703178A368B6
:101360000029EDD1013BA360002B0FDA22000A31E6
:10137000280000F0ABF9431CD5D00A20D5E72200A5
:10138000280000F0A3F9431CE8D1CCE70A20236829
:101390005A1C22601870C8E7202700084027000860
:1013A0000027000810B5034B01001868FFF79AFFEB
:1013B00010BDC0460400002070B50D00096804008F
:1013C000002901D0FFF7F8FF29002000FFF7B4FE45
:1013D00070BD0000314B70B51B680400834256D0CD
:1013E000436A002B17D0DB68002B0DD00025636A01
:1013F000DB68595900294BD10435802DF7D1636A38
:101400002000D968FFF798FE636A1968002902D0A6
:101410002000FFF791FE6169002902D02000FFF74C
:101420008BFE616A002902D02000FFF785FEA16BC8
:10143000002902D02000FFF77FFEE16B002902D0D7
:101440002000FFF779FE216C002902D02000FFF771
:1014500073FEE16D002902D02000FFF76DFEA16D43
:10146000002902D02000FFF767FE616B002902D03F
:101470002000FFF761FEA369002B08D02000A36ABB
:101480009847A16C002902D02000FFF795FF70BD9E
:101490000E682000FFF750FE3100ABE7040000208B
:1014A000002370B5064C050008002360FFF7BEFA64
:1014B000431C03D12368002B00D02B6070BDC046B5
:1014C0008C02002070B50C000E25495F00F0D0FDA5
:1014D000002803DB636D1B18636570BDA389024A96
:1014E0001340A381F9E7C046FFEFFFFF00207047DC
:1014F000F8B51F008B8905000C001600DB0505D52B
:101500000E23C95E0022022300F026FAA389054AB1
:1015100028001340A38132000E23E15E3B0000F05F
:1015200035F9F8BDFFEFFFFF70B50C000E25495FE0
:1015300000F012FAA389421C03D1054A1340A3818B
:1015400070BD802252011343A3816065F8E7C04655
:10155000FFEFFFFF10B50E23C95E00F0A1F910BD2B
:10156000F0B51F000E0087B00590039102920C9811
:10157000347800F0D5F9082200194378751C13401F
:101580000CD12D2C0CD101332C780193B51C002FDC
:101590000CD0102F14D1302C0AD011E02E00E6E729
:1015A00001932B2CF3D12C78B51CF0E7302C2FD1E4
:1015B00020222B789343582B51D110276C78023579
:1015C000019B294A39009E18300000F0EBFF3000E3
:1015D0000491390000F060FF01210023494202001C
:1015E0008C46180021003039092913D80C00A74275
:1015F0001CDD591C09D06346824206D302D10499EE
:10160000A14202DB0123784320182C780135E9E759
:101610000A27D5E721004139192901D8373CE6E7E7
:1016200021006139192901D8573CE0E75A1C08D13B
:10163000059A23331360029B3000002B0BD107B0B7
:10164000F0BD019A002A00D04042029A002AF6D04A
:10165000039A002B00D06A1E029B1A60EFE7302429
:10166000002FADD10837ABE7FFFFFF7F13B5054C67
:101670002468246A002C00D1034C0094FFF770FF0B
:1016800016BDC046040000206800002007B5009386
:1016900013000A00010002480068FFF761FF0EBD59
:1016A0000400002037B51300064A05001068046ADC
:1016B000002C00D1044C0A0000942900FFF750FFD1
:1016C0003EBDC0460400002068000020F8B50500BB
:1016D0000E001400002804D08369002B01D1FFF70D
:1016E00055FC224B9C422DD16C68A369A360A38951
:1016F0001B0731D52369002B2ED023682269F7B24E
:10170000981A6369F6B2984205DB21002800FFF7BA
:10171000AFFB002826D1A3680130013BA3602368FA
:101720005A1C22601F706369984204D0A389DB07AA
:101730001AD50A2E18D121002800FFF799FB00289E
:1017400012D00FE00A4B9C4201D1AC68CDE7094BA7
:101750009C42CAD1EC68C8E72100280000F02AF8B2
:101760000028CAD0012676423000F8BD20270008A4
:10177000402700080027000810B5034B0A000100AD
:101780001868FFF7A3FF10BD0400002070B5050026
:10179000080011000022064C22601A00FFF7BCF975
:1017A000431C03D12368002B00D02B6070BDC046C2
:1017B0008C020020364B70B51D6806000C00002D11
:1017C00005D0AB69002B02D12800FFF7DFFB314BBE
:1017D0009C420FD16C680C23E25E93B219072DD4A2
:1017E000D90611D409230120336037331343A38171
:1017F000404270BD284B9C4201D1AC68EBE7274BBF
:101800009C42E8D1EC68E6E75B0713D5616B0029E1
:1018100008D023004433994202D03000FFF78CFCFB
:10182000002363632422A3899343A381002363607D
:10183000236923600823A2891343A3812369002B12
:101840000BD1A0218022A389890092000B409342F2
:1018500003D02100300000F0BBF80123A28913401F
:1018600011D00023A36063695B42A3610020236958
:101870008342BED10C23E25E1306BAD54023134344
:10188000A3810138B5E7920700D46369A360EDE74F
:101890000400002020270008402700080027000837
:1018A000002370B5064C050008002360FFF70DF813
:1018B000431C03D12368002B00D02B6070BDC046B1
:1018C0008C02002070B5141E0B4D12D00B49100075
:1018D00000F0E2FB00280CD02900200000F0DCFB27
:1018E000002806D00649200000F0D6FB00239842CD
:1018F00000D12B00180070BD64270008662700087F
:1019000073270008044B1B681B6A002B00D1034B94
:1019100094225200985C7047040000206800002068
:10192000EC30006870470000044B1B681B6A002BFA
:1019300000D1034BEC3318687047C0460400002008
:101940006800002010B5034B0A0001001868FFF77B
:10195000B9FF10BD0400002070B50500080011009B
:101960000022064C22601A00FFF70AF8431C03D13C
:101970002368002B00D02B6070BDC0468C02002075
:1019800070B50E001D000E23C95E90B01400002932
:1019900007DA00232B60B3891B0611D48023DB00F8
:1019A0000FE001AA00F09EFB0028F2DBF022029B70
:1019B00012021340054A9B185A4253412B60EDE72F
:1019C00040230020236010B070BDC04600E0FFFF40
:1019D000F7B502268B8905000C00334206D02300A0
:1019E00047332360236101236361F7BD01AB6A467E
:1019F000FFF7C6FF009907002800FFF7E7FB002864
:101A000008D10C22A35E9A05EFD4032293431E4310
:101A1000A681E4E70F4BAB628023A28920601343C9
:101A2000A381009B20616361019B002B0DD00E23DD
:101A3000E15E280000F0CAFC002806D00322A3893A
:101A400093431A0001231343A381A0893843A08143
:101A5000CBE7C046F50E000837B5064C2468246A6B
:101A6000002C00D1044C069DE43400952468A04766
:101A70003EBDC046040000206800002082B000295E
:101A800000D101A9101E06D0002B06D013780B60E0
:101A90001078431E984102B0704702204042FAE796
:101AA00070477047936810B5013B9360002B05DACF
:101AB0009469A34208DBCBB20A2B05D01368581CEB
:101AC00010601970C8B210BDFFF700FEFBE7F8B553
:101AD00006000F001400D518AC4201D1002007E029
:101AE00021783A003000FFF7DDFF0134431CF3D1C9
:101AF000F8BD936810B51400002B02D11800536094
:101B000010BD00F001FB0023A3606360F8E7000054
:101B1000F0B59FB006000F0014000593002804D014
:101B20008369002B01D1FFF731FA7F4B9F425CD1D3
:101B30007768BB891B0762D53B69002B5FD0002308
:101B400006AD6B6120336B761033AB760294029C4A
:101B50002378002B5DD1029BE31A04930DD0049BE4
:101B6000029A39003000FFF7B2FF431C00D1CCE0ED
:101B70006A69049B944663446B612378002B00D10F
:101B8000C3E00122002352426A6002A95432521873
:101B900001342B60EB60AB601370AB6521780522DC
:101BA000624800F025FC631C9C46002835D129685A
:101BB000CB0604D5532302AA20309B1818700B07BC
:101BC00004D553232B2002AA9B18187023782A2BA4
:101BD0002CD000200A21099B2278303A092A00D80B
:101BE0006BE000282AD0099328E0514B9F4201D195
:101BF000B7689EE74F4B9F429BD1F76899E7390042
:101C00003000FFF7D7FD002899D0012040421FB0D7
:101C1000F0BD252B9FD001349AE7444B2968C01AA8
:101C2000012383400B432B606446B7E7059B181DD7
:101C30001B680590002B3ADB0993644623782E2B12
:101C40000BD16378621C2A2B3FD1059B02341A1DED
:101C50001B680592002B35DB079321780322364859
:101C600000F0C6FB002807D0334B2A68C01A402377
:101C7000834013432B6001342178631C06222F48D4
:101C80000293297600F0B4FB002844D02C4B002BA3
:101C90002FD12968059B0722C90528D59B18934396
:101CA000083305936B69039A9B186B614FE75B429E
:101CB000EB6002230B432B60BFE74B4301349B18BF
:101CC000012089E701235B42C6E7002314000A20B4
:101CD0001A006B6021783039092903D9002BBCD058
:101CE0000792BAE74243013452180123F2E707335F
:101CF000D5E705AB00933A00124B2900300000E015
:101D000000BF0390039B0133CCD1BB895B0600D598
:101D10007BE70B987BE705AB00933A00094B290062
:101D2000300000F08BF8ECE7202700086E27000851
:101D300040270008002700087427000878270008BB
:101D400000000000CF1A000810B513000A000100BF
:101D500002480068FFF7DCFE10BDC046040000200A
:101D6000F7B5150001938A680B6900900C00934247
:101D700000DA130022002B6043321278002A01D0CF
:101D800001332B6023689B0602D52B6802332B603E
:101D9000062723681F4027D0230043331B785A1E91
:101DA00093412268920630D4220001994332009870
:101DB000089EB047431C25D0062320682A68E168A6
:101DC00003400025042B03D18D1AEB43DB171D4084
:101DD000A3682269934201DD9B1AED180027BD42DA
:101DE00020D1002010E00137E3682A689B1A9F4247
:101DF000D2DA22000123193201990098089EB047D7
:101E0000431CF0D101204042FEBD3020E118433197
:101E1000087021005A1C45310978A2184332023358
:101E20001170C1E7220001231A3201990098089E1F
:101E3000B047431CE6D00137D1E70000F0B58BB0C6
:101E400006920A0043320793059004920A7E0C0022
:101E5000109B6E2A00D18FE017D8632A2CD008D8A7
:101E6000002A00D199E0582A54D026004236327018
:101E700029E0642A01D0692AF7D121681A68080686
:101E800023D5111D1960156825E0732A00D188E05B
:101E900008D86F2A29D0702AE7D1202209680A437E
:101EA000226003E0752A20D0782ADED12200782132
:101EB000453211706C4A30E00E001A684236111D2E
:101EC000196013683370012379E04906D9D5111DD3
:101ED00019600023D55E002D03DA2D23049A6D428C
:101EE0001370624B0A2703932FE0206819680506D8
:101EF00003D5081D18600D6805E04006F9D50D688A
:101F0000081D1860ADB2594B082703936F2A18D0EB
:101F10000A2716E045310A70544A03921A6821686C
:101F2000101D18601568080622D5CB0702D520239E
:101F3000194321601027002D03D1202322689A43E2
:101F400022602300002243331A706368A360002BD1
:101F50005CDB0422216891432160002D58D1049E4E
:101F6000002B64D02600039B42361B7833705EE062
:101F70004806DAD5ADB2D8E709681A68080605D56B
:101F8000111D1960136862691A6006E04906F7D5E9
:101F9000111D19601368A28A1A800023049E236110
:101FA00054E01A68111D196016680021626830003B
:101FB00000F01EFA002801D0801B60606368236176
:101FC0000023049A137041E02369320006990598B2
:101FD000079DA847431C43D0236800259B070FD4C7
:101FE000099BE06898423DDA18003BE0220001239B
:101FF000193206990598079EB047431C30D0013529
:10200000E368099A9B1A9D42F0DBE9E7002DA9D00D
:10201000049E2800390000F0C5FA039B013E5B5C7A
:1020200028003370390000F037FA051EF1D1082F6F
:1020300009D12368DB0706D563682269934202DC75
:102040003023013E3370049B9B1B2361079B09AA2D
:1020500000932100069B0598FFF782FE431CB3D135
:10206000012040420BB0F0BD902700087F270008F8
:1020700070B50500080011000022064C22601A000D
:10208000FEF70CFD431C03D12368002B00D02B600E
:1020900070BDC0468C02002002780B78002A03D065
:1020A000013001319A42F7D0D01A704710B5054C73
:1020B0002468246A002C00D1034CE0342468A04733
:1020C00010BDC04604000020680000200B1E04D094
:1020D000FF2A04D98A2303608B3B180070470A70DB
:1020E0000123FAE7002370B5064C05000800110033
:1020F0002360FEF711FC431C03D12368002B00D0A2
:102100002B6070BD8C020020F0B5936887B0029000
:102110000C001700002B02D1002007B0F0BD8B8906
:102120001B0723D50B69002B20D002253B680193A8
:10213000A3891D402BD000231D000093002D1ED02D
:102140009F4A2B00954200D91300009A216A0298F9
:10215000A66AB047002800DC92E0009B2D1A1B18ED
:102160000093BB68181AB860E8D1D5E7210002983F
:10217000FFF720FB0028D8D001204042CDE7019B8B
:102180001B680093019B5D6808330193D6E7012229
:10219000134047D02800039500950592009B002B23
:1021A00000D1E9E000280BD11A000A21039800F0C1
:1021B0001FF9009B5D1C002802D0039B0130C51A4B
:1021C000009B04959D4200D90493206822696369AD
:1021D000904200D8DBE0A2689E18049AB24200DC6C
:1021E000D5E00399320000F017F9236821009B190C
:1021F00023600298FEF73CFE002841D1AD1B0598F4
:1022000005D121000298FEF733FE002838D1039B48
:102210009B190393009B9B1B0093BB689E1BBE6096
:10222000BCD179E703930093009B002B2DD0802332
:10223000A2899B00A5681A426DD0009BAB4243D394
:102240009023DB001A423CD00326216923680098C2
:102250005B1A049363695E43F30F9E19049B761027
:1022600001331B18B34200D91E00530544D5310079
:102270000298FEF7ABFF051E11D10C23029A1360E2
:102280004023A2891343A38176E7019B1B68039334
:10229000019B5B680093019B08330193C4E7049A98
:1022A000216900F0B0F8A389464A1A4080231343FD
:1022B000A381049B2561ED1825606661009DF61AD7
:1022C000A660009BAB4200D2009D2A0003992068C3
:1022D00000F0A2F8A3685B1BA36023685D1925606A
:1022E000009D039B5B190393009B5B1B0093BB68E2
:1022F0005D1BBD6098D10FE73200029800F09EF898
:10230000051ED6D121690298FEF716FF8022A38907
:102310009343A381B1E720682369984203D8666993
:10232000009BB34216D2009B9D4200D91D002A009B
:10233000039900F071F8A36822685B1B5219A3602F
:102340002260002BCDD121000298FEF791FD0028DC
:10235000C7D095E700981C4B984200D9180031006F
:10236000FEF704FC3300A56A4343039A216A0298EE
:10237000A847051EB5DC83E7019B00201B6803937B
:10238000019B5B680093019B0833019306E7049A65
:102390009A4208DBA66A039A216A0298B047061E91
:1023A00000DD2BE76CE7049A039900F035F8049AF6
:1023B000A36816009B1AA36023689B1823601DE77F
:1023C00000FCFF7F7FFBFFFFFFFFFF7F002370B557
:1023D000064C050008002360FEF714FB431C03D1E4
:1023E0002368002B00D02B6070BDC0468C020020FB
:1023F000C9B28218904201D10020704703788B4205
:10240000FBD00130F6E7002310B59A4200D110BD91
:10241000CC5CC4540133F8E710B5884202D98B185C
:10242000984208D300239A4207D0CC5CC4540133AD
:10243000F9E78B5C8354013AFBD210BDF8B5070075
:102440000D001600002905D11100FEF7BFFE0400A3
:102450002000F8BD002A03D1FEF76EFE3400F7E736
:1024600000F012F82C008642F2D931003800FEF755
:10247000ADFE041EECD029003200FFF7C4FF290096
:102480003800FEF759FEE3E70B1F1B68181F002BEF
:1024900001DA0B58C0187047002243088B4274D3EE
:1024A00003098B425FD3030A8B4244D3030B8B4255
:1024B00028D3030C8B420DD3FF22090212BA030C5E
:1024C0008B4202D31212090265D0030B8B4219D33F
:1024D00000E0090AC30B8B4201D3CB03C01A52415F
:1024E000830B8B4201D38B03C01A5241430B8B42A7
:1024F00001D34B03C01A5241030B8B4201D30B0390
:10250000C01A5241C30A8B4201D3CB02C01A5241B6
:10251000830A8B4201D38B02C01A5241430A8B4279
:1025200001D34B02C01A5241030A8B4201D30B0262
:10253000C01A5241CDD2C3098B4201D3CB01C01A7C
:10254000524183098B4201D38B01C01A5241430986
:102550008B4201D34B01C01A524103098B4201D374
:102560000B01C01A5241C3088B4201D3CB00C01AE1
:10257000524183088B4201D38B00C01A5241430859
:102580008B4201D34B00C01A5241411A00D201467E
:10259000524110467047FFE701B50020FEF7D0FB1F
:1025A00002BDC0460029F7D076E7704746726571D4
:1025B00075656E63792067656E657261746F7220F0
:1025C000666F72207468652053544D33324630353F
:1025D000312E0D004279204A657375732043616C7A
:1025E00076696E6F2D4672616761202863292032FB
:1025F0003031382E0D0A0D004672657175656E63B7
:10260000793A20000D0A5761726E696E673A204868
:10261000696768206672657175656E6369657320A8
:1026200077696C6C206361757365207468652069D7
:102630006E74657272757074207365727669636505
:1026400020726F7574696E6520666F720D0A74680A
:10265000652074696D657220746F2074616B6520EC
:10266000616C6C20617661696C61626C652070726E
:102670006F636573736F722074696D652E202043DC
:10268000617070696E6720746F2032303030303086
:10269000487A2E0D000000000D0A467265717565BE
:1026A0006E63792073657420746F3A2025640D0A77
:1026B00000000000496E746572727570742077694D
:1026C00074686F7574204953522E202053797374A7
:1026D000656D2073746F702E000000004861726495
:1026E000204661756C7420696E74657272757074C1
:1026F0002E202053797374656D2073746F702E00D3
:1027000000000000000000000000000000000000C9
:1027100000000000000000000000000000000000B9
:1027200000000000000000000000000000000000A9
:102730000000000000000000000000000000000099
:102740000000000000000000000000000000000089
:102750000000000000000000000000000000000079
:10276000080000204300504F534958002E00232DED
:10277000302B2000686C4C0065666745464700308A
:1027800031323334353637383941424344454600D7
:1027900030313233343536373839616263646566D7
:1027A0000000202020202020202020282828282841
:1027B0002020202020202020202020202020202019
:1027C0002020881010101010101010101010101071
:1027D0001010040404040404040404041010101071
:1027E000101010414141414141010101010101012C
:1027F000010101010101010101010101011010109C
:1028000010101042424242424202020202020202FE
:10281000020202020202020202020202021010106E
:102820001020000000000000000000000000000078
:102830000000000000000000000000000000000098
:102840000000000000000000000000000000000088
:102850000000000000000000000000000000000078
:102860000000000000000000000000000000000068
:102870000000000000000000000000000000000058
:102880000000000000000000000000000000000048
:102890000000000000000000000000000000000038
:0428A0000000000034
:1028A400D4010020080000200000000020270008B8
:1028B4004027000800270008000000000000000076
:1028C4000000000000000000000000000000000004
:1028D40000000000000000000000000000000000F4
:1028E40000000000000000000000000000000000E4
:1028F40000000000000000000000000000000000D4
:102904000000000000000000430000000000000080
:1029140000000000000000000000000000000000B3
:102924000000000000000000430000000000000060
:102934000000000000000000000000000000000093
:102944000000000000000000430000000000000040
:102954000000000000000000000000000000000073
:102964000000000000000000430000000000000020
:102974000000000000000000000000000000000053
:102984000000000000000000430000000000000000
:102994000000000000000000000000000000000033
:1029A40000000000000000004300000000000000E0
:1029B4000000000000000000000000000000000013
:1029C40000000000000000004300000000000000C0
:1029D40000000000000000000000000000000000F3
:1029E4000000000000000000CD2000087D1A00084F
:1029F40000000000A12700086C27000873270008C6
:102A0400732700087327000873270008732700083A
:102A1400732700087327000873270008732700082A
:102A2400FFFFFFFFFFFFFFFFFFFFFFFFFFFF0000B0
:102A34000100415343494900000000000000000028
:102A44000000000000000000000000000000000082
:102A54000000415343494900000000000000000009
:102A64000000000000000000000000000000000062
:042A7400000000005E
:04000005080000C12E
:00000001FF
