:020000040800F2
:1000000000200020C1000008C7000008C700000849
:1000100000000000000000000000000000000000E0
:10002000000000000000000000000000C700000801
:100030000000000000000000C7000008C700000822
:10004000C7000008C7000008C7000008C700000874
:10005000C7000008C7000008C7000008C700000864
:10006000C7000008C7000008C7000008C700000854
:10007000C7000008C9000008C7000008C700000842
:10008000C7000008C7000008C7000008C700000834
:10009000C7000008C7000008C7000008C700000824
:1000A000C7000008C7000008C7000008C700000814
:1000B000C7000008C7000008C7000008C700000804
:1000C00000F076F8FEE7FEE780B500AF0C4B0C4A77
:1000D000126801218A431A600A4B1B685A1C094B9B
:1000E0001A60084B1A68FA235B009A4204DD054B3C
:1000F00000221A6000F04EF8C046BD4680BDC046E2
:10010000102C01400000002080B500AF1B4B1B4AA3
:100110001268802189020A431A609023DB0590222D
:10012000D205126801210A431A60154B144A12685D
:10013000802109010A431A60124BFA2252011A6007
:10014000114B114A1268802189010A431A600F4B32
:100150000E4A126810210A431A600C4B0B4A1268AF
:1001600001210A431A600A4B094A126801210A4315
:100170001A6062B6C046BD4680BDC046141002403B
:10018000181002402C2C014000E100E0002C01403E
:100190000C2C014080B500AF044B044A12680121C9
:1001A0004A401A60C046BD4680BDC04614000048A3
:0C01B00080B500AFFFF7A8FFFEE7C046D7
:0400000508000000EF
:00000001FF
