:020000040800F2
:1000000000200020C1000008C7000008C700000849
:1000100000000000000000000000000000000000E0
:10002000000000000000000000000000C700000801
:100030000000000000000000C7000008C700000822
:10004000C7000008C7000008C7000008C700000874
:10005000C7000008C7000008C7000008C700000864
:10006000C7000008C7000008C7000008C700000854
:10007000C7000008C7000008C7000008C700000844
:10008000C7000008C7000008C7000008C700000834
:10009000C7000008C7000008C7000008C700000824
:1000A000C7000008C7000008C7000008C700000814
:1000B000C7000008C7000008C7000008C700000804
:1000C00000F032F8FEE7FEE780B500AF0A4B0B4ABE
:1000D0001A600B4B00221A600A4B05221A60C046B8
:1000E000084B1A6880235B021340F9D0054B0022AD
:1000F0001A60C046BD4680BD14E000E07F3E0000AF
:1001000018E000E010E000E080B582B000AF786059
:1001100001E0FFF7D9FF7B685A1E7A60002BF8D107
:10012000C046BD4602B080BD80B500AF124B1A6814
:10013000114B802189020A431A609023DB051A685B
:100140009023DB0501210A431A600C4B1A680B4B04
:1001500001210A431A60FA235B001800FFF7D4FF5D
:10016000064B1A68054B01218A431A60FA235B008B
:100170001800FFF7C9FFE8E7141002401400004818
:0400000508000000EF
:00000001FF
