:1000000002002E750800750900750A32E4F50B75BB
:100010000C32E4F50D750E32E4F50F751032E4F58F
:1000200011E4F524F5252200000000020445758145
:100030005F1201AEE582600302009A780079007ACF
:10004000007B007C007D00EC4D601C88828983E48D
:1000500093A3A882A9838A828B83F0A3AA82AB830D
:100060001CBCFFE31D80E07582007583007C007D71
:1000700004EC4D600AE4F0A31CBCFFF51D80F27592
:1000800082007583007C007D00EC4D600AE4F0A3E3
:100090001CBCFFF51D80F212000312056380FE1BDD
:1000A0005B324A000D456E746572203420737061B6
:1000B000636564206E756D626572732028322066F8
:1000C0006F722072696768742F6C656674206D6F3B
:1000D000746F727329206265747765656E20302DA8
:1000E0003130303A20002564202564202564202505
:1000F000640A0020202020202020202020202020F2
:1001000020200050574D313A25642C25640050576B
:100110004D323A25642C2564004469726563746924
:100120006F6E3A004261636B7761726400466F7272
:100130007761726400466F7277617264204C656605
:100140007400466F72776172642052696768740048
:1001500053746F70004261636B204C65667400429B
:1001600061636B2052696768005475726E696E67CF
:100170000025660A000D4E756D6265727320656E0E
:100180007465726564206E6F742077697468696E37
:1001900020302D3130302072616E67650A20507238
:1001A0006F6772616D20456E64656400000475A719
:1001B000007597DE7597AD75FF8075EF0675A71012
:1001C00075C12075A70075A90075A900E5A930E7DC
:1001D000FB75A90375A903E5A930E7FB43A41075D6
:1001E000E10175E20075E340759810758DE6858D27
:1001F0008B53890F438920D28ED29975C800438EC4
:100200001075CAE075CBE375CEFF75CFFFD2ADD2C6
:10021000CAD2AF7582002275A70075B28075BCF88E
:1002200075B91E75E80075DF3F75B300D2EF22AADD
:1002300082438E407592B87593FF8592948593950D
:100240007591047B00C3EB9A500BE59130E7FB53AB
:10025000917F0B80F075910022AA82AB83BA0004D3
:10026000BB0001227582F9C002C00312022F758201
:10027000F912022F7582F912022F7582FA12022FDB
:10028000D003D0021ABAFF011B80D2D2A5758228F2
:1002900012022FC2A522AA828AE0A2E792A1A2E6B8
:1002A00092A2A2E592A3A2E492A4C00212028B75CC
:1002B000822812022FD0028AE0A2E392A1A2E29247
:1002C000A2A2E192A3A2E092A402028BAA82D2A6E9
:1002D0008A82120296900002020259AA82C2A68A5B
:1002E00082120296900005020259C2A590001412D3
:1002F00002597582331202DB7582331202DB75827A
:10030000321202DB7582281202DB75820C1202DBCC
:100310007582011202DB900014020259AA82AB839B
:10032000ACF07402B512047DC080027D808D82C065
:1003300002C003C0041202DB900005120259D0046F
:10034000D003D0027D007E00ED2AFFEE3BF88C0149
:100350008F82888389F0120AF4FF60208F82C002A6
:10036000C003C004C005C0061202CCD006D005D020
:1003700004D003D0020DBD00CF0E80CC3000248D00
:10038000028E03C3EA9410EB64809480501575824A
:1003900020C002C0031202CCD003D0020ABA00E38C
:1003A0000B80E02285821585831685F017E4F51809
:1003B000F519E51324FFFFE51434FFF879007A00FE
:1003C000C3E99FEA648088F063F08095F05059C0DB
:1003D00002C007C000C001120DA1AB82D001D00045
:1003E000D007D002BB0A028003BB0D1DE5182515FE
:1003F000FCE5193516FDAE178C828D838EF0E41264
:100400000DB485188285198322E92515FCEA351675
:10041000FDAE178C828D838EF0EB120DB409B900FE
:10042000010A89188A198098E5182515FAE5193501
:1004300016FBAC178A828B838CF0E4120DB4851303
:100440008285148322C0E0C002C003C0D075D000F2
:10045000C2CF0508E508249B5003750800AA087B55
:1004600000C3E50A9AE50B9B9201B39296AA087B1A
:1004700000C3E50C9AE50D9B9201B392950509E541
:1004800009249B5003750900AA097B00C3E50E9A55
:10049000E50F9B9201B39293AA097B00C3E5109AE2
:1004A000E5119B9201B39291D0D0D003D002D0E05D
:1004B00032AA82854CF005F07401800225E0D5F067
:1004C000FBFB75A720BA0002800ABA0102800FBAAE
:1004D000021E8014EBF4FA52F1EB42D48012EBF4DA
:1004E000FA52F2EB42D58008EBF4FA52F3EB42CC2D
:1004F00075A700228582BBD2EC20ECFDD2EC20EC6B
:10050000FD85BD8285BE83221204F4120B10AA82DF
:10051000AB83ACF0FDC002C003C004C005906C8B7F
:1005200075F0537440120B1CAA82AB83ACF0FDE54E
:100530008124FCF581E4C0E074FCC0E0747FC0E07D
:100540007446C0E08A828B838CF0ED120E62AA8220
:10055000AB83ACF0FDE58124FCF5818A828B838C32
:10056000F0ED227A007B00754C00758201C002C05C
:10057000031204B11202171202EA9001F412025996
:10058000749FC0E07400C0E07480C0E0120C4E158F
:10059000811581158174A4C0E07400C0E07480C02E
:1005A000E0120C4E1581158115817410C0E07400A5
:1005B000C0E07440C0E0740EC0E07400C0E074405D
:1005C000C0E0740CC0E07400C0E07440C0E0740A85
:1005D000C0E07400C0E07440C0E074E6C0E07400A5
:1005E000C0E07480C0E0120AD3E58124F1F581D027
:1005F00003D002C37464950AE4950B401B746495A0
:100600000CE4950D40127464950EE4950F40097446
:10061000649510E49511501B750A32E4F50B750CC6
:1006200032E4F50D750E32E4F50F751032E4F51174
:10063000020A7B209703020A7B20851A750A1EE4B2
:10064000F50B750C46E4F50D750E1EE4F50F7510EF
:1006500046E4F511805520871A750A46E4F50B75B6
:100660000C1EE4F50D750E46E4F50F75101EE4F54D
:1006700011803820921A750A1EE4F50B750C46E4B9
:10068000F50D750E32E4F50F751032E4F511801B8F
:10069000209418750A32E4F50B750C32E4F50D75EB
:1006A0000E1EE4F50F751046E4F511308303020ABF
:1006B00046EA4B600302079B751201D2009000F3DB
:1006C00075F08012031C751202D2009000F375F0D1
:1006D0008012031C900011120CC8AC82AD837E0006
:1006E000C004C005C006C00CC00DC00AC00B740316
:1006F000C0E07401C0E07480C0E0C004C005C00662
:10070000120E1CE58124F6F581D006D005D00475C3
:100710001201D2008C828D838EF0C004C005C00609
:1007200012031CD006D005D0048C828D838EF0126B
:100730000BFE900011120CC8AF82A8838F048805AD
:100740007E00C004C005C006C010C011C00EC00F9E
:10075000740EC0E07401C0E07480C0E0C004C00545
:10076000C006120E1CE58124F6F581D006D005D016
:1007700004751202D2008C828D838EF0C004C005F5
:10078000C00612031CD006D005D0048C828D838E47
:10079000F0120BFE7A017B00020A46BA0105BB008B
:1007A000028003020A46751201D2009000F375F030
:1007B0008012031C751202D2009000F375F08012B3
:1007C000031C900011120CC8AF82A8838F04880507
:1007D0007E00C004C005C0067419C0E07401C0E00A
:1007E0007480C0E0C004C005C006120E1CE5812460
:1007F000FAF581D006D005D004751201D2008C82A2
:100800008D838EF0C004C005C00612031CD006D034
:1008100005D0048C828D838EF0120BFE9000111295
:100820000CC8AF82A8838F0488057E00C3E50C95B1
:100830000AE50D950B503EE50AB50E39E50BB50FEF
:1008400034E50CB5102FE50DB5112AC004C005C064
:10085000067424C0E07401C0E07480C0E0C004C02D
:1008600005C006120E1CE58124FAF581D006D005DC
:10087000D004020A1FC3E50A950CE50B950D503E06
:10088000E50AB50E39E50BB50F34E50CB5102FE5CB
:100890000DB5112AC004C005C006742DC0E0740156
:1008A000C0E07480C0E0C004C005C006120E1CE5A4
:1008B0008124FAF581D006D005D004020A1FC3E5D1
:1008C0000A950CE50B950D5035C3E510950CE51117
:1008D000950D502AC004C005C0067435C0E07401EF
:1008E000C0E07480C0E0C004C005C006120E1CE564
:1008F0008124FAF581D006D005D004020A1FC3E591
:100900000E9510E50F95115035C3E50C9510E50DCA
:100910009511502AC004C005C0067442C0E074019D
:10092000C0E07480C0E0C004C005C006120E1CE523
:100930008124FAF581D006D005D004020A1FE50C07
:10094000B50A39E50DB50B34E510B50E2FE511B537
:100950000F2AC004C005C0067450C0E07401C0E096
:100960007480C0E0C004C005C006120E1CE58124DE
:10097000FAF581D006D005D004020A1FE50CB50AAD
:1009800039E50DB50B34C3E510950EE511950F5003
:1009900029C004C005C0067455C0E07401C0E074ED
:1009A00080C0E0C004C005C006120E1CE58124FA18
:1009B000F581D006D005D0048065E50CB50A39E58F
:1009C0000DB50B34C3E50E9510E50F95115029C0F8
:1009D00004C005C006745FC0E07401C0E07480C04C
:1009E000E0C004C005C006120E1CE58124FAF581A2
:1009F000D006D005D0048027C004C005C0067469A5
:100A0000C0E07401C0E07480C0E0C004C005C0064E
:100A1000120E1CE58124FAF581D006D005D00475AC
:100A20001202D2008C828D838EF0C004C005C006F5
:100A300012031CD006D005D0048C828D838EF01258
:100A40000BFE7A007B00758206C002C00312050807
:100A5000AC82AD83AEF0FFC004C005C006C0077411
:100A600071C0E07401C0E07480C0E0120C4EE581FA
:100A700024F9F581D003D0020205F3749FC0E0741D
:100A800000C0E07480C0E0120C4E15811581158104
:100A90007475C0E07401C0E07480C0E0120C4E15A3
:100AA000811581158122120DA1AA82BA08107582C2
:100AB00020C0021215A37582081215A3D0028A82E3
:100AC0002285823F85834085F041851D42900AA69C
:100AD000021191C01A85811AE51A24FBF542E51A24
:100AE00024FBF8863F088640088641900AA612112A
:100AF00091D01A2220F71430F6148883A88220F5AA
:100B000007E6A88375830022E280F7E49322E022BF
:100B1000E4AC83AB82FAF9748E0215C112164DBC97
:100B200000030215ECEF60FA30D502B2D1E583B4D0
:100B3000FF03021602E582B4FF030216022583407A
:100B4000072482400B0215EC248314500302160282
:100B5000F582EA8DF0A4A8F0EA8EF0A428F8E43536
:100B6000F0F9EB8DF0A428E935F0F9E433CA8FF001
:100B7000A429F9EA35F0FAEBF88EF0A429F9EA3560
:100B8000F0FAE433FBEC8DF0A429F9EA35F0FAE44D
:100B90003BFBE88FF0A42AFAEB35F0FBE433CCFD05
:100BA0008EF0A42AFAEB35F0FBE43CFCED8FF0A4C8
:100BB0002BFBEC35F0FC20E70312161A0215CBAA2A
:100BC00082AB83EA4B700490000022EA24FCFAEB2B
:100BD00034FFFBAC24AD25E4F51BF51CEC4D60198E
:100BE000EAB50406EBB50502800F8C1B8D1C8C82C8
:100BF0008D83E0FCA3E0FD80E38C828D8322AA82BA
:100C0000AB838A828B83120BBFAA82AB83EA4B60D1
:100C100027E51B451C700B8A828B83A3A3E4F0A3FA
:100C2000F022AC1BAD1C8A828B83E0FAA3E0FB8C24
:100C3000828D83EAF0A3EBF0220215A385823D8525
:100C4000833E85F03F851E40900C39021A5AC01A27
:100C500085811AE51A24FBF540E51A24FBF8863D48
:100C600008863E08863F900C39121A5AD01A227A0A
:100C7000007B009001ACE493FC740193FDEA4B709F
:100C80000A0ABA00010B1CBCFF011D8A248B2585B2
:100C90002482852583EC2AFAED3BFBEA24FEFAEB5D
:100CA00034FFFBEAF0A3EBF0852482852583E0FA8C
:100CB000A3E0FB8A828B83E4F0A3F0852482852560
:100CC00083A3A3E4F0A3F022858226858327C3743F
:100CD000FB952674FF95275004900000227404258C
:100CE00026F526E43527F527E52445257003120C63
:100CF0006FAC24AD258C828D83E0FEA3E0FF8E00D7
:100D00008F018C028D03E8C39AF8E99BF98C828DE0
:100D100083A3A3E0FAA3E0FBE8C39AF8E99BF9C335
:100D2000E89526E99527400974042CFAE43DFB80F8
:100D3000128E048F058C828D83E0FEA3E0FF4E703F
:100D4000B4FAFBEA4B605574022CFEE43DFF8E8240
:100D50008F83E0F8A3E0F948700D8E828F83E5263B
:100D6000F0A3E527F08035E82CF8E93DF98C828D79
:100D700083E0FEA3E0FF88828983EEF0A3EFF08C8E
:100D8000828D83E8F0A3E9F088828983A3A3E52616
:100D9000F0A3E527F0740428FAE439FB8A828B83F8
:100DA0002210980280FBAA998A82C0021215A3D051
:100DB000028A822220F71030F6118883A88220F55B
:100DC00007F6A88375830022F280F7F022AA82AB8F
:100DD00028AC29AD2A8B828C838DF0EA120DB405E4
:100DE00028E4B5280205292285822885832985F0F3
:100DF0002A852B3D852C3E852D3F852E40900DCD9F
:100E0000121A5AAA82AB83AC28AD29AE2A8C828DE5
:100E1000838EF0E4120DB48A828B8322C01A8581FE
:100E20001AE51A24F8F540E51A24FBF88628088606
:100E30002908862AE51A24F8F8863D08863E0886A1
:100E40003F900DCD121A5AAA82AB83AC28AD29AEC1
:100E50002A8C828D838EF0E4120DB48A828B83D02B
:100E60001A2212164D30D502B2D1BF0009BC0003C0
:100E700002160F021602BC00030215ECE583B4FF54
:100E80000BE582B4FF0302160F0215ECE582B4FFF6
:100E900003021602C395835007247F400B0215EC12
:100EA0002480145003021602C0E0E4CCCBCAF98DB2
:100EB0004C8E4D8F4EEF54F0C4F54F758306854F21
:100EC000F0EB84F582E9C4F9EAC4FAEBC4FBEC5414
:100ED0000FC47803D6FC18EBD6FB18EAD6FA858245
:100EE000F0EDA4A8F0FD8582F0EEA428FEE435F034
:100EF000F88582F0EFA428FFE435F0F8E99DF9EADF
:100F00009EFAEB9FFBEC98FCAD4CAE4DAF4E30E73C
:100F1000101582E92DF9EA3EFAEB3FFBE43CFC8038
:100F2000EDC082D58398C3E933F9EA33FAEB33FB9A
:100F3000EC33FCC3E99DEA9EEB9FEC9400B3E41311
:100F4000F9D002D0E0C44AFAD003D0E0C44BFBD0C1
:100F500004D0E0F5F0540FC44CFCD082158230F47C
:100F60000FD3EC13FCEB13FBEA13FAE913F9058238
:100F7000E930E70A74012AFAE43BFBE43CFC021581
:100F8000E3852F8285308312229985823EE53E607B
:100F90000A0538E4B5380605398002D205853E8257
:100FA000227A007B003005057850760022C002C00E
:100FB00003120F81AC82D003D002BC0002802DBC92
:100FC00008028014BC09028023BC0A02801EBC0DEA
:100FD000028019BC20218014EA4B60D11ABAFF01AB
:100FE0001B153874FFB53802153980C1EA4B60BD56
:100FF000EA2450F8760022EC7009EA2450F87600D2
:10100000D20522ECB53D07EA2450F8760022C3EA67
:10101000940FEB940050968A058B060ABA00010BD8
:10102000ED2450F8A604020FADAA827B7FC3EA64C8
:101030008094B0401174B98AF063F08095F0400656
:10104000EA24D0FB8030C3EA648094C1401174C6A6
:101050008AF063F08095F0400674C92AFB8017C3BC
:10106000EA648094E1400F74E68AF063F08095F0C2
:10107000400474A92AFBC3EB953A50038B82227576
:10108000827F22AA82753400753500753600753767
:10109000008A00E6FA60148A82C000121029AB822E
:1010A000D000C3EB953A40030880E886038B82C0EA
:1010B00000121029AA82D000C3E53A9A4050853A1E
:1010C0004C754D00754E00754F0085348285358313
:1010D0008536F0E537C002C000122007AB82AC8332
:1010E000ADF0FED000D0028B348C358D368E37E4D7
:1010F000FBFCFDEA2534FAEB3535FBEC3536FCED2F
:101100003537FD8A348B358C368D3708809D853494
:10111000828535838536F0E53722AA8275340075DD
:1011200035007536007537008A00E6FB60228B8239
:10113000C003C000121029AC82D000D003C3EC95CC
:101140003A400DBB2D028008BB2B0280030880DAD9
:1011500088028603BB2D03D38001C39208BB2D02F6
:101160008003BB2B010A8A82121083300813C3E468
:101170009534FAE49535FBE49536FCE49537FD802B
:1011800008AA34AB35AC36AD378A828B838CF0ED50
:101190002285822F858330E4F538F539F53CC20588
:1011A000AA3FAB40AC418A828B838CF0120AF4FDDB
:1011B00074012AF53FE43BF5408C41EDFA700302DF
:1011C000159ABA25028003021533D204C202753A79
:1011D00000753B00C206C207AB3FAC40AD418B82FD
:1011E0008C838DF0120AF4FAA3AB82AC838B3F8C14
:1011F000408D418B828C838DF0120AF4F53D8A0676
:10120000BE300040168A06EE24C6400FE53B75F05E
:101210000AA4FEEA24D02EF53B80C38A06BE6100F4
:10122000400A8A06EE248540035302DFBA25028075
:10123000ADBA2A028057BA42028048BA43028052AD
:10124000BA4403021356BA450302136CBA460302AA
:10125000136CBA470302136CBA4903021356BA4C13
:10126000028025BA4E030213C1BA4F0302135CBABF
:1012700053028020BA5503021354BA580302136470
:101280000213E9D2020211DED2030211DED20602FB
:1012900011DED207200617E54224FDF888428603B6
:1012A00008860408860518188B318C328D33E53B8F
:1012B000700B3007047B0180027BFF8B3B753A008B
:1012C000C3E53A953B5005120F81AA82300507E528
:1012D0003A70030213E9EA601ABA2002800DBA09D3
:1012E000028008BA0D028003BA0A03300705E53B05
:1012F000B53A1FE53A60C9200612053CAB31AC3265
:10130000AD338B828C838DF0E4120DB4753A0002FC
:1013100013E9BA081CE53A60A7200611AB31AC32DC
:10132000AD331BBBFF011C8B318C328D33153A80E2
:101330008F20061BAB31AC32AD338B828C838DF0AA
:10134000EA120DB40BBB00010C8B318C328D3305CE
:101350003A0212C0C204753A0A0213E9C204753A8D
:10136000080213E9C204753A100213E9120FA178BA
:1013700050E66075200672E54224FDF888428643F7
:1013800008864408864518188543318544328545CA
:101390003390005075F040122075AE82AF83ABF0F1
:1013A000FC8543828544838545F0EE120DB4A3EF9E
:1013B000120DB4A3EB120DB4A3EC120DB4053C80D6
:1013C00028E54224FDF8884286030886040886053D
:1013D00018188B318C328D338B828C838DF0E538ED
:1013E000120DB4A3E539120DB4E53A7003021533BA
:1013F000120FA17850E67003021533300603021570
:1014000033E54224FDF888428603088604088605F1
:1014100018188B318C328D33053C2004030214AC38
:10142000300335853143853244853345758250120A
:10143000111AAE82AF83ABF0FC854382854483856D
:1014400045F0EE120DB4A3EF120DB4A3EB120DB4E0
:10145000A3EC120DB40215333002268531438532D8
:101460004485334575825012111AAE82AF83ABF0BA
:10147000FC8543828544838545F0EE120DB4021548
:101480003385314385324485334575825012111AB4
:10149000AE82AF83ABF0FC8543828544838545F003
:1014A000EE120DB4A3EF120DB402153330033485E0
:1014B0003143853244853345758250121083AE82A4
:1014C000AF83ABF0FC8543828544838545F0EE1203
:1014D0000DB4A3EF120DB4A3EB120DB4A3EC120DD7
:1014E000B4805030022585314385324485334575BB
:1014F0008250121083AE82AF83ABF0FC85438285AD
:1015000044838545F0EE120DB48028853143853241
:1015100044853345758250121083AE82AF83ABF0A1
:10152000FC8543828544838545F0EE120DB4A3EF1C
:10153000120DB42005030211A0AB3FAC40AD418BAE
:10154000828C838DF0120AF4FEA3AB82AC838B3FB6
:101550008C408D41EEFA70030211A0BA25E18B8216
:101560008C838DF0120AF4FABA6E028003BA4ECF61
:10157000E54224FDF8884286020886060886071898
:10158000188A318E328F338A828E838FF0E538123B
:101590000DB4A3E539120DB480A5AA3C7B008A8264
:1015A0008B8322AA82BA0A0810990280FB75990DD2
:1015B00010990280FB8A9922FCABF0AA83A982745D
:1015C0009EC2D1F58212161A0215CBB98003EA1316
:1015D000B34010EA2401FAE43BFBE43CFC50047CF9
:1015E000800582BC000EBB000BBA0008E4F5F0F5E4
:1015F00083F58222A2D1E582138CF092F78B838A45
:101600008222E4F583F58275F080F4A2D11322E4FE
:10161000F583F58275F0C0747F227804EC7011E5D3
:101620008224F8500AF582E4C9CACBFCD8EF22EC38
:101630007820058220E713D5820122C3E933F9EA35
:1016400033FAEB33FBEC33FCD8EA158222AA82ABE7
:1016500083A2F73392D16002D2F7F582ACF0E58134
:1016600024F9F8E6FD08E6FE0886F008E6A2F7335E
:1016700092D56002D2F7F583AFF022AA82748CC0B3
:10168000E07416C0E0C02FC0308A82220536E4B56F
:101690003602053722AA8274302AFA24C6500A7408
:1016A000072AFA3009034302208A8202167BE58268
:1016B000FAC4540FF582C002121695D002740F5A64
:1016C000F582021695AA31AB32AC33AD34AE357526
:1016D0003C20EE2EFEED235401FF4206EA2AFAEBEF
:1016E00033FBEC33FCED33FDC3EE95384008EEC31D
:1016F0009538FE430201D53CD98A318B328C338D2B
:10170000348E3522785CE624D075F00AA4FA785D30
:10171000E624D02AFA785B8603BB2D04C3E49AFA48
:10172000753801C3E464808AF063F08095F0502935
:10173000753C038A0374F6253C401C0538E53C14CF
:101740002450F8E53C2450F98704A604772E1BEBBF
:10175000FA6004053C80DE8B02EA30E70D785186A2
:10176000037852A6037851762E0AE53A600AE53AE4
:1017700004FB2538F538800530140205387850868A
:1017800003E4BB2D0104FB7006200F03301002059B
:1017900038300D0302184B300E57EB600C75822D5C
:1017A000C00212167BD002801C300F0C75822BC039
:1017B0000212167BD002800D30100A758220C00202
:1017C00012167BD00278518604BC2E0C758230C074
:1017D0000212167BD0021539AC391539C3E5389C95
:1017E000400302188F758230C00212167BD002802F
:1017F000E7AC391539C3E5389C500C758220C0021E
:1018000012167BD00280EA78508604BC2D0C7582BB
:101810002DC00212167BD002801C300F0C75822B5B
:10182000C00212167BD002800D30100A758220C0D3
:101830000212167BD00278518604BC2E527582307B
:10184000C00212167BD00215398044EB600E7582FF
:101850002DC00212167BD00215398020300F0E7574
:10186000822BC00212167BD0021539800F30100C6B
:10187000758220C00212167BD0021539785186037A
:10188000BB2E0C758230C00212167BD00215397542
:101890003C01C216E53C2450F88603BB45030219FF
:1018A0004CBB2E348A03C3E464808BF063F08095D4
:1018B000F0500F758230C00312167BD0031B8B02D1
:1018C00080E48B02D216E53A703820140302194CDA
:1018D00075822E12167B80743016278A03EB30E750
:1018E0001FC3E46480853AF063F08095F0500C7576
:1018F0008230C00312167BD003153A0B8B0280DDB9
:101900008B0230160EC3E46480853AF063F0809554
:10191000F05021E53C2450F886038B82C002121659
:101920007BD00230160EE53C2450F88603BB2E0215
:101930008002153A1539C3E46480853AF063F0807B
:1019400095F04003201605053C021894C3E464801A
:10195000853AF063F08095F0500A75823012167B5C
:10196000153A80E8300D0FAA391539EA60087582FA
:101970002012167B80F122E53A700330140D7407B3
:10198000253AFAE539C39AF5398006E53924FAF59E
:1019900039753C0078508602BA2B0F200F0C785016
:1019A0007620201005753C010539200D19AA39C390
:1019B000E464808AF063F08095F0500A758220120A
:1019C000167B153980E7C216E53C2450F88602BA2A
:1019D00000028069BA451F3009027665C3E464805D
:1019E000853AF063F08095F0500A75823012167BCC
:1019F000153A80E8D216C3E53C9402E433FA701439
:101A0000EA700EC3E46480853AF063F08095F0409C
:101A100003301616E53C2450F886028A8212167BA3
:101A2000E53C24FD5012153A800E7402B53C093095
:101A3000140675822E12167B053C0219C8300D194A
:101A4000AA39C3E464808AF063F08095F0500A7587
:101A5000822012167B153980E72285822F858330FC
:101A6000E4F536F537AA3DAB3EAC3F8A828B838CDA
:101A7000F0120AF4FD74012AF53DE43BF53E8C3F7B
:101A8000EDFA7003022000BA25028003021FF8C29B
:101A90000DC20EC20FC210C211C212C213C214C2B2
:101AA0000AC20BC20C753800753900753AFFAB3DA0
:101AB000AC3EAD3F8B828C838DF0120AF4FAA3AB5F
:101AC00082AC838B3D8C3E8D3FBA25078A821216ED
:101AD0007B80928A06BE3000402E8A06EE24C640E5
:101AE0002774FFB53A13E53975F00AA4FEEA24D04D
:101AF0002EF53970BFD20E80BBE53A75F00AA4FE10
:101B0000EA24D02EF53A80ACBA2E0A74FFB53AA476
:101B1000753A00809F8A06BE6100400E8A06EE2458
:101B20008540075302DFD2098002C209BA20028031
:101B300075BA2303021BB5BA2A03021BBABA2B02D9
:101B4000805FBA2D028055BA4202805FBA43030219
:101B50001BFFBA4403021D3ABA4503021D54BA469C
:101B600003021D50BA4703021D58BA4903021D3A29
:101B7000BA4C02803BBA4E03021D5CBA4F03021DF1
:101B800041BA5003021CD3BA5303021C23BA5503B3
:101B9000021D46BA5803021D4B021D86D20D021AC1
:101BA000B4D20F021AB4D210021AB4D212021AB46A
:101BB000D213021AB4D214021AB474FFB53A203008
:101BC000120BE54014F888408639021AB4E5402427
:101BD000FEF888408606088607188E39021AB43047
:101BE000120BE54014F88840863A021AB4E5402406
:101BF000FEF888408606088607188E3A021AB43026
:101C0000120AE54014F888408602800FE54024FE61
:101C1000F888408603088604188B028A8212167B95
:101C2000021D8BE54024FDF88840860308860408E1
:101C3000860518188B318C328D338B828C838DF016
:101C40001223BAAB82AC838B3B74FFB53A03853B5E
:101C50003A200D1DC3E53B95395016E539C3953B38
:101C6000F539AB391539EB600875822012167B8087
:101C7000F18531828532838533F0120AF4FBFA60F4
:101C800029AB3A153AC3E464808BF063F08095F099
:101C900050188A8212167BAB31AC32AD330BBB00CD
:101CA000010C8B318C328D3380C7200D03021D8BCC
:101CB000C3E53B95394003021D8BE539C3953BF5E0
:101CC00039AB391539EB7003021D8B758220121662
:101CD0007B80EEE54024FDF88840860308860408F2
:101CE000860518188B318C328D33E533FB30E704D1
:101CF0007A438013EB546060047A50800AEB30E63C
:101D0000047A4980027A588A82C00212167B758250
:101D10003A12167B75823012167B75827812167B0A
:101D2000D002BA4902800BBA500280068532821274
:101D300016AE8531821216AE8051D21175380A80E6
:101D40004A753808804575380A8040753810803BE0
:101D5000D20A8037D20B8033D20C802FE54024FD8D
:101D6000F88840860308860408860518188B318C8D
:101D7000328D338B828C838DF0E536120DB4A3E562
:101D800037120DB480058A8212167B200A06200BBA
:101D900003300C70E54024FCF88840860308860474
:101DA0000886050886061818188B318C328D338EFC
:101DB00034E531E532E533E5348B828C838DF0EE0A
:101DC00012229B74FFB53A03753A06300C27747FD4
:101DD0005534FB8B35E535EB2BFB8B35E53330E7A5
:101DE0000674014535F535E53524684006749925B6
:101DF000354002D20B300B06121977021A65121702
:101E000004021A65E5387003021A657B5530122BFF
:101E1000E54014F88840E6FC3395E0FDFEFF8C3188
:101E20008D328E338F3420115EAC317D007E007F89
:101E3000008C318D328E338F34804C30131FE5404F
:101E400024FCF8884086040886050886060886076C
:101E50001818188C318D328E338F34802AE5402447
:101E6000FEF88840860408860518ED3395E0FEFFED
:101E70008C318D328E338F3420110CAC31AD327EEB
:101E8000007F008E338F34301443E53145324533C3
:101E9000453460397408B5380C758230C0031216A9
:101EA0007BD00380287410B53823758230C00312AC
:101EB000167BD00330090C758278C00312167BD0D4
:101EC00003800A758258C00312167BD00330112597
:101ED000AC31AD32AE33E534FF30E717C3E49CFCE0
:101EE000E49DFDE49EFEE49FFF8C318D328E338FA6
:101EF000348002C211753B00D2158B00753500C0CD
:101F0000001216C5D00020150DE535C4FCE6FD4CC9
:101F1000F61888038002A635053BB215E531453237
:101F20004533453470D68803E5397003753901208F
:101F30000E1A200D17E53B04FCC39539500E75822F
:101F400020C00312167BD003153980E930110E75BD
:101F5000822DC00312167BD00315398024E53B6027
:101F600020300F0E75822BC00312167BD00315395B
:101F7000800F30100C758220C00312167BD0031521
:101F800039200D1EAC391539C3E53B9C5027300E66
:101F9000047C3080027C208C82C00312167BD0032C
:101FA00080E2C3E53B95395009E539C3953BF539E6
:101FB00080037539008B00AB3B153BEB6022B215FB
:101FC00020150A08E6C4540FFB8B3580078603747E
:101FD0000F5BF535853582C000121695D00080D78D
:101FE000200D03021A65AB391539EB7003021A652F
:101FF00075822012167B80EE8A8212167B021A6589
:1020000085368285378322AAF0FBE582854CF0A4D1
:10201000FCADF0E583854CF0A42DFDE435F0FEE544
:1020200082854DF0A42DFDE5F03EFEE433FFEA8508
:102030004CF0A42EFEE5F03FFFE583854DF0A42E85
:10204000FEE5F03FFFE582854EF0A42EFEE5F03F71
:10205000FFEB854CF0A42FFFEA854DF0A42FFFE5A0
:1020600083854EF0A42FFFE582854FF0A42F8EF0DC
:102070008D838C8222AA82AB83ACF0754A00754BAB
:1020800000C2198A058B068C078D828E838FF01211
:102090000AF4F8B820028003B809070DBD00EA0E63
:1020A00080E78D028E038F04B82D0DD21774012D99
:1020B000FAE43EFB8F04800EC217B82B0974012D81
:1020C000FAE43EFB8F0475460075470075480075BD
:1020D00049008A058B068C078D828E838FF0120A49
:1020E000F4F8F9B930004005E824C650128D828E0C
:1020F000838FF0120AF4F8B82E0280030221AA8D11
:10210000828E838FF0120AF4F9B92E05D2190221BA
:10211000A2C005C006C007C005C006C007C001C0F8
:1021200046C047C048C04990000075F02074411275
:102130000B1C85824685834785F048F549E5812457
:10214000FCF581D001D007D006D005E93395E0FD3C
:10215000E924D0F582ED34FFF58312243BAD82AE45
:1021600083AFF0F9C005C006C007C005C006C007B0
:10217000C0018546828547838548F0E5491223E200
:1021800085824685834785F048F549E58124FCF53D
:1021900081D007D006D005D007D006D0053019026F
:1021A000154A0DBD00010E0220D85300DF8D828E2E
:1021B000838FF0E8120DB4B8456274012DFAE43E45
:1021C000FB8F048A828B838CF0120AF4FDBD2D09EB
:1021D000D2180ABA000D0B800AC218BD2B050ABA24
:1021E00000010B754B008A828B838CF0120AF4FD80
:1021F000FEBE3000401D8D06EE24C64016E54B7530
:10220000F00AA4F54BED24D0254BF54B0ABA00D6C5
:102210000B80D3301806C3E4954BF54BE54A254BAC
:10222000F54BE54B6055E54B30E728C046C047C04D
:1022300048C04990CCCD75F0CC743D120B1C858202
:102240004685834785F048F549E58124FCF58105FD
:102250004B80CFC046C047C048C04990000075F0D1
:10226000207441120B1C85824685834785F048F512
:1022700049E58124FCF581154B80A730170F854671
:1022800046854747854848E549B2E7F5498546828E
:102290008547838548F0E54922E473C0E0F845822C
:1022A000458345F07009F5F0FBFCFDFE022369E86B
:1022B00023A2F792E0F8A982AA83D2F7ABF07C00C0
:1022C0007E07C3749798404074FF2EFE740A89F00D
:1022D000A4F985F082740A8AF0A4FA85F083740A5E
:1022E0008BF0A4FB740529F9EA3582FAEB3583FB00
:1022F000740035F0FCC3EC13FCEB13FBEA13FAE9B2
:1023000013F908EC70EF80BAE8C3947FF88B838EE2
:10231000F0E4FBFCFDFEFF08C3E933F9EA33FAE51C
:102320008333F583EB3BD4FBEC3CD4FCED3DD4FD97
:10233000EE3ED4FEEF3FD4FF602D05F074052BD4A4
:10234000FBE43CD4FCE43DD4FDE43ED4FEE43FD4C5
:10235000FF758204C3EF13FFEE13FEED13FDEC13C4
:10236000FCEB13FBD582EDD8AF7850D0E020E7042A
:10237000762B8002762D087906E7C4540F4430F698
:1023800008B90603762E08E7540F4430F60819B949
:1023900002E7764508E5F020E704762B8004762DE9
:1023A000F4040875F00A844430F608E5F04430F689
:1023B00008E4F690005075F04022AA82AB83ACF09E
:1023C0007D007E008A828B838CF0120AF4FFA3AA20
:1023D00082AB83EF60070DBD00EA0E80E78D828E31
:1023E000832212164D7900E583B58202800D5003D9
:1023F000122448E583C39582122462E5D0C465D0D7
:1024000020E117EA2DFAEB3EFBEC3FFC500974018A
:10241000122462EC4480FC0215CBC3EA9DFAEB9EC9
:10242000FBEC9FFC500FC3E499F9E49AFAE49BFBA0
:10243000E49CFCB2D112161A0215CBAC83AB827AA3
:10244000007900748E0224AEE582C583F582A2D1A4
:1024500033A2D592D11392D5ECCFFCEBCEFBEACDD3
:10246000FA226040F82582500274FFF582E824F8D1
:10247000501ECCCBCAF9E4CC24F85014CBCAF9E4F2
:10248000CB24F8500BCAF9E4CA24F850037900228F
:1024900024086010F8C3EC13FCEB13FBEA13FAE911
:1024A00013F9D8F122FCABF0AA83A982749EF582BD
:1024B000C2D1EC30E716D2D1E9F42401F9EAF434C0
:1024C00000FAEBF43400FBECF43400FC12161A02B0
:1024D00015CB00000000000000000000000000001C
:00000001FF
