:1000000002002E7524002200000000000000000005
:1000200000000000000000000000000202C4758112
:1000300067120108E582600302009A780079007A6D
:10004000007B007C007D00EC4D601C88828983E48D
:1000500093A3A882A9838A828B83F0A3AA82AB830D
:100060001CBCFFE31D80E07582007583007C007D71
:1000700000EC4D600AE4F0A31CBCFFF51D80F27596
:1000800082007583007C007D00EC4D600AE4F0A3E3
:100090001CBCFFF51D80F212000312031980FE1B29
:1000A0005B324A0053717561726520776176652015
:1000B00067656E657261746F7220666F7220746816
:1000C000652045464D384C42312E0D0A4368656324
:1000D0006B2070696E732050322E3020616E642068
:1000E00050322E31207769746820746865206F73F0
:1000F00063696C6C6F73636F70652E0D0A00256405
:100100002025640025660A0075A7007597DE75979F
:10011000AD75FF8075EF0675A71075C12075A70036
:1001200075A90075A900E5A930E7FB75A90375A9B4
:1001300003E5A930E7FB43A41075E10175E2007502
:10014000E340759810758DE6858D8B53890F438933
:1001500020D28ED29975C800438E1075CAE075CB37
:10016000E375CEFF75CFFFD2ADD2CAD2AF75820094
:100170002285822B85832C85F02DE4F52EF52FE545
:100180002924FFFFE52A34FFF879007A00C3E99FAC
:10019000EA648088F063F08095F05059C002C0078F
:1001A000C000C00112050DAB82D001D000D007D035
:1001B00002BB0A028003BB0D1DE52E252BFCE52F9B
:1001C000352CFDAE2D8C828D838EF0E412052085BA
:1001D0002E82852F8322E9252BFCEA352CFDAE2DBE
:1001E0008C828D838EF0EB12052009B900010A89FB
:1001F0002E8A2F8098E52E252BFAE52F352CFBAC87
:100200002D8A828B838CF0E4120520852982852A31
:100210008322AA828517F005F07401800225E0D5BB
:10022000F0FBFB75A720BA0002800ABA0102800F1A
:10023000BA021E8014EBF4FA52F1EB42D48012EBB6
:10024000F4FA52F2EB42D58008EBF4FA52F3EB42A7
:10025000CC75A700228582BBD2EC20ECFDD2EC202D
:10026000ECFD85BD8285BE8322120255120428AAA8
:1002700082AB83ACF0FDC002C003C004C005906C2B
:100280008B75F0537440120434AA82AB83ACF0FD3A
:10029000E58124FCF581E4C0E074FCC0E0747FC01B
:1002A000E07446C0E08A828B838CF0ED120539AA97
:1002B00082AB83ACF0FDE58124FCF5818A828B83DF
:1002C0008CF0ED22C0E0C0F0C002C003C0D075D0F9
:1002D00000C2CF0524E524249B5003752400AA24E2
:1002E0007B00C3E5259AE52664808BF063F080955A
:1002F000F09200B39295AA247B00C3E5279AE528E3
:1003000064808BF063F08095F09200B39296D0D029
:10031000D003D002D0F0D0E032E4F527F528F5176D
:10032000758201120212749FC0E07400C0E07480F4
:10033000C0E01204EC15811581158174A4C0E0742D
:1003400000C0E07480C0E01204EC158115811581B5
:10035000752911E4F52A90003075F040120171748E
:1003600027C0E07400C0E07440C0E07425C0E074B1
:1003700000C0E07440C0E074FEC0E07400C0E074EF
:1003800080C0E07430C0E07400C0E07440C0E0128F
:1003900003FAE58124F4F581758206120269AA82C6
:1003A000AB83ACF0FDC002C003C004C0057404C040
:1003B000E07401C0E07480C0E01204ECE58124F92F
:1003C000F581808CAA08AB09AC0A8A828B838CF0F9
:1003D000120658FA0508E4B5080205098A82228542
:1003E000820885830985F00A850B51850C52850D9D
:1003F00053850E549003C4020884C00F85810FE515
:100400000F24F8F554E50F24FBF886080886090840
:10041000860AE50F24F8F88651088652088653901C
:1004200003C4120884D00F22E4AC83AB82FAF974BF
:100430008E020C9F120D2BBC0003020CCAEF60FA57
:1004400030D502B2D1E583B4FF03020CE0E582B4FB
:10045000FF03020CE0258340072482400B020CCAF4
:100460002483145003020CE0F582EA8DF0A4A8F076
:10047000EA8EF0A428F8E435F0F9EB8DF0A428E931
:1004800035F0F9E433CA8FF0A429F9EA35F0FAEB34
:10049000F88EF0A429F9EA35F0FAE433FBEC8DF09C
:1004A000A429F9EA35F0FAE43BFBE88FF0A42AFA34
:1004B000EB35F0FBE433CCFD8EF0A42AFAEB35F0FB
:1004C000FBE43CFCED8FF0A42BFBEC35F0FC20E7CB
:1004D00003120CF8020CA90216E585824F858350A1
:1004E00085F0518510529004D7021138C00F8581D4
:1004F0000FE50F24FBF552E50F24FBF8864F088625
:10050000500886519004D7121138D00F221098024B
:1005100080FBAA998A82C0021216E5D0028A822242
:1005200020F71030F6118883A88220F507F6A883FB
:1005300075830022F280F7F022120D2B30D502B223
:10054000D1BF0009BC0003020CED020CE0BC0003AB
:10055000020CCAE583B4FF0BE582B4FF03020CED85
:10056000020CCAE582B4FF03020CE0C39583500776
:10057000247F400B020CCA2480145003020CE0C0FC
:10058000E0E4CCCBCAF98D178E188F19EF54F0C464
:10059000F51A758306851AF0EB84F582E9C4F9EA49
:1005A000C4FAEBC4FBEC540FC47803D6FC18EBD6AA
:1005B000FB18EAD6FA8582F0EDA4A8F0FD8582F05A
:1005C000EEA428FEE435F0F88582F0EFA428FFE4DD
:1005D00035F0F8E99DF9EA9EFAEB9FFBEC98FCAD4B
:1005E00017AE18AF1930E7101582E92DF9EA3EFA77
:1005F000EB3FFBE43CFC80EDC082D58398C3E9333C
:10060000F9EA33FAEB33FBEC33FCC3E99DEA9EEBEA
:100610009FEC9400B3E413F9D002D0E0C44AFAD0BE
:1006200003D0E0C44BFBD004D0E0F5F0540FC44C31
:10063000FCD082158230F40FD3EC13FCEB13FBEAF1
:1006400013FAE913F90582E930E70A74012AFAE49A
:100650003BFBE43CFC020CC120F71430F614888309
:10066000A88220F507E6A88375830022E280F7E4DC
:100670009322E02285418285428312198C85825023
:10068000E550600A054AE4B54A06054B8002D204EB
:10069000855082227A007B0030040578587600224B
:1006A000C002C003120674AC82D003D002BC0002A8
:1006B000802DBC08028014BC09028023BC0A028081
:1006C0001EBC0D028019BC20218014EA4B60D11A97
:1006D000BAFF011B154A74FFB54A02154B80C1EAE7
:1006E0004B60BDEA2458F8760022EC7009EA2458E1
:1006F000F87600D20422ECB54F07EA2458F87600C9
:1007000022C3EA940FEB940050968A058B060ABA2E
:1007100000010BED2458F8A6040206A0AA827B7FF4
:10072000C3EA648094B0401174B98AF063F0809594
:10073000F04006EA24D0FB8030C3EA648094C140D4
:100740001174C68AF063F08095F0400674C92AFBE4
:100750008017C3EA648094E1400F74E68AF063F086
:100760008095F0400474A92AFBC3EB954C50038B91
:10077000822275827F22AA827546007547007548DD
:10078000007549008A00E6FA60148A82C0001207E8
:100790001CAB82D000C3EB954C40030880E8860375
:1007A0008B82C00012071CAA82D000C3E54C9A407D
:1007B00050854C17751800751900751A008546820A
:1007C0008547838548F0E549C002C0001216FAABA0
:1007D00082AC83ADF0FED000D0028B468C478D48B2
:1007E0008E49E4FBFCFDEA2546FAEB3547FBEC3588
:1007F00048FCED3549FD8A468B478C488D49088079
:100800009D8546828547838548F0E54922AA827501
:1008100046007547007548007549008A00E6FB6090
:10082000228B82C003C00012071CAC82D000D00310
:10083000C3EC954C400DBB2D028008BB2B028003FE
:100840000880DA88028603BB2D03D38001C3920798
:10085000BB2D028003BB2B010A8A82120776300768
:1008600013C3E49546FAE49547FBE49548FCE49508
:1008700049FD8008AA46AB47AC48AD498A828B83C4
:100880008CF0ED22858241858342E4F54AF54BF5F3
:100890004EC204AA51AB52AC538A828B838CF012A5
:1008A0000658FD74012AF551E43BF5528C53EDFADC
:1008B0007003020C8DBA25028003020C26D203C2FB
:1008C00001754C00754D00C205C206AB51AC52AD6E
:1008D000538B828C838DF0120658FAA3AB82AC83C3
:1008E0008B518C528D538B828C838DF0120658F570
:1008F0004F8A06BE300040168A06EE24C6400FE539
:100900004D75F00AA4FEEA24D02EF54D80C38A0668
:10091000BE6100400A8A06EE248540035302DFBA16
:10092000250280ADBA2A028057BA42028048BA43F3
:10093000028052BA4403020A49BA4503020A5FBA66
:100940004603020A5FBA4703020A5FBA4903020A72
:1009500049BA4C028025BA4E03020AB4BA4F0302C8
:100960000A4FBA53028020BA5503020A47BA580305
:10097000020A57020ADCD2010208D1D2020208D1CF
:10098000D2050208D1D206200517E55424FDF888C7
:1009900054860308860408860518188B438C448DFA
:1009A00045E54D700B3006047B0180027BFF8B4DCB
:1009B000754C00C3E54C954D5005120674AA823063
:1009C0000407E54C7003020ADCEA601ABA200280D0
:1009D0000DBA09028008BA0D028003BA0A03300674
:1009E00005E54DB54C1FE54C60C9200512054EAB21
:1009F00043AC44AD458B828C838DF0E412052075A9
:100A00004C00020ADCBA081CE54C60A7200511ABBB
:100A100043AC44AD451BBBFF011C8B438C448D454F
:100A2000154C808F20051BAB43AC44AD458B828CAD
:100A3000838DF0EA1205200BBB00010C8B438C4424
:100A40008D45054C0209B3C203754C0A020ADCC28B
:100A500003754C08020ADCC203754C10020ADC1252
:100A600006947858E66075200572E55424FDF888F0
:100A70005486550886560886571818855543855656
:100A80004485574590005875F040121768AE82AF04
:100A900083ABF0FC8555828556838557F0EE1205B1
:100AA00020A3EF120520A3EB120520A3EC120520D2
:100AB000054E8028E55424FDF888548603088604F2
:100AC00008860518188B438C448D458B828C838D4A
:100AD000F0E54A120520A3E54B120520E54C700312
:100AE000020C261206947858E67003020C26300594
:100AF00003020C26E55424FDF88854860308860476
:100B000008860518188B438C448D45054E20030339
:100B1000020B9F30023585435585445685455775F0
:100B2000825812080DAE82AF83ABF0FC85558285EA
:100B300056838557F0EE120520A3EF120520A3EB94
:100B4000120520A3EC120520020C26300126854355
:100B50005585445685455775825812080DAE82AFAB
:100B600083ABF0FC8555828556838557F0EE1205E0
:100B700020020C2685435585445685455775825875
:100B800012080DAE82AF83ABF0FC8555828556838B
:100B90008557F0EE120520A3EF120520020C263037
:100BA000023485435585445685455775825812074A
:100BB00076AE82AF83ABF0FC855582855683855730
:100BC000F0EE120520A3EF120520A3EB120520A3DF
:100BD000EC1205208050300125854355854456850B
:100BE0004557758258120776AE82AF83ABF0FC850D
:100BF00055828556838557F0EE120520802885435F
:100C000055854456854557758258120776AE82AF92
:100C100083ABF0FC8555828556838557F0EE12052F
:100C200020A3EF120520200403020893AB51AC521D
:100C3000AD538B828C838DF0120658FEA3AB82AC31
:100C4000838B518C528D53EEFA7003020893BA25B0
:100C5000E18B828C838DF0120658FABA6E02800303
:100C6000BA4ECFE55424FDF888548602088606085B
:100C7000860718188A438E448F458A828E838FF0A8
:100C8000E54A120520A3E54B12052080A5AA4E7B5C
:100C9000008A828B8322FCABF0AA83A982749EC255
:100CA000D1F582120CF8020CA9B98003EA13B34003
:100CB00010EA2401FAE43BFBE43CFC50047C800590
:100CC00082BC000EBB000BBA0008E4F5F0F583F51A
:100CD0008222A2D1E582138CF092F78B838A822242
:100CE000E4F583F58275F080F4A2D11322E4F58354
:100CF000F58275F0C0747F227804EC7011E58224CF
:100D0000F8500AF582E4C9CACBFCD8EF22EC78206F
:100D1000058220E713D5820122C3E933F9EA33FAC9
:100D2000EB33FBEC33FCD8EA158222AA82AB83A218
:100D3000F73392D16002D2F7F582ACF0E58124F965
:100D4000F8E6FD08E6FE0886F008E6A2F73392D53D
:100D50006002D2F7F583AFF022AA82746AC0E07411
:100D60000DC0E0C041C0428A82220548E4B5480275
:100D7000054922AA8274302AFA24C6500A74072A26
:100D8000FA3008034302208A82020D59E582FAC430
:100D9000540FF582C002120D73D002740F5AF582FF
:100DA000020D73AA43AB44AC45AD46AE47754E2029
:100DB000EE2EFEED235401FF4206EA2AFAEB33FB46
:100DC000EC33FCED33FDC3EE954A4008EEC3954A83
:100DD000FE430201D54ED98A438B448C458D468E05
:100DE00047227864E624D075F00AA4FA7865E624F0
:100DF000D02AFA78638603BB2D04C3E49AFA754AB5
:100E000001C3E464808AF063F08095F05029754E48
:100E1000038A0374F6254E401C054AE54E142458F7
:100E2000F8E54E2458F98704A604772E1BEBFA60E8
:100E300004054E80DE8B02EA30E70D785986037890
:100E40005AA6037859762E0AE54C600AE54C04FB55
:100E5000254AF54A8005301302054A78588603E48E
:100E6000BB2D0104FB7006200E03300F02054A3033
:100E70000C03020F29300D57EB600C75822DC00258
:100E8000120D59D002801C300E0C75822BC002123C
:100E90000D59D002800D300F0A758220C002120D4C
:100EA00059D00278598604BC2E0C758230C00212CB
:100EB0000D59D002154BAC4B154BC3E54A9C400372
:100EC000020F6D758230C002120D59D00280E7AC5E
:100ED0004B154BC3E54A9C500C758220C002120D85
:100EE00059D00280EA78588604BC2D0C75822DC03A
:100EF00002120D59D002801C300E0C75822BC002DC
:100F0000120D59D002800D300F0A758220C00212D6
:100F10000D59D00278598604BC2E52758230C00219
:100F2000120D59D002154B8044EB600E75822DC016
:100F300002120D59D002154B8020300E0E75822BF7
:100F4000C002120D59D002154B800F300F0C758264
:100F500020C002120D59D002154B78598603BB2EC2
:100F60000C758230C002120D59D002154B754E011E
:100F7000C215E54E2458F88603BB450302102ABB70
:100F80002E348A03C3E464808BF063F08095F050C4
:100F90000F758230C003120D59D0031B8B0280E401
:100FA0008B02D215E54C703820130302102A75828B
:100FB0002E120D5980743015278A03EB30E71FC3BA
:100FC000E46480854CF063F08095F0500C758230BD
:100FD000C003120D59D003154C0B8B0280DD8B0220
:100FE00030150EC3E46480854CF063F08095F050BA
:100FF00021E54E2458F886038B82C002120D59D089
:101000000230150EE54E2458F88603BB2E028002EE
:10101000154C154BC3E46480854CF063F08095F06B
:101020004003201505054E020F72C3E46480854C11
:10103000F063F08095F0500A758230120D59154C0E
:1010400080E8300C0FAA4B154BEA6008758220121D
:101050000D5980F122E54C700330130D7407254CB7
:10106000FAE54BC39AF54B8006E54B24FAF54B7530
:101070004E0078588602BA2B0F200E0C7858762036
:10108000200F05754E01054B200C19AA4BC3E464D3
:10109000808AF063F08095F0500A758220120D5915
:1010A000154B80E7C215E54E2458F88602BA0002B7
:1010B0008069BA451F3008027665C3E46480854CB8
:1010C000F063F08095F0500A758230120D59154C7E
:1010D00080E8D215C3E54E9402E433FA7014EA7046
:1010E0000EC3E46480854CF063F08095F0400330DB
:1010F0001516E54E2458F886028A82120D59E54EDF
:1011000024FD5012154C800E7402B54E09301306A2
:1011100075822E120D59054E0210A6300C19AA4BDD
:10112000C3E464808AF063F08095F0500A758220F1
:10113000120D59154B80E722858241858342E4F5E3
:1011400048F549AA4FAB50AC518A828B838CF01280
:101150000658FD74012AF54FE43BF5508C51EDFA29
:1011600070030216DEBA250280030216D6C20CC234
:101170000DC20EC20FC210C211C212C213C209C2E6
:101180000AC20B754A00754B00754CFFAB4FAC5053
:10119000AD518B828C838DF0120658FAA3AB82ACD2
:1011A000838B4F8C508D51BA25078A82120D59803E
:1011B000928A06BE3000402E8A06EE24C64027746E
:1011C000FFB54C13E54B75F00AA4FEEA24D02EF5CA
:1011D0004B70BFD20D80BBE54C75F00AA4FEEA242B
:1011E000D02EF54C80ACBA2E0A74FFB54CA4754CC9
:1011F00000809F8A06BE6100400E8A06EE2485406C
:10120000075302DFD2088002C208BA20028075BAF2
:101210002303021293BA2A03021298BA2B02805FA8
:10122000BA2D028055BA4202805FBA43030212DD32
:10123000BA4403021418BA4503021432BA46030230
:10124000142EBA4703021436BA4903021418BA4CD2
:1012500002803BBA4E0302143ABA4F0302141FBA7B
:1012600050030213B1BA5303021301BA5503021417
:1012700024BA5803021429021464D20C021192D227
:101280000E021192D20F021192D211021192D212B9
:10129000021192D21302119274FFB54C2030110B3F
:1012A000E55214F88852864B021192E55224FEF85A
:1012B00088528606088607188E4B02119230110B51
:1012C000E55214F88852864C021192E55224FEF839
:1012D00088528606088607188E4C02119230110A31
:1012E000E55214F888528602800FE55224FEF888F1
:1012F000528603088604188B028A82120D59021442
:1013000069E55224FDF8885286030886040886059C
:1013100018188B438C448D458B828C838DF0121A68
:10132000ADAB82AC838B4D74FFB54C03854D4C2027
:101330000C1DC3E54D954B5016E54BC3954DF54B34
:10134000AB4B154BEB6008758220120D5980F1856F
:1013500043828544838545F0120658FBFA6029AB29
:101360004C154CC3E464808BF063F08095F050180A
:101370008A82120D59AB43AC44AD450BBB00010C46
:101380008B438C448D4580C7200C03021469C3E550
:101390004D954B4003021469E54BC3954DF54BAB9E
:1013A0004B154BEB7003021469758220120D5980A6
:1013B000EEE55224FDF88852860308860408860567
:1013C00018188B438C448D45E545FB30E7047A4380
:1013D0008013EB546060047A50800AEB30E6047AA4
:1013E0004980027A588A82C002120D5975823A12D7
:1013F0000D59758230120D59758278120D59D0022F
:10140000BA4902800BBA50028006854482120D8CC4
:10141000854382120D8C8051D210754A0A804A751C
:101420004A088045754A0A8040754A10803BD209B7
:101430008037D20A8033D20B802FE55224FDF88802
:1014400052860308860408860518188B438C448D41
:10145000458B828C838DF0E548120520A3E5491267
:10146000052080058A82120D59200906200A0330C2
:101470000B70E55224FCF88852860308860408861F
:10148000050886061818188B438C448D458E46E552
:1014900043E544E545E5468B828C838DF0EE1219D9
:1014A0008E74FFB54C03754C06300B27747F554680
:1014B000FB8B47E547EB2BFB8B47E54530E7067495
:1014C000014547F547E5472468400674992547409C
:1014D00002D20A300A06121055021143120DE2021E
:1014E0001143E54A70030211437B5D30112BE55235
:1014F00014F88852E6FC3395E0FDFEFF8C438D44E2
:101500008E458F4620105EAC437D007E007F008CB0
:10151000438D448E458F46804C30121FE55224FC8B
:10152000F888528604088605088606088607181873
:10153000188C438D448E458F46802AE55224FEF850
:101540008852860408860518ED3395E0FEFF8C432B
:101550008D448E458F4620100CAC43AD447E007FF9
:10156000008E458F46301343E54345444545454687
:1015700060397408B54A0C758230C003120D59D019
:101580000380287410B54A23758230C003120D59A8
:10159000D00330080C758278C003120D59D0038037
:1015A0000A758258C003120D59D003301025AC4380
:1015B000AD44AE45E546FF30E717C3E49CFCE49D2F
:1015C000FDE49EFEE49FFF8C438D448E458F468054
:1015D00002C210754D00D2148B00754700C0001276
:1015E0000DA3D00020140DE547C4FCE6FD4CF61811
:1015F00088038002A647054DB214E543454445459E
:10160000454670D68803E54B7003754B01200D1AD3
:10161000200C17E54D04FCC3954B500E758220C07D
:1016200003120D59D003154B80E930100E75822D31
:10163000C003120D59D003154B8024E54D602030B6
:101640000E0E75822BC003120D59D003154B800F5F
:10165000300F0C758220C003120D59D003154B209A
:101660000C1EAC4B154BC3E54D9C5027300D047C34
:101670003080027C208C82C003120D59D00380E29E
:10168000C3E54D954B5009E54BC3954DF54B800394
:10169000754B008B00AB4D154DEB6022B21420143E
:1016A0000A08E6C4540FFB8B4780078603740F5B60
:1016B000F547854782C000120D73D00080D7200CFB
:1016C00003021143AB4B154BEB70030211437582C0
:1016D00020120D5980EE8A82120D5902114385485D
:1016E0008285498322AA82BA0A0810990280FB7572
:1016F000990D10990280FB8A9922AAF0FBE5828558
:1017000017F0A4FCADF0E5838517F0A42DFDE435BA
:10171000F0FEE5828518F0A42DFDE5F03EFEE433F1
:10172000FFEA8517F0A42EFEE5F03FFFE58385185C
:10173000F0A42EFEE5F03FFFE5828519F0A42EFE11
:10174000E5F03FFFEB8517F0A42FFFEA8518F0A422
:101750002FFFE5838519F0A42FFFE582851AF0A4F9
:101760002F8EF08D838C8222AA82AB83ACF075150C
:1017700000751600C2188A058B068C078D828E8331
:101780008FF0120658F8B820028003B809070DBD83
:1017900000EA0E80E78D028E038F04B82D0DD2165D
:1017A00074012DFAE43EFB8F04800EC216B82B099B
:1017B00074012DFAE43EFB8F04751100751200755B
:1017C00013007514008A058B068C078D828E838F1B
:1017D000F0120658F8F9B930004005E824C6501256
:1017E0008D828E838FF0120658F8B82E0280030285
:1017F000189D8D828E838FF0120658F9B92E05D26E
:1018000018021895C005C006C007C005C006C0076D
:10181000C001C011C012C013C01490000075F020A8
:10182000744112043485821185831285F013F514F6
:10183000E58124FCF581D001D007D006D005E9333D
:1018400095E0FDE924D0F582ED34FFF583121B2EDF
:10185000AD82AE83AFF0F9C005C006C007C005C0B9
:1018600006C007C0018511828512838513F0E51437
:10187000121AD585821185831285F013F514E5813E
:1018800024FCF581D007D006D005D007D006D005BE
:1018900030180215150DBD00010E0217CB5300DFE5
:1018A0008D828E838FF0E8120520B8456274012D79
:1018B000FAE43EFB8F048A828B838CF0120658FD7B
:1018C000BD2D09D2170ABA000D0B800AC217BD2B15
:1018D000050ABA00010B7516008A828B838CF01200
:1018E0000658FDFEBE3000401D8D06EE24C6401693
:1018F000E51675F00AA4F516ED24D02516F5160A9E
:10190000BA00D60B80D3301706C3E49516F516E55A
:10191000152516F516E5166055E51630E728C011B1
:10192000C012C013C01490CCCD75F0CC743D12041D
:101930003485821185831285F013F514E58124FC2A
:10194000F581051680CFC011C012C013C0149000DD
:101950000075F0207441120434858211858312854C
:10196000F013F514E58124FCF581151680A73016D7
:101970000F851111851212851313E514B2E7F514C2
:101980008511828512838513F0E51422E473C0E08B
:10199000F84582458345F07009F5F0FBFCFDFE0239
:1019A0001A5CE823A2F792E0F8A982AA83D2F7ABE7
:1019B000F07C007E07C3749798404074FF2EFE743D
:1019C0000A89F0A4F985F082740A8AF0A4FA85F0F5
:1019D00083740A8BF0A4FB740529F9EA3582FAEBCB
:1019E0003583FB740035F0FCC3EC13FCEB13FBEA0E
:1019F00013FAE913F908EC70EF80BAE8C3947FF8A2
:101A00008B838EF0E4FBFCFDFEFF08C3E933F9EAAB
:101A100033FAE58333F583EB3BD4FBEC3CD4FCEDAC
:101A20003DD4FDEE3ED4FEEF3FD4FF602D05F074B3
:101A3000052BD4FBE43CD4FCE43DD4FDE43ED4FED1
:101A4000E43FD4FF758204C3EF13FFEE13FEED13E2
:101A5000FDEC13FCEB13FBD582EDD8AF7858D0E04A
:101A600020E704762B8002762D087906E7C4540F10
:101A70004430F608B90603762E08E7540F4430F6D2
:101A80000819B902E7764508E5F020E704762B80CF
:101A900004762DF4040875F00A844430F608E5F065
:101AA0004430F608E4F690005875F04022AA82AB64
:101AB00083ACF07D007E008A828B838CF012065806
:101AC000FFA3AA82AB83EF60070DBD00EA0E80E79B
:101AD0008D828E8322120D2B7900E583B5820280E0
:101AE0000D5003121B3BE583C39582121B55E5D0B5
:101AF000C465D020E117EA2DFAEB3EFBEC3FFC5029
:101B0000097401121B55EC4480FC020CA9C3EA9D28
:101B1000FAEB9EFBEC9FFC500FC3E499F9E49AFAB0
:101B2000E49BFBE49CFCB2D1120CF8020CA9AC8340
:101B3000AB827A007900748E021BA1E582C583F521
:101B400082A2D133A2D592D11392D5ECCFFCEBCEA9
:101B5000FBEACDFA226040F82582500274FFF5823C
:101B6000E824F8501ECCCBCAF9E4CC24F85014CBAE
:101B7000CAF9E4CB24F8500BCAF9E4CA24F850039C
:101B800079002224086010F8C3EC13FCEB13FBEA85
:101B900013FAE913F9D8F122FCABF0AA83A98274F5
:101BA0009EF582C2D1EC30E716D2D1E9F42401F9D6
:101BB000EAF43400FAEBF43400FBECF43400FC12E9
:101BC0000CF8020CA900000000000000000000005A
:00000001FF
