:1000000002000375815E1202F2E582600302006F56
:10001000780079007A007B007C007D00EC4D601C4C
:1000200088828983E493A3A882A9838A828B83F040
:10003000A3AA82AB831CBCFFE31D80E07582007520
:1000400083007C007D00EC4D600AE4F0A31CBCFF43
:10005000F51D80F27582007583007C007D00EC4DFB
:10006000600AE4F0A31CBCFFF51D80F21202EC1242
:1000700005F080FE1B5B324A0041444320746573E7
:10008000742070726F6772616D0A46696C653A2000
:1000900025730A436F6D70696C65643A2025732C73
:1000A0002025730A0A00433A5C55736572735C6ECF
:1000B000757361695C4465736B746F705C454C4526
:1000C00043203239315C4D6574616C204465746540
:1000D00063746F725C467265712E630041707220AA
:1000E000203620323032300031383A32353A35312C
:1000F0000054696D657220696E697469616C697A12
:100100006174696F6E20646F6E652E20544D4F448C
:10011000203D2025642C20545230203D2025640AA7
:10012000007265666572656E6365206672657175DD
:10013000656E6379203D2025660A000A00636F6DB5
:1001400062696E65642066203D202566487A0D0050
:100150000A4D61696E206D61676E65746963206D1B
:100160006174657269616C206973206E69636B6587
:100170006C20284E692920616C6C6F790A4F626A85
:10018000656374206973206120636F696E2E0A4372
:10019000757269652054656D70203D203633314B92
:1001A0002E0A436F7374203D20302E303620555375
:1001B000442028417072696C20362C203230323055
:1001C000206E69636B656C206D61726B657420765F
:1001D000616C7565290A000A4D61696E206D616761
:1001E0006E65746963206D6174657269616C206904
:1001F000732069726F6E0A4F626A65637420697357
:10020000206120726F642E0A4375726965205465FF
:100210006D70203D20313034334B0A436F737420AE
:100220003D20302E323020555344202841707269D1
:100230006C20362C20323032302069726F6E206D87
:1002400061726B65742076616C7565290A000A4DD0
:1002500061696E206D61676E65746963206D61749C
:10026000657269616C2069732069726F6E0A4F62F2
:100270006A65637420697320626174746572790AB7
:1002800043757269652054656D70203D20313034AE
:10029000334B0A436F7374203D20302E30303720AB
:1002A0005553442028417072696C20362C2032301E
:1002B00032302069726F6E206D61726B65742076CA
:1002C000616C7565290A000A4E6F206D61676E6565
:1002D000746963206D6174657269616C0A002564DC
:1002E0000A0066203D202566487A0D00E4F524F5D5
:1002F000252275A7007597DE7597AD75FF8075EFA0
:100300000675A71075C12075A70075A90075A9000D
:10031000E5A930E7FB75A90375A903E5A930E7FB5B
:1003200043A41075A60F75E10175E20075E34075F1
:100330009810758DE6858D8B53890F438920D28E59
:10034000D2997582002275A70075B28075BCF875C8
:10035000B91E75E80075DF3F75B300D2EF22AA829F
:10036000438E407592B87593FF85929485939575E9
:1003700091047B00C3EB9A500BE59130E7FB53915E
:100380007F0B80F075910022AA82AB837C007D00F8
:10039000C3EC9AED9B502B7E00BE0400501D75826D
:1003A000FAC002C003C004C005C00612035ED00636
:1003B000D005D004D003D0020E80DE0CBC00D10DDD
:1003C00080CE22AA82851CF005F07401800225E00F
:1003D000D5F0FBFB75A720BA0002800ABA010280A3
:1003E0000FBA021E8014EBF4FA52F1EB42D48012E1
:1003F000EBF4FA52F2EB42D58008EBF4FA52F3EB4D
:1004000042CC75A700228582BBD2EC20ECFDD2EC59
:1004100020ECFD85BD8285BE832212040612126582
:10042000AA82AB83ACF0FDC002C003C004C005903B
:100430006C8B75F05374401212E2AA82AB83ACF05D
:10044000FDE58124FCF581E4C0E074FCC0E0747F2C
:10045000C0E07446C0E08A828B838CF0ED12142CCD
:10046000AA82AB83ACF0FDE58124FCF5818A828B06
:10047000838CF0ED225389F0438901C28C22758C64
:1004800000758A00C28D2091FD3091FDD28C7A00DA
:100490007B0030910C108D0280F80ABA00F40B80BA
:1004A000F120910C108D0280F80ABA00F40B80F153
:1004B000C28C8A828B8312141FAA82AB83ACF0FD9C
:1004C000C002C003C004C00590000075F0807447EE
:1004D0001212E2AA82AB83ACF0FDE58124FCF58127
:1004E000858C82C002C003C004C005121385AE8291
:1004F000AF83A8F0F9C006C007C000C0019000009B
:1005000075F08074431212E2AE82AF83A8F0F9E571
:100510008124FCF581D005D004D003D002C006C0F0
:1005200007C000C0018A828B838CF0ED121390AA61
:1005300082AB83ACF0FDE58124FCF581AE8A7F00BF
:100540008E828F83C002C003C004C00512141FAE88
:1005500082AF83A8F0F9D005D004D003D002C00642
:10056000C007C000C0018A828B838CF0ED1213900B
:10057000AA82AB83ACF0FDE58124FCF581C002C00A
:1005800003C004C00590F4FC75F03274341212E21A
:10059000AA82AB83ACF0FDE58124FCF581C002C0EA
:1005A00003C004C00590000075F080743F12142C45
:1005B000AA82AB83ACF0FDE58124FCF5818A828BB5
:1005C000838CF0ED22AA82AB83ACF0FD852482857A
:1005D0002583C002C003C004C00512141F1212718B
:1005E000E58124FCF581E58224FF9200B392A222EA
:1005F0001204759001F41203887474C0E07400C092
:10060000E07480C0E01213FE15811581158174E835
:10061000C0E07400C0E07480C0E074DCC0E074002E
:10062000C0E07480C0E074A6C0E07400C0E07480D4
:10063000C0E07479C0E07400C0E07480C0E01213C0
:10064000FEE58124F4F581751C047582011203C353
:10065000751C067582011203C3751C077582011291
:1006600003C3120346A28CE433FA7B00AC897D00FD
:10067000C002C003C004C00574F1C0E07400C0E053
:100680007480C0E01213FEE58124F9F581758C00B9
:10069000758A00C28DC2A1C2A0901388120388126D
:1006A000047E85823C85833D85F03EF53FE4F52E52
:1006B000F52FF530F531F536F537F538F539E4C075
:1006C000E07440C0E0741CC0E07446C0E0852E8237
:1006D000852F838530F0E5311212B2AA82E581249C
:1006E000FCF581EA700302076612047E8582268586
:1006F000832785F028F529C03CC03DC03EC03F851A
:1007000026828527838528F0E5291212A1AA82E591
:100710008124FCF581EA60080536E4B53602053728
:10072000EA70140538E4B538020539852640852776
:1007300041852842852943E4C0E0C0E07480C0E0E0
:10074000743FC0E0852E82852F838530F0E531121D
:10075000139085822E85832F85F030F531E5812435
:10076000FCF5810206BEC3E5389536E5396480851F
:1007700037F063F08095F0500E853C32853D33852F
:100780003E34853F35800C85403285413385423487
:10079000854335C032C033C034C0357421C0E074E5
:1007A00001C0E07480C0E01213FEE58124F9F581F8
:1007B000C2A1C2A2C2A0C2A312047E85823C8583CC
:1007C0003D85F03EF53F752E00752F0075300075A4
:1007D0003100E4C0E0C0E0747AC0E07444C0E08559
:1007E0002E82852F838530F0E5311212B2AA82E580
:1007F0008124FCF581EA606C12047E858226858363
:100800002785F028F529C03CC03DC03EC03F852665
:10081000828527838528F0E5291212A1AA82E58125
:1008200024FCF581EA700E85264085274185284203
:10083000852943802FE4C0E0C0E07480C0E0743FAD
:10084000C0E0852E82852F838530F0E5311213902C
:1008500085822E85832F85F030F531E58124FCF5E6
:10086000810207D212047E85822685832785F0289F
:10087000F529C03CC03DC03EC03F85268285278308
:100880008528F0E5291212A1AA82E58124FCF581D0
:10089000EA702DC040C041C042C0438526828527F2
:1008A000838528F0E5291212A1AA82E58124FCF5AE
:1008B00081EA700C85264485274585284685294789
:1008C000E4F52EF52FF530F531F53AF53BF538F531
:1008D00039FA7B00C002C003E4C0E07440C0E07499
:1008E0009CC0E07445C0E0852E82852F838530F062
:1008F000E5311212B2AC82E58124FCF581D003D03F
:1009000002EC70030209E0C002C00312047E85827B
:100910002685832785F028F529C03CC03DC03EC010
:100920003F8526828527838528F0E5291212A1AC10
:1009300082E58124FCF581D003D002EC60070ABA7D
:1009400000670B8064C002C003C040C041C042C009
:10095000438526828527838528F0E5291212A1ACDC
:1009600082E58124FCF581D003D002EC600A0538D1
:10097000E4B5383505398031C002C003C044C045F4
:10098000C046C0478526828527838528F0E5291241
:1009900012A1AC82E58124FCF581D003D002EC6089
:1009A00008053AE4B53A02053BC002C003E4C0E0E2
:1009B000C0E07480C0E0743FC0E0852E82852F8344
:1009C0008530F0E53112139085822E85832F85F0D6
:1009D00030F531E58124FCF581D003D0020208D442
:1009E000AC3AAD3B8538488539498A4A8B4BC3E5DB
:1009F000389AE53964808BF063F08095F0501FC31E
:100A0000E53A9AE53B64808BF063F08095F0500EF8
:100A1000853C26853D27853E28853F29803EC3E5C8
:100A20004A9548E54B64808549F063F08095F05025
:100A30001FC3EC9548ED64808549F063F08095F024
:100A4000500E854026854127854228854329800C04
:100A50008544268545278546288547293095030204
:100A60000FF7743BC0E07401C0E07480C0E0121363
:100A7000FE158115811581E4C0E07422C0E0742167
:100A8000C0E07448C0E08526828527838528F0E58C
:100A9000291212B2AA82E58124FCF581C002E4C0C9
:100AA000E07440C0E0741CC0E07448C0E085268259
:100AB0008527838528F0E529121271AB82E5812410
:100AC000FCF581C003E4C0E07404C0E07426C0E01B
:100AD0007448C0E08526828527838528F0E52912A1
:100AE00012B285824CE58124FCF581E4C0E07422D9
:100AF000C0E07421C0E07448C0E085268285278369
:100B00008528F0E52912127185824DE58124FCF5D6
:100B100081C032C033C034C03585268285278385A5
:100B200028F0E5291212A185824EE58124FCF58189
:100B3000D003D002C2A1C2A2C2A0C002C00312044C
:100B40007E85823C85833D85F03EF53FD003D00213
:100B5000752E00752F00753000753100C002C0037E
:100B6000E4C0E0C0E0747AC0E07444C0E0852E8246
:100B7000852F838530F0E5311212B2AE82E58124F3
:100B8000FCF581D003D002EE607CC002C0031204E9
:100B90007E85822A85832B85F02CF52DC03CC03DB7
:100BA000C03EC03F852A82852B83852CF0E52D121F
:100BB00012A1AE82E58124FCF581D003D002EE7053
:100BC0000E852A40852B41852C42852D438037C0D8
:100BD00002C003E4C0E0C0E07480C0E0743FC0E045
:100BE000852E82852F838530F0E531121390858222
:100BF0002E85832F85F030F531E58124FCF581D0F9
:100C000003D002020B5CC002C00312047E85822A5C
:100C100085832B85F02CF52DC03CC03DC03EC03FE8
:100C2000852A82852B83852CF0E52D1212A1AE82B8
:100C3000E58124FCF581D003D002EE7035C002C0FE
:100C400003C040C041C042C043852A82852B8385B2
:100C50002CF0E52D1212A1AE82E58124FCF581D0A5
:100C600003D002EE700C852A44852B45852C4685E1
:100C70002D47E4F52EF52FF530F531F53AF53BF536
:100C800038F539FE7F00C002C003C006C007E4C0CB
:100C9000E07440C0E0749CC0E07445C0E0852E82E2
:100CA000852F838530F0E5311212B2A882E58124C8
:100CB000FCF581D007D006D003D002E87003020D06
:100CC000BAC002C003C006C00712047E85822A850E
:100CD000832B85F02CF52DC03CC03DC03EC03F8528
:100CE0002A82852B83852CF0E52D1212A1A882E59E
:100CF0008124FCF581D007D006D003D002E860073C
:100D00000EBE00770F8074C002C003C006C007C0CB
:100D100040C041C042C043852A82852B83852CF088
:100D2000E52D1212A1A882E58124FCF581D007D01F
:100D300006D003D002E8600A0538E4B5383D05392D
:100D40008039C002C003C006C007C044C045C046C9
:100D5000C047852A82852B83852CF0E52D1212A1B0
:100D6000A882E58124FCF581D007D006D003D0020B
:100D7000E86008053AE4B53A02053BC002C003C08A
:100D800006C007E4C0E0C0E07480C0E0743FC0E08B
:100D9000852E82852F838530F0E531121390858270
:100DA0002E85832F85F030F531E58124FCF581D047
:100DB00007D006D003D002020C86AC3AAD3B853892
:100DC000488539498E4A8F4BC3E5389EE5396480A2
:100DD0008FF063F08095F0501FC3E53A9EE53B64C9
:100DE000808FF063F08095F0500E853C2A853D2B76
:100DF000853E2C853F2D803EC3E54A9548E54B64F2
:100E0000808549F063F08095F0501FC3EC9548ED64
:100E100064808549F063F08095F0500E85402A8506
:100E2000412B85422C85432D800C85442A85452BFA
:100E300085462C85472DE54E6003020FB7C002C0E2
:100E400003C032C033C034C035852A82852B8385E8
:100E50002CF0E52D1212A1AC82E58124FCF581D0A5
:100E600003D002EC6003020FB7D2A1D2A090000021
:100E700075F0F07441C002C0031205C5E4C0E0740F
:100E800040C0E0741CC0E07448C0E0852A82852B15
:100E900083852CF0E52D121271AC82E58124FCF5DE
:100EA00081D003D002EC6041C002C003E4C0E07412
:100EB00022C0E07421C0E07448C0E0852A82852BFE
:100EC00083852CF0E52D1212B2AC82E58124FCF56D
:100ED00081D003D002EC60119005DCC002C0031287
:100EE0000388D003D002020FB7C002C003E4C0E001
:100EF0007422C0E07421C0E07448C0E0852A828575
:100F00002B83852CF0E52D121271AC82E58124FC37
:100F1000F581D003D002EC6056C002C003E4C0E00B
:100F20007404C0E07426C0E07448C0E0852A82855D
:100F30002B83852CF0E52D1212B2AC82E58124FCC6
:100F4000F581D003D002EC60269003E8C002C00314
:100F5000120388D003D002C2A0EB605BEA60589015
:100F600001F4C002C003120388D003D0028048906D
:100F700001F4C002C003120388D003D002C2A0EB68
:100F8000601DEA601AD2A09001F4C002C0031203EF
:100F900088C2A09001F4120388D003D0028018E523
:100FA0004D6014E54C6010D2A09001F4C002C00363
:100FB000120388D003D002C002C003C02AC02BC0D5
:100FC0002CC02D743DC0E07401C0E07480C0E012FC
:100FD00013FEE58124F9F581D003D0023095030298
:100FE0000B34743BC0E07401C0E07480C0E01213A5
:100FF000FE158115811581309003021120E4C0E0B7
:101000007440C0E0741CC0E07448C0E0852682854E
:1010100027838528F0E529121271AA82E58124FC34
:10102000F581EA6040E4C0E07422C0E07421C0E0D1
:101030007448C0E08526828527838528F0E529123B
:1010400012B2AA82E58124FCF581EA60187450C0CE
:10105000E07401C0E07480C0E01213FE15811581B8
:101060001581021120E4C0E07422C0E07421C0E0C8
:101070007448C0E08526828527838528F0E52912FB
:101080001271AA82E58124FCF581EA603FE4C0E0A8
:101090007404C0E07426C0E07448C0E085268285F0
:1010A00027838528F0E5291212B2AA82E58124FC63
:1010B000F581EA601774D7C0E07401C0E07480C0A5
:1010C000E01213FE1581158115818054E4C0E0748F
:1010D00004C0E07426C0E07448C0E08526828527FD
:1010E000838528F0E529121271AA82E58124FCF596
:1010F00081EA6017744EC0E07402C0E07480C0E002
:101100001213FE158115811581801574C7C0E07416
:1011100002C0E07480C0E01213FE158115811581B4
:10112000C032C033C034C0358526828527838528E8
:10113000F0E5291212A1AA82E58124FCF581EA607A
:1011400003021209D2A190000075F0F0744112055B
:10115000C5E4C0E07440C0E0741CC0E07448C0E066
:101160008526828527838528F0E529121271AA82B7
:10117000E58124FCF581EA6030E4C0E07422C0E03F
:101180007421C0E07448C0E08526828527838528C5
:10119000F0E5291212B2AA82E58124FCF581EA6009
:1011A000089005DC1203888066E4C0E07422C0E089
:1011B0007421C0E07448C0E0852682852783852895
:1011C000F0E529121271AA82E58124FCF581EA601A
:1011D00030E4C0E07404C0E07426C0E07448C0E0AD
:1011E0008526828527838528F0E5291212B2AA82F6
:1011F000E58124FCF581EA60089003E81203888009
:101200000E9001F412038880069001F412038820E6
:10121000B033D2A39003E8120388A291E433FA7B9F
:1012200000C002C00374DEC0E07402C0E07480C07D
:10123000E01213FEE58124FBF58120B0DDC2A3900E
:1012400001F4120388C026C027C028C02974E2C058
:10125000E07402C0E07480C0E01213FEE58124F95E
:10126000F5810207B0E4AC83AB82FAF9748E021503
:1012700054FFA881181812157CD2D133E6400730EC
:10128000E70B7582012220E70675820022C2D11287
:10129000155EE97003F5822230D101B3E433F582A3
:1012A00022FFA881181812157C12155EE96401F559
:1012B0008222FFA881181812157CD2D133E640078C
:1012C00030E70B7582002220E70675820122C2D129
:1012D00012155EE97003F5822220D101B3E433F5E3
:1012E0008222121629BC00030215C8EF60FA30D51D
:1012F00002B2D1E583B4FF030215DEE582B4FF0339
:101300000215DE258340072482400B0215C8248382
:101310001450030215DEF582EA8DF0A4A8F0EA8EDF
:10132000F0A428F8E435F0F9EB8DF0A428E935F0C5
:10133000F9E433CA8FF0A429F9EA35F0FAEBF88E14
:10134000F0A429F9EA35F0FAE433FBEC8DF0A42996
:10135000F9EA35F0FAE43BFBE88FF0A42AFAEB3522
:10136000F0FBE433CCFD8EF0A42AFAEB35F0FBE47D
:101370003CFCED8FF0A42BFBEC35F0FC20E70312D6
:1013800015F60215A7E4AC82FBFAF974860215542F
:101390001216297900E583B58202800D50031216DA
:1013A00057E583C39582121671E5D0C465D020E15C
:1013B00017EA2DFAEB3EFBEC3FFC500974011216C4
:1013C00071EC4480FC0215A7C3EA9DFAEB9EFBEC8E
:1013D0009FFC500FC3E499F9E49AFAE49BFBE49C68
:1013E000FCB2D11215F60215A7022040858218859D
:1013F000831985F01A85091B9013E9021A93C00816
:10140000858108E50824FBF51BE50824FBF8861810
:1014100008861908861A9013E9121A93D00822AC8C
:1014200083AB827A007900748E02205E1216293016
:10143000D502B2D1BF0009BC00030215EB0215DED4
:10144000BC00030215C8E583B4FF0BE582B4FF03BB
:101450000215EB0215C8E582B4FF030215DEC39541
:10146000835007247F400B0215C8248014500302C8
:1014700015DEC0E0E4CCCBCAF98D1C8E1D8F1EEFAB
:1014800054F0C4F51F758306851FF0EB84F582E9DF
:10149000C4F9EAC4FAEBC4FBEC540FC47803D6FCDD
:1014A00018EBD6FB18EAD6FA8582F0EDA4A8F0FD79
:1014B0008582F0EEA428FEE435F0F88582F0EFA4F2
:1014C00028FFE435F0F8E99DF9EA9EFAEB9FFBEC82
:1014D00098FCAD1CAE1DAF1E30E7101582E92DF94A
:1014E000EA3EFAEB3FFBE43CFC80EDC082D58398FA
:1014F000C3E933F9EA33FAEB33FBEC33FCC3E99D80
:10150000EA9EEB9FEC9400B3E413F9D002D0E0C460
:101510004AFAD003D0E0C44BFBD004D0E0F5F0543D
:101520000FC44CFCD082158230F40FD3EC13FCEBCB
:1015300013FBEA13FAE913F90582E930E70A7401AB
:101540002AFAE43BFBE43CFC0215BFFCABF0AA83A7
:10155000A982749EC2D1F5821215F60215A77901EF
:10156000AA82E68F82B5821318E6B5F00E18E6B5AA
:10157000830918E68A82B58202790022B4800FE5D9
:10158000F0700AE5837006E58270027F00EFB68096
:101590001518B6001018B6000B18B6000608080893
:1015A00076002208080822B98003EA13B34010EA43
:1015B0002401FAE43BFBE43CFC50047C800582BC43
:1015C000000EBB000BBA0008E4F5F0F583F58222AB
:1015D000A2D1E582138CF092F78B838A8222E4F504
:1015E00083F58275F080F4A2D11322E4F583F582AD
:1015F00075F0C0747F227804EC7011E58224F850F5
:101600000AF582E4C9CACBFCD8EF22EC7820058227
:1016100020E713D5820122C3E933F9EA33FAEB3329
:10162000FBEC33FCD8EA158222AA82AB83A2F73303
:1016300092D16002D2F7F582ACF0E58124F9F8E6A8
:10164000FD08E6FE0886F008E6A2F73392D56002B0
:10165000D2F7F583AFF022E582C583F582A2D133BC
:10166000A2D592D11392D5ECCFFCEBCEFBEACDFA0A
:10167000226040F82582500274FFF582E824F85079
:101680001ECCCBCAF9E4CC24F85014CBCAF9E4CB75
:1016900024F8500BCAF9E4CA24F850037900222434
:1016A000086010F8C3EC13FCEB13FBEA13FAE91320
:1016B000F9D8F122AA8274C5C0E07416C0E0C00A4D
:1016C000C00B8A82220511E4B51102051222AA82FA
:1016D00074302AFA24C6500A74072AFA30010343E8
:1016E00002208A820216B4E582FAC4540FF582C041
:1016F000021216CED002740F5AF5820216CEAA0C30
:10170000AB0DAC0EAD0FAE10751720EE2EFEED2317
:101710005401FF4206EA2AFAEB33FBEC33FCED33CB
:10172000FDC3EE95134008EEC39513FE430201D5A9
:1017300017D98A0C8B0D8C0E8D0F8E1022785BE6DC
:1017400024D075F00AA4FA785CE624D02AFA785AF4
:101750008603BB2D04C3E49AFA751301C3E46480C5
:101760008AF063F08095F050297517038A0374F6A8
:101770002517401C0513E51714244FF8E517244FCF
:10178000F98704A604772E1BEBFA6004051780DEA8
:101790008B02EA30E70D785086037851A603785023
:1017A000762E0AE515600AE51504FB2513F513806E
:1017B00005300C020513784F8603E4BB2D0104FBB2
:1017C0007006200703300802051330050302188451
:1017D000300657EB600C75822DC0021216B4D00291
:1017E000801C30070C75822BC0021216B4D0028008
:1017F0000D30080A758220C0021216B4D00278504B
:101800008604BC2E0C758230C0021216B4D00215AC
:1018100014AC141514C3E5139C40030218C8758258
:1018200030C0021216B4D00280E7AC141514C3E520
:10183000139C500C758220C0021216B4D00280EAAC
:10184000784F8604BC2D0C75822DC0021216B4D0C0
:1018500002801C30070C75822BC0021216B4D00215
:10186000800D30080A758220C0021216B4D00278AA
:10187000508604BC2E52758230C0021216B4D002BB
:1018800015148044EB600E75822DC0021216B4D080
:10189000021514802030070E75822BC0021216B478
:1018A000D0021514800F30080C758220C002121669
:1018B000B4D002151478508603BB2E0C758230C04C
:1018C000021216B4D0021514751701C20EE51724C2
:1018D0004FF88603BB4503021985BB2E348A03C328
:1018E000E464808BF063F08095F0500F758230C017
:1018F000031216B4D0031B8B0280E48B02D20EE5D8
:10190000157038200C0302198575822E1216B480CA
:1019100074300E278A03EB30E71FC3E4648085151B
:10192000F063F08095F0500C758230C0031216B44D
:10193000D00315150B8B0280DD8B02300E0EC3E435
:1019400064808515F063F08095F05021E517244FF1
:10195000F886038B82C0021216B4D002300E0EE558
:1019600017244FF88603BB2E02800215151514C3E9
:10197000E464808515F063F08095F04003200E0547
:1019800005170218CDC3E464808515F063F08095D7
:10199000F0500A7582301216B4151580E830050F24
:1019A000AA141514EA60087582201216B480F12278
:1019B000E5157003300C0D74072515FAE514C39A6C
:1019C000F5148006E51424FAF514751700784F868F
:1019D00002BA2B0F20070C784F76202008057517C8
:1019E000010514200519AA14C3E464808AF063F089
:1019F0008095F0500A7582201216B4151480E7C243
:101A00000EE517244FF88602BA00028069BA451F16
:101A10003001027665C3E464808515F063F080953B
:101A2000F0500A7582301216B4151580E8D20EC334
:101A3000E5179402E433FA7014EA700EC3E464808C
:101A40008515F063F08095F04003300E16E51724FD
:101A50004FF886028A821216B4E51724FD5012153B
:101A600015800E7402B51709300C0675822E1216F9
:101A7000B40517021A01300519AA14C3E464808A58
:101A8000F063F08095F0500A7582201216B4151498
:101A900080E72285820A85830BE4F511F512AA18E6
:101AA000AB19AC1A8A828B838CF0122082FD7401F0
:101AB0002AF518E43BF5198C1AEDFA700302203967
:101AC000BA25028003022031C205C206C207C2083D
:101AD000C209C20AC20BC20CC202C203C2047513FD
:101AE000007514007515FFAB18AC19AD1A8B828CFC
:101AF000838DF0122082FAA3AB82AC838B188C19F1
:101B00008D1ABA25078A821216B480928A06BE30D0
:101B100000402E8A06EE24C6402774FFB51513E553
:101B20001475F00AA4FEEA24D02EF51470BFD20674
:101B300080BBE51575F00AA4FEEA24D02EF51580C9
:101B4000ACBA2E0A74FFB515A4751500809F8A06DD
:101B5000BE6100400E8A06EE248540075302DFD2A4
:101B6000018002C201BA20028075BA2303021BEE73
:101B7000BA2A03021BF3BA2B02805FBA2D028055EA
:101B8000BA4202805FBA4303021C38BA4403021D02
:101B900073BA4503021D8DBA4603021D89BA470375
:101BA000021D91BA4903021D73BA4C02803BBA4E22
:101BB00003021D95BA4F03021D7ABA5003021D0C91
:101BC000BA5303021C5CBA5503021D7FBA580302C4
:101BD0001D84021DBFD205021AEDD207021AEDD2F2
:101BE00008021AEDD20A021AEDD20B021AEDD20C3B
:101BF000021AED74FFB51520300A0BE51B14F888A6
:101C00001B8614021AEDE51B24FEF8881B860608C5
:101C10008607188E14021AED300A0BE51B14F8889B
:101C20001B8615021AEDE51B24FEF8881B860608A4
:101C30008607188E15021AED300A0AE51B14F8887B
:101C40001B8602800FE51B24FEF8881B860308868E
:101C500004188B028A821216B4021DC4E51B24FDEF
:101C6000F8881B860308860408860518188B0C8CD8
:101C70000D8D0E8B828C838DF01221D6AB82AC83BE
:101C80008B1674FFB5150385161520051DC3E516C3
:101C900095145016E514C39516F514AB141514EBF2
:101CA00060087582201216B480F1850C82850D8340
:101CB000850EF0122082FBFA6029AB151515C3E4DE
:101CC00064808BF063F08095F050188A821216B40D
:101CD000AB0CAC0DAD0E0BBB00010C8B0C8C0D8D49
:101CE0000E80C7200503021DC4C3E51695144003EA
:101CF000021DC4E514C39516F514AB141514EB704E
:101D000003021DC47582201216B480EEE51B24FD6B
:101D1000F8881B860308860408860518188B0C8C27
:101D20000D8D0EE50EFB30E7047A438013EB546013
:101D300060047A50800AEB30E6047A4980027A58CF
:101D40008A82C0021216B475823A1216B4758230B5
:101D50001216B47582781216B4D002BA4902800BFA
:101D6000BA50028006850D821216E7850C82121683
:101D7000E78051D20975130A804A751308804575AA
:101D8000130A8040751310803BD2028037D2038043
:101D900033D204802FE51B24FDF8881B86030886B8
:101DA0000408860518188B0C8C0D8D0E8B828C8385
:101DB0008DF0E5111221BDA3E5121221BD80058A27
:101DC000821216B4200206200303300470E51B249F
:101DD000FCF8881B86030886040886050886061812
:101DE00018188B0C8C0D8D0E8E0FE50CE50DE50E85
:101DF000E50F8B828C838DF0EE12209E74FFB5155B
:101E000003751506300427747F550FFB8B10E51002
:101E1000EB2BFB8B10E50E30E70674014510F51037
:101E2000E51024684006749925104002D20330035F
:101E3000061219B0021A9E12173D021A9EE513707F
:101E400003021A9E7B54300A2BE51B14F8881BE60C
:101E5000FC3395E0FDFEFF8C0C8D0D8E0E8F0F2058
:101E6000095EAC0C7D007E007F008C0C8D0D8E0E0B
:101E70008F0F804C300B1FE51B24FCF8881B860459
:101E80000886050886060886071818188C0C8D0D1C
:101E90008E0E8F0F802AE51B24FEF8881B8604080F
:101EA000860518ED3395E0FEFF8C0C8D0D8E0E8FA0
:101EB0000F20090CAC0CAD0D7E007F008E0E8F0F35
:101EC000300C43E50C450D450E450F60397408B5DF
:101ED000130C758230C0031216B4D003802874101E
:101EE000B51323758230C0031216B4D00330010C31
:101EF000758278C0031216B4D003800A758258C068
:101F0000031216B4D003300925AC0CAD0DAE0EE5AE
:101F10000FFF30E717C3E49CFCE49DFDE49EFEE464
:101F20009FFF8C0C8D0D8E0E8F0F8002C2097516CF
:101F300000D20D8B00751000C0001216FED00020DC
:101F40000D0DE510C4FCE6FD4CF61888038002A6D2
:101F5000100516B20DE50C450D450E450F70D688DF
:101F600003E514700375140120061A200517E51601
:101F700004FCC39514500E758220C0031216B4D011
:101F800003151480E930090E75822DC0031216B4B2
:101F9000D00315148024E516602030070E75822BBF
:101FA000C0031216B4D0031514800F30080C7582CC
:101FB00020C0031216B4D003151420051EAC14154E
:101FC00014C3E5169C50273006047C3080027C2028
:101FD0008C82C0031216B4D00380E2C3E5169514B8
:101FE0005009E514C39516F51480037514008B0091
:101FF000AB161516EB6022B20D200D0A08E6C4548C
:102000000FFB8B1080078603740F5BF51085108221
:10201000C0001216CED00080D7200503021A9EAB56
:10202000141514EB7003021A9E7582201216B480E8
:10203000EE8A821216B4021A9E85118285128322BC
:10204000AA82BA0A0810990280FB75990D109902AC
:1020500080FB8A9922FCABF0AA83A982749EF58248
:10206000C2D1EC30E716D2D1E9F42401F9EAF43414
:1020700000FAEBF43400FBECF43400FC1215F60229
:1020800015A720F71430F6148883A88220F507E6F8
:10209000A88375830022E280F7E49322E022C0E067
:1020A000F84582458345F07009F5F0FBFCFDFE0222
:1020B000216CE823A2F792E0F8A982AA83D2F7ABB9
:1020C000F07C007E07C3749798404074FF2EFE7426
:1020D0000A89F0A4F985F082740A8AF0A4FA85F0DE
:1020E00083740A8BF0A4FB740529F9EA3582FAEBB4
:1020F0003583FB740035F0FCC3EC13FCEB13FBEAF7
:1021000013FAE913F908EC70EF80BAE8C3947FF88A
:102110008B838EF0E4FBFCFDFEFF08C3E933F9EA94
:1021200033FAE58333F583EB3BD4FBEC3CD4FCED95
:102130003DD4FDEE3ED4FEEF3FD4FF602D05F0749C
:10214000052BD4FBE43CD4FCE43DD4FDE43ED4FEBA
:10215000E43FD4FF758204C3EF13FFEE13FEED13CB
:10216000FDEC13FCEB13FBD582EDD8AF784FD0E03C
:1021700020E704762B8002762D087906E7C4540FF9
:102180004430F608B90603762E08E7540F4430F6BB
:102190000819B902E7764508E5F020E704762B80B8
:1021A00004762DF4040875F00A844430F608E5F04E
:1021B0004430F608E4F690004F75F0402220F71006
:1021C00030F6118883A88220F507F6A8837583006E
:1021D00022F280F7F022AA82AB83ACF07D007E0071
:1021E0008A828B838CF0122082FFA3AA82AB83EFBA
:1021F00060070DBD00EA0E80E78D828E832200000D
:00000001FF
